:020000040800F2
:100000000000022015280008C10D0008C30D0008DB
:10001000C50D0008C70D0008C90D0008000000004C
:10002000000000000000000000000000CB0D0008F0
:10003000CD0D000800000000CF0D0008D10D000814
:10004000652800086528000865280008652800085C
:100050006528000865280008590700086528000879
:10006000652800086528000865280008652800083C
:10007000652800086528000865280008652800082C
:10008000D90D0008652800086528000865280008C3
:10009000652800086528000865280008652800080C
:1000A00065280008652800086528000865280008FC
:1000B00065280008652800086528000865280008EC
:1000C00065280008652800086528000865280008DC
:1000D00065280008652800086528000865280008CC
:1000E00065280008652800086528000865280008BC
:1000F00065280008652800086528000865280008AC
:10010000652800086528000865280008652800089B
:10011000652800086528000865280008652800088B
:10012000652800086528000865280008652800087B
:100130006528000800000000000000006528000895
:10014000652800086528000865280008652800085B
:10015000652800086528000865280008652800084B
:10016000652800086528000865280008652800083B
:1001700065280008652800086528000800000000C0
:1001800000000000652800080000000000000000DA
:100190006528000800000000000000006528000835
:1001A00000000000000000000000000065280008BA
:1001B00065280008652800086528000865280008EB
:0401C00065280008A6
:1001C40010B5054C237833B9044B13B10448AFF38D
:1001D40000800123237010BD180C002000000000D3
:1001E400C028000808B5034B1BB103490348AFF30B
:1001F400008008BD000000001C0C0020C02800087E
:1002040053B94AB9002908BF00281CBF4FF0FF3179
:100214004FF0FF3000F088B9ADF1080C6DE904CE61
:1002240000F006F8DDF804E0DDE9022304B07047CD
:100234002DE9F047089D8E4604468846002B4AD196
:100244008A42174662D9B2FA82F64EB1C6F1200349
:1002540001FA06F820FA03F3B74043EA0808B44069
:100264004FEA174E1FFA87FCB8FBFEF1230C0EFB76
:10027400118843EA084301FB0CF29A4209D9FB189E
:1002840001F1FF3080F0EA809A4240F2E7800239BF
:100294003B449A1AA3B2B2FBFEF00EFB102243EACF
:1002A400024300FB0CFC9C4509D9FB1800F1FF320A
:1002B40080F0D6809C4540F2D3803B44023840EA2B
:1002C4000140A3EB0C0300211DB1F3400022C5E95A
:1002D4000032BDE8F0878B4205D90DB1C5E90001B4
:1002E40000210846F5E7B3FA83F1002946D17345A6
:1002F40002D3824200F20581841A6EEB03020120CC
:100304009046002DE5D0C5E90048E2E7002A00F058
:100314009080B2FA82F6002E40F0A4808A1A030C70
:100324004FEA174E80B2BCB20121B2FBFEFC0EFBB9
:100334001C2243EA024304FB0CF29A4207D9FB183D
:100344000CF1FF3802D29A4200F2E080C4469B1AB4
:10035400B3FBFEF20EFB123340EA034302FB04F448
:100364009C4207D9FB1802F1FF3002D29C4200F2F2
:10037400CA8002461B1B42EA0C40A5E7C1F12006D5
:100384008B4022FA06F71F430EFA01F420FA06F313
:100394002EFA06FE4FEA1749234300FA01F81FFA22
:1003A40087FCBEFBF9F01C0C09FB10EE44EA0E447A
:1003B40000FB0CFEA64502FA01F209D93C1900F132
:1003C400FF3A80F09C80A64540F2998002383C4474
:1003D400A4EB0E041FFA83FEB4FBF9F309FB1344E8
:1003E4004EEA044403FB0CFCA44508D93C1903F170
:1003F400FF3E80F08280A4457FD9023B3C4443EA1F
:100404000040A4EB0C04A0FB02EC64457346E146F7
:1004140062D35FD05DB1B8EB030264EB090404FA64
:1004240006F622FA01F31E43CC40C5E9006400211C
:100434004FE7B1FBF2FC010C41EA0E4180B240EA05
:1004440001423B4638463C46B846BE462026B1FBF0
:10045400F7F1A2EB080241EA0C4166E7014618E70E
:1004640010462CE7C6F120022EFA02F3B740B14041
:1004740020FA02F24FEA174E0A43B3FBFEF8BCB26D
:100484000EFB1833110C41EA034108FB04F9B04098
:1004940089454FEA104380B23ED9791808F1FF3CF0
:1004A40001D289451FD8A1EB0901B1FBFEF909FB73
:1004B40004F80EFB191192B242EA0142424529D2D4
:1004C400BA1809F1FF31C4D24245C2D2A9F10201DE
:1004D4003A44BEE7F0459DD2BEEB02036CEB070C39
:1004E4000138E14696E7A7EB09094944A8F1020C53
:1004F400B1FBFEF909FB04F8DBE773467FE75046DE
:1005040066E70846FDE63B44023A33E7ACF1020CE9
:100514003B441CE749469CE7A1EB0901C446B1FBF7
:10052400FEF909FB04F8C4E7704700BF2DE9F04F5A
:1005340089B00024039404940594069407940094C9
:100544002F4B1A6B42F080021A631A6B02F080027E
:100554000092009A01941A6B42F001021A631A6B1A
:1005640002F001020192019A02941A6B42F0020213
:100574001A631B6B03F002030293029B4FF4404B7C
:10058400CDF80CB001260496DFF87CA003A95046F0
:1005940001F010FD4FF44079CDF80C90DFF86C8039
:1005A40003A9404601F006FD4FF410470397154D8B
:1005B40003A9284601F0FEFC22465946504601F0A4
:1005C400E9FD22464946404601F0E4FD224639460B
:1005D400284601F0DFFD03964FF488130493059633
:1005E40003A9284601F0E6FC22460221062002F077
:1005F4008BF8062002F098F809B0BDE8F08F00BF30
:10060400003802400000024000080240000402409A
:1006140000B583B000210191094B1A6B42F400121A
:100624001A631B6B03F400130193019B0A46102009
:1006340002F06AF8102002F077F803B05DF804FBCA
:100644000038024072B6FEE700B58FB000230A936B
:100654000B930C930D9308930993019302930393C3
:10066400049305930693079335484FF08042026044
:1006740043608360334A1268C2600361836100F09F
:1006840077FD002850D14FF480530A930AA92C48CF
:1006940000F0D4FE002849D1294800F095FD002837
:1006A40046D100230893099308A9254801F0D6F8F8
:1006B40000283FD10022019202920392059201A9DF
:1006C4001F4800F011FE002836D1002300931E4A73
:1006D400116B41F400111163126B02F400120092C9
:1006E400009A1A481A4A02604FF0C06242604022DF
:1006F4008260C3604FF4806202614FF480524261B1
:100704004FF4804282614FF48072C2614FF4003230
:100714000262436201F0D0FD80B9094A0B4B536277
:100724009A630FB05DF804FBFFF78CFFFFF78AFFB5
:10073400FFF788FFFFF786FFFFF784FFFFF782FFCD
:10074400E80C00200400002000380240400C002087
:100754008860024010B502F04BF85C4B1B68C31A6A
:10076400C82B03D8012001F01DFD10BD574B1860A4
:10077400574B1A68D36823F40073D360554801F0CB
:1007840036FE554B1B68052B19D8DFE803F00332FE
:10079400485E748A012000F051FA504800F042FA91
:1007A4004F4B504A1A60504B4FF480721A604A4AB9
:1007B4001368013313604D4B4FF47A521A60444C62
:1007C4000021204600F0C8FEFFF73EFF002120462E
:1007D40000F008FF444B1B68454A12684049096809
:1007E4003C4801F0CFFD2268D36843F40073D36022
:1007F400B8E7012000F022FA3E4800F013FA384B23
:100804003D4A1A60384B4FF480721A60324A1368BA
:1008140001331360354B4FF47A521A60CFE701204D
:1008240000F00CFA354800F0FDF92D4B344A1A60FB
:100834002D4B4FF480721A60274A136801331360FA
:100844002A4B4FF47A521A60B9E7012000F0F6F906
:100854002C4800F0E7F9224B2B4A1A60224B46F24F
:100864003C221A601C4A1368013313601F4B4FF477
:100874007A621A60A3E7012000F0E0F9234800F04F
:10088400D1F9174B224A1A60174B43F21B721A60B4
:10089400114A136801331360144B4FF47A621A60DF
:1008A4008DE7012000F0CAF91A4800F0BBF90C4B9F
:1008B400194A1A600C4B43F60D321A60064B00229B
:1008C4001A600A4B4FF47A621A6078E7340C0020FD
:1008D400E80C0020400C00203C0C0020D828000824
:1008E400380C002008080020080C00200400002018
:1008F40000000020E028000808040020E428000884
:1009040008000020F028000808290008F82800083A
:10091400F8B1010800290008648E020800B58FB000
:1009240000230A930B930C930D930893099301935B
:100934000293039304930593069307931E481F4A57
:100944000260436083604FF4C872C26003618361D4
:1009540000F00EFC28BB4FF480530A930AA91648F2
:1009640000F06CFDF8B9144800F05AFCE8B9002313
:100974000893099308A9104800F070FFB8B96023E0
:1009840001930023029303930593082201A90A48C3
:1009940000F0D9FC68B9084800F08CFA0FB05DF893
:1009A40004FBFFF74FFEFFF74DFEFFF74BFEFFF78B
:1009B40049FEFFF747FE00BFA00C002000040040E2
:1009C40000B595B03422002107A801F04AFF0023A6
:1009D400029303930493059306930093194A116CAD
:1009E40041F080511164126C02F080520092009A1E
:1009F400019315490A6822F4404242F480420A6095
:100A04000A6802F440420192019A022207920122EA
:100A14000A9210220B920D9307A801F0A9F868B965
:100A24000F2302930021039104910591069102A8DA
:100A340000F05AFF20B915B05DF804FBFFF702FE81
:100A4400FFF700FE003802400070004008B501F0D6
:100A5400A9FEFFF7B5FFFFF769FDFFF7D9FDFFF723
:100A6400F3FDFFF75BFF00F071F908210F4800F078
:100A740073FE0F4C0021204600F0B4FD0D4D2846B6
:100A840001F0B5FC0C4B1B680C4A12680C49284653
:100A940001F078FC012000F0D1F80A4800F0C2F817
:100AA4002268D36843F40073D360FEE7A00C0020EF
:100AB400E80C0020400C0020080C0020000000205E
:100AC40008080020D828000882B000EB400000236A
:100AD400019304E000BF00BF019B01330193019B1C
:100AE4008342F7D302B0704710B51420FFF7ECFF30
:100AF400094CA36943F40043A3611420FFF7E4FF06
:100B0400A36943F00043A3611420FFF7DDFFA36949
:100B140043F40043A36110BD0008024010B504462D
:100B24003D4A936943F48043936110F0800F41D1AF
:100B34003A4A936943F00043936114F0400F40D064
:100B4400364A936943F48053936114F0200F3ED0E6
:100B5400334A936943F40073936114F0100F3CD04B
:100B64002F4A936943F480739361FFF7BDFF14F038
:100B7400080F38D0294A936943F40043936114F071
:100B8400040F36D0254A936943F48053936114F0DB
:100B9400020F34D0224A936943F40073936114F032
:100BA400010F32D01E4A936943F480739361FFF7B7
:100BB4009BFF10BDA2F50062936943F40043936167
:100BC400BBE7164A936943F080539361BDE7144A27
:100BD400936943F000739361BFE7114A936943F04B
:100BE40080739361C1E70D4A936943F000439361B5
:100BF400C5E70A4A936943F080539361C7E7084AFB
:100C0400936943F000739361C9E7054A936943F01C
:100C140080739361CBE700BF0008024000000240EC
:100C24000004024038B50546002403E0FFF776FFD0
:100C34000134E4B2285D0028F8D138BD10B504466B
:100C44003F4A936943F08043936110F0800F45D18C
:100C54003C4A936943F00043936114F0400F44D03D
:100C6400384A936943F48053936114F0200F42D0BF
:100C7400354A936943F40073936114F0100F40D024
:100C8400314A936943F480739361FFF72DFF14F0A5
:100C9400080F3CD02B4A936943F40043936114F04A
:100CA400040F3AD0274A936943F48053936114F0B4
:100CB400020F38D0244A936943F40073936114F00B
:100CC400010F36D0204A936943F480739361FFF790
:100CD4000BFF40F6B830FFF7F7FE10BDA2F5006237
:100CE400936943F400439361B7E7164A936943F069
:100CF40080539361B9E7144A936943F00073936195
:100D0400BBE7114A936943F080739361BDE70D4AD1
:100D1400936943F000439361C1E70A4A936943F03E
:100D240080539361C3E7084A936943F00073936166
:100D3400C5E7054A936943F080739361C7E700BF31
:100D440000080240000002400004024008B5194BAC
:100D54001A6B42F001021A631A6B42F002021A6320
:100D64001A6B42F004021A63134A136843F0824375
:100D7400136002F58062136843F4A023136002F544
:100D84008062136843F0A043136047F23050FFF7CA
:100D94009BFE3320FFF752FF3220FFF74FFF0C205A
:100DA400FFF74CFF2820FFF749FF0120FFF746FF1C
:100DB40008BD00BF0038024000000240FEE7FEE725
:100DC400FEE7FEE7FEE770477047704708B501F09D
:100DD40003FD08BD08B5024801F054FB08BD00BF7F
:100DE400400C002082B0002100910B4B5A6C42F45D
:100DF40080425A645A6C02F480420092009A019133
:100E04001A6C42F080521A641B6C03F080530193F5
:100E1400019B02B0704700BF0038024010B582B099
:100E24000368B3F1804F04D01E4A93422CD002B021
:100E340010BD0446002300931B4A116C41F00101CC
:100E44001164126C02F001020092009A1748184AC9
:100E540002604FF0C06242608360C3604FF48062FE
:100E640002614FF4805242614FF480428261C36157
:100E74000362436201F020FA18B90C4B63629C636D
:100E8400D5E7FFF7DFFBF8E700230193064B1A6C65
:100E940042F002021A641B6C03F002030193019BEB
:100EA400C5E700BF0004004000380240400C0020A9
:100EB4008860024000B587B0002301930293039336
:100EC4000493059302680E4B9A4202D007B05DF872
:100ED40004FB002300930B4B1A6B42F002021A63CB
:100EE4001B6B03F002030093009B01230193022375
:100EF4000293059301A9044801F05CF8E6E700BFFA
:100F040000040040003802400004024030B4036A88
:100F1400026A22F0010202624268846924F0730CBE
:100F24000C6844EA0C0423F0020C8B6843EA0C03BB
:100F3400114DA84203D005F58065A84205D123F0E0
:100F44000803CD682B4323F004030B4DA84203D0C0
:100F540005F58065A84207D122F440724D6945EA3F
:100F6400020C8A6942EA0C02426084614A68426364
:100F7400036230BC704700BF0000014030B4036A14
:100F8400026A22F4807202624268C46924F0730C1B
:100F94000C6844EA0C0523F400738C6843EA0423C8
:100FA400114CA04203D004F58064A04206D123F47E
:100FB4000063CC6843EA042323F480630A4CA04210
:100FC40003D004F58064A04207D122F440524C6956
:100FD40042EA04128C6942EA04124260C5614A681A
:100FE400C263036230BC70470000014030B4036A3E
:100FF400026A22F4805202624468C26922F4E64220
:101004000D6842EA052223F400538D6843EA053350
:10101400094DA84203D005F58065A84204D124F403
:1010240080444D6944EA85144460C2614A6802649C
:10103400036230BC704700BF0000014010B4036A73
:10104400046A24F001040462846924F0F00C4CEA7C
:10105400021223F00A030B43826103625DF8044B1E
:10106400704710B4036A046A24F0100404628469AB
:1010740024F4704C4CEA023223F0A00343EA011337
:10108400826103625DF8044B7047836823F0700348
:101094000B4343F0070383607047704770470000B9
:1010A4000368324A904212D0B0F1804F0FD0A2F5BB
:1010B4007C4290420BD002F58062904207D002F548
:1010C4008062904203D002F57842904203D123F02B
:1010D40070034A681343254A90422AD0B0F1804FE6
:1010E40027D0A2F57C42904223D002F58062904240
:1010F4001FD002F5806290421BD002F578429042E4
:1011040017D002F57052904213D002F580629042DB
:101114000FD002F5806290420BD0A2F59832904233
:1011240007D002F58062904203D002F580629042BB
:1011340003D123F44073CA68134323F080034A693C
:1011440013438A68C2620A688262084A904203D0E2
:1011540002F58062904201D10A690263026842F09A
:1011640004020260012242610360704700000140F2
:1011740040B310B5044690F83D30F3B1022384F82F
:101184003D30214651F8040BFFF78AFF012384F810
:10119400463084F83E3084F83F3084F8403084F898
:1011A400413084F8423084F8433084F8443084F881
:1011B400453084F83D30002010BD80F83C30FFF706
:1011C4002DFEDBE70120704740B310B5044690F8CC
:1011D4003D30F3B1022384F83D30214651F8040B2D
:1011E400FFF75EFF012384F8463084F83E3084F82C
:1011F4003F3084F8403084F8413084F8423084F839
:10120400433084F8443084F8453084F83D3000207D
:1012140010BD80F83C30FFF740FFDBE7012070474A
:1012240040B310B5044690F83D30F3B1022384F87E
:101234003D30214651F8040BFFF732FF012384F8B7
:10124400463084F83E3084F83F3084F8403084F8E7
:10125400413084F8423084F8433084F8443084F8D0
:10126400453084F83D30002010BD80F83C30FFF755
:1012740015FFDBE70120704730B4036A026A22F0ED
:10128400100202624468826922F4E6420D6842EA6E
:10129400052223F020038D6843EA0513114DA8426B
:1012A40003D005F58065A84206D123F08003CD68FC
:1012B40043EA051323F040030A4DA84203D005F581
:1012C4008065A84207D124F440644D6944EA85044A
:1012D4008D6944EA8504446082614A6882630362DA
:1012E40030BC70470000014090F83C30012B28D0FE
:1012F40010B50446012380F83C300C2A1CD8DFE8E2
:1013040002F0071B1B1B0C1B1B1B111B1B1B1600BA
:101314000068FFF7FBFD00200FE00068FFF7ACFF5B
:1013240000200AE00068FFF729FE002005E00068BD
:10133400FFF75CFE002000E00120002384F83C302D
:1013440010BD0220704738B590F83C30012B66D0B0
:1013540004460D46012380F83C300C2A5AD8DFE8B5
:1013640002F0075959591B595959305959594400D0
:101374000068FFF7CBFD2268936943F0080393618B
:101384002268936923F004039361226893692969AD
:101394000B43936100203EE00068FFF76DFF226875
:1013A400936943F4006393612268936923F480632F
:1013B400936122689369296943EA012393610020B8
:1013C40029E00068FFF7DAFD2268D36943F00803D7
:1013D400D3612268D36923F00403D3612268D369FB
:1013E40029690B43D361002015E00068FFF7FEFD77
:1013F4002268D36943F40063D3612268D36923F478
:101404008063D3612268D369296943EA0123D361E4
:10141400002000E00120002384F83C3038BD022085
:10142400FCE710B4846824F47F4C42EA03220A43A4
:1014340042EA0C0282605DF8044B704790F83C303D
:10144400012B78D010B50446012380F83C300223E8
:1014540080F83D300268936823F47F4323F07703D8
:1014640093600B68602B4CD023D8402B54D011D8F8
:10147400202B03D00AD80BB1102B05D119462068B4
:10148400FFF703FE002028E0012026E0302BF5D0F2
:10149400012022E0502B0AD1CA6849680068FFF78E
:1014A400CDFD50212068FFF7F0FD002015E001205C
:1014B40013E0B3F5805F3AD0B3F5005F14D0702B1E
:1014C40037D1CB684A6889680068FFF7AAFF2268A9
:1014D400936843F0770393600020012384F83D3040
:1014E400002384F83C3010BDCB684A6889680068E2
:1014F400FFF797FF2268936843F4804393600020CA
:10150400EBE7CA6849680068FFF7ABFD6021206813
:10151400FFF7BBFD0020E0E7CA6849680068FFF7F1
:101524008DFD40212068FFF7B0FD0020D5E70020A5
:10153400D3E70120D1E70220704701F01F014FF0EB
:10154400010C0CFA01FC036A23EA0C030362036A2C
:101554008A4013430362704738B504460D4600229F
:101564000068FFF7EAFF23681D4A934218D002F58A
:101574008062934214D02368196A41F21112114215
:1015840008D1196A40F24442114203D11A6822F088
:1015940001021A609DB9012384F83E30002038BD51
:1015A400196A41F211121142E5D1196A40F244421A
:1015B4001142E0D15A6C22F400425A64DBE7042D54
:1015C40005D0082D07D0012384F84130E6E7012334
:1015D40084F83F30E2E7012384F84030DEE700BFBF
:1015E4000000014010B504460846002948D194F88B
:1015F4003E30DBB2013B18BF0123002B40F0A38037
:10160400002856D1022384F83E302268D36843F080
:101614000203D360012201462068FFF78EFF23688E
:101624004C4A934203D002F58062934203D15A6C30
:1016340042F400425A642368464A934278D0B3F194
:10164400804F75D0A2F57C42934271D002F580623E
:1016540093426DD002F58062934269D002F57842DC
:10166400934265D002F57052934261D0A2F5943250
:1016740093425DD01A6842F001021A60002061E0D2
:10168400042908D008290DD094F84130DBB2013B7D
:1016940018BF0123B1E794F83F30DBB2013B18BF18
:1016A4000123AAE794F84030DBB2013B18BF0123C1
:1016B400A3E7042824D008282BD0022384F841303F
:1016C4000C2842D801A353F820F000BF0F160008DD
:1016D4004F1700084F1700084F1700080B17000892
:1016E4004F1700084F1700084F1700081D17000870
:1016F4004F1700084F1700084F1700082917000854
:10170400022384F83F302268D36843F00403D36093
:1017140080E7022384F840302268D36843F008034A
:10172400D36077E72268D36843F01003D36071E78E
:101734009A6802F00702062A09D01A6842F00102E8
:101744001A60002010BD0120FCE70120FAE7002008
:10175400F8E700BF0000014010B504460846002920
:1017640042D194F83E30DBB2013B18BF0123002B79
:101774006ED1002851D1022384F83E300122014663
:101784002068FFF7DAFE2368334A934203D002F558
:101794008062934203D15A6C42F400425A64236833
:1017A4002D4A934249D0B3F1804F46D0A2F57C42F2
:1017B400934242D002F5806293423ED002F58062A9
:1017C40093423AD002F57842934236D002F57052F1
:1017D400934232D0A2F5943293422ED01A6842F04A
:1017E40001021A60002032E0042908D008290DD033
:1017F40094F84130DBB2013B18BF0123B7E794F8FA
:101804003F30DBB2013B18BF0123B0E794F840300E
:10181400DBB2013B18BF0123A9E7042805D008283F
:1018240007D0022384F84130A8E7022384F83F302C
:10183400A4E7022384F84030A0E79A6802F0070284
:10184400062A07D01A6842F001021A60002010BD6F
:101854000120FCE70020FAE70000014090F83C205A
:10186400012A3DD010B40346012280F83C20022214
:1018740080F83D2002685068946820F0700C086875
:1018840040EA0C0050601A68164882421AD0B2F13D
:10189400804F17D0A0F57C40824213D000F58060C1
:1018A40082420FD000F5806082420BD000F5784070
:1018B400824207D000F57050824203D0A0F59430E4
:1018C400824204D124F080044968214391600122BA
:1018D40083F83D20002083F83C005DF8044B7047FA
:1018E4000220704700000140002800F09B8070B582
:1018F4000D4604464F4B1B6803F00F038B4208D27E
:10190400CBB24C4A1370136803F00F038B4240F0C0
:101914008B80236813F0020F17D013F0040F04D048
:10192400454A936843F4E0539360236813F0080F27
:1019340004D0414A936843F4604393603E4A9368F9
:1019440023F0F003A1680B439360236813F0010FA5
:1019540032D06368012B21D09A1E012A25D9364A38
:10196400126812F0020F61D033498A6822F0030230
:1019740013438B6000F03CFF06462F4B9B6803F03B
:101984000C036268B3EB820F16D000F031FF801BAA
:1019940041F288339842F0D9032042E0264A126883
:1019A40012F4003FE0D101203BE0234A126812F018
:1019B400007FD9D1012034E01E4B1B6803F00F03D4
:1019C400AB4207D9EAB21B4B1A701B6803F00F0332
:1019D400AB422DD1236813F0040F06D0164A936846
:1019E40023F4E053E1680B439360236813F0080F7A
:1019F40007D0114A936823F46043216943EAC10381
:101A0400936000F021F80C4B9B68C3F303130B4A5B
:101A1400D35CD8400A4B18600A4B186800F09CFE4F
:101A2400002070BD012070470120FAE70120F8E78B
:101A34000120F6E7003C024000380240A07A030887
:101A4400140C0020100C002008B5464B9B6803F0D2
:101A54000C03082B05D00C2B43D0042B7FD1424818
:101A640019E0404B5A6802F03F025B6813F4800FA0
:101A740012D03C4B5968C1F388113B480023A1FBA9
:101A84000001FEF7BDFB374B5B68C3F30143013331
:101A94005B00B0FBF3F008BD324B5868C0F388100C
:101AA4004FEA401CBCEB000C6EEB0E0E4FEA8E139B
:101AB40043EA9C634FEA8C11B1EB0C0163EB0E0318
:101AC400DB0043EA5173C90011EB000C43F100033E
:101AD400990200234FEA8C2041EA9C51FEF790FBC7
:101AE400D1E7204B5A6802F03F025B6813F4800F81
:101AF40010D01C4B5968C1F388111B480023A1FB6B
:101B04000001FEF77DFB174B5B68C3F30273B0FB68
:101B1400F3F0C0E7134B5868C0F388104FEA401C39
:101B2400BCEB000C6EEB0E0E4FEA8E1343EA9C6383
:101B34004FEA8C11B1EB0C0163EB0E03DB0043EABB
:101B44005173C90011EB000C43F100039902002307
:101B54004FEA8C2041EA9C51FEF752FBD3E703483D
:101B640099E700BF0038024040787D010024F4006A
:101B7400002800F0018270B582B00446036813F0B7
:101B8400010F41D0994B9B6803F00C03042B32D016
:101B9400964B9B6803F00C03082B27D0934B9B6850
:101BA40003F00C030C2B59D06368B3F5803F5BD072
:101BB400B3F5A02F5ED08D4B1A6822F480321A60E0
:101BC4001A6822F480221A606368002B5CD000F04B
:101BD4000FFE0546854B1B6813F4003F14D100F03B
:101BE40007FE401B6428F5D90320CCE17F4B5B68DA
:101BF40013F4800FD2D07D4B1B6813F4003F03D045
:101C04006368002B00F0BA81236813F0020F60D0E0
:101C1400764B9B6813F00C0F4AD0744B9B6803F00F
:101C24000C03082B3FD0714B9B6803F00C030C2B67
:101C340069D0E368002B75D06D4B01221A6000F067
:101C4400D7FD0546694B1B6813F0020F61D100F004
:101C5400CFFD401B0228F5D9032094E1634B5B6858
:101C640013F4800FA0D0C6E7604A136843F48033AE
:101C74001360A9E75D4B1A6842F480221A601A685F
:101C840042F480321A609FE700F0B2FD0546574BDC
:101C94001B6813F4003FB7D000F0AAFD401B642872
:101CA400F5D903206FE1514B5B6813F4800FBAD16F
:101CB4004E4B1B6813F0020F03D0E368012B40F076
:101CC4005F814A4A136823F0F803216943EAC10398
:101CD4001360236813F0080F49D06369002B33D0D5
:101CE400434B0122C3F8802E00F082FD05463F4B92
:101CF4005B6F13F0020F3AD100F07AFD401B02280B
:101D0400F5D903203FE1394B5B6813F4800F90D180
:101D1400CEE7364A136823F0F803216943EAC10386
:101D24001360D6E7324B00221A6000F061FD0546CD
:101D34002E4B1B6813F0020FCBD000F059FD401B53
:101D44000228F5D903201EE1294B0022C3F8802E76
:101D540000F04EFD0546254B5B6F13F0020F06D0D5
:101D640000F046FD401B0228F5D903200BE123684F
:101D740013F0040F76D01D4B1B6C13F0805F33D12E
:101D840000230193194B1A6C42F080521A641B6CA5
:101D940003F080530193019B0125164B1B6813F438
:101DA400807F29D0A368012B3AD0052B3ED00F4B5E
:101DB4001A6F22F001021A671A6F22F004021A67DE
:101DC400A368002B3CD000F013FD0646074B1B6FA5
:101DD40013F0020F45D100F00BFD801B41F2883354
:101DE4009842F3D90320CEE00025D6E7003802401C
:101DF40000004742007000406B4A136843F480734C
:101E0400136000F0F5FC0646674B1B6813F4807FF3
:101E1400C8D100F0EDFC801B0228F5D90320B2E004
:101E2400624A136F43F001031367C9E75F4B1A6FEC
:101E340042F004021A671A6F42F001021A67BFE700
:101E440000F0D6FC0646594B1B6F13F0020F08D066
:101E540000F0CEFC801B41F288339842F3D9032072
:101E640091E0EDB9A369002B00F08C804F4A926891
:101E740002F00C02082A54D0022B17D04C4B00223B
:101E84001A6600F0B5FC0446484B1B6813F0007F4B
:101E940045D000F0ADFC001B0228F5D9032072E008
:101EA400424A136C23F080531364DBE7404B002257
:101EB4001A6600F09DFC05463C4B1B6813F0007F3E
:101EC40006D000F095FC401B0228F5D903205AE007
:101ED400E369226A1343626A43EA8213A26A5208DC
:101EE400013A43EA0243E26A43EA0263226B43EAA9
:101EF40002732E4A53602E4B01221A6600F078FCBE
:101F040004462A4B1B6813F0007F06D100F070FCD6
:101F1400001B0228F5D9032035E0002033E000201F
:101F240031E0012B31D0214B5B6803F48001E2697D
:101F340091422CD103F03F02216A8A4229D1616A7D
:101F440047F6C0721A40B2EB811F24D103F440312A
:101F5400A26A5208013AB1EB024F1ED103F070623B
:101F6400E16AB2EB016F1AD103F0E043226BB3EBE9
:101F7400027F16D1002006E001207047012002E014
:101F8400012000E0002002B070BD0120FBE7012029
:101F9400F9E70120F7E70120F5E70120F3E7012045
:101FA400F1E70120EFE700BF007000400038024075
:101FB4000000474200230F2B00F2E38070B582B08B
:101FC40065E085684FEA430E032404FA0EF425EA1B
:101FD4000405CC6804FA0EF42C438460446824EAB3
:101FE40002044A68C2F300129A40224342605CE051
:101FF400DC08083450F8242003F00705AD004FF046
:102004000F0E0EFA05FE22EA0E0E0A69AA4042EAF3
:102014000E0240F824205CE0062200E0002202FACE
:102024000EF22A430234574D45F82420564A946848
:102034006FEA0C0224EA0C054E6816F4801F01D0E6
:102044004CEA0405504CA560E46802EA04054E68B5
:1020540016F4001F01D04CEA04054B4CE56064689B
:1020640002EA04054E6816F4003F01D04CEA040568
:10207400454C6560246822404D6815F4803F01D0CA
:102084004CEA0402404C226001330F2B77D8012222
:102094009A400C6804EA020C32EA0404F4D14C6855
:1020A40004F00304013C012C8BD94A6802F00302BA
:1020B400032A09D0C4685D000322AA4024EA02046A
:1020C4008A68AA402243C2604A6802F00302022AD4
:1020D4008ED004684FEA430E032202FA0EF224EA79
:1020E40002044A6802F0030202FA0EF2224302607A
:1020F4004A6812F4403FC7D000220192234A546C2C
:1021040044F480445464526C02F480420192019A73
:102114009C08A51C1B4A52F8255003F0030E4FEAF5
:102124008E0E0F2202FA0EF225EA0205184A904298
:102134003FF474AF02F58062904216D002F58062DB
:10214400904214D002F58062904212D002F580626F
:10215400904210D002F5806290420ED002F5806267
:1021640090423FF459AF072259E7012257E7022270
:1021740055E7032253E7042251E705224FE702B053
:1021840070BD704700380140003C014000380240F7
:10219400000002400AB181617047090481617047FF
:1021A4007047000008B5054B5B69034200D108BDC8
:1021B400024B5861FFF7F4FFF9E700BF003C014010
:1021C40030B405682C6824F480242C6004686360AF
:1021D4008368402B05D0036899600368DA6030BCDB
:1021E400704703689A600368D960F8E710B403681D
:1021F400D9B210390A4AA2FB01421209094CA25C65
:10220400C2655F2907D96FF3090304338365806DC1
:102214005DF8044B70476FF309038365F7E700BF6C
:10222400ABAAAAAA987A0308836A826992B9012B95
:102234000AD0022B02D00BB100207047C36A13F0FE
:10224400807F28D100207047C36AB3F1C07F24D0B7
:1022540000207047B2F5005F09D0022B25D9032B6B
:1022640025D1C36A13F0807F23D100207047032B4C
:1022740003D8DFE803F01404140A00207047C36A8B
:1022840013F0807F0DD100207047C36AB3F1C07F83
:1022940009D00020704701207047012070470120B9
:1022A40070470120704701207047012070470020CB
:1022B400704701207047000070B5044600F098FA9A
:1022C400002C5BD00546022384F83530002384F8C3
:1022D40034302268136823F00103136023681A68FA
:1022E40012F0010F0AD000F083FA431B052BF5D935
:1022F40020236365032084F8350070BD1A682049E3
:1023040011406268A0680243E06802432069024306
:1023140060690243A0690243E0690243206A024300
:102324000A43616A04291ED01A602668756925F07B
:102334000705636A1D43042B07D1A36A1D43E36A9F
:102344001BB12046FFF770FF90B975612046FFF777
:102354004DFFE26D3F2393408360002060650123BD
:1023640084F83530C9E7E16A206B01430A43DBE7AF
:1023740040236365012084F83500BEE70120BCE7F3
:102384003F8010F038B50446856D90F8340001287C
:102394002BD0012084F8340094F83500C0B2012811
:1023A40004D0002384F83430022038BD022084F89D
:1023B4003500002060652046FFF702FFE26D3F23F1
:1023C4009340AB602268136843F016031360236CD8
:1023D40023B12268136843F008031360226813686A
:1023E40043F0010313600020DFE70220DDE770B54E
:1023F4000446866D00F0FCF994F83530DBB2022B0C
:1024040006D080236365002384F83430012070BD36
:1024140005462268136823F0160313602268536983
:1024240023F080035361236CE3B12268136823F023
:10243400080313602268136823F001031360236800
:102444001B6813F0010F11D000F0D2F9431B052BC8
:10245400F5D920236365032084F83500002384F82C
:102464003430D4E7A36C002BDFD1E3E7E26D3F23E4
:102474009340B360012384F83530002084F834009D
:10248400C5E70000F0B583B0044600230193724B06
:102494001D68724BA3FB0535AD0A876D3E68C26D9E
:1024A40008239340334210D003681A6812F0040FD3
:1024B4000BD01A6822F004021A60C26D08239340FC
:1024C400BB60436D43F001034365E26D0123934018
:1024D400334209D02268526912F0800F04D0BB60E5
:1024E400636D43F002036365E26D0423934033425A
:1024F40009D02268126812F0020F04D0BB60636D29
:1025040043F004036365E26D10239340334224D007
:102514002268126812F0080F1FD0BB6023681A6883
:1025240012F4802F0DD01B6813F4002F04D1236CF8
:102534009BB12046984710E0A36C73B1204698479E
:102544000BE01A6812F4807F03D11A6822F00802A3
:102554001A60236C0BB120469847E26D2023934008
:10256400334255D02268126812F0100F50D0BB606D
:1025740094F83530DBB2052B0ED023681A6812F4B8
:10258400802F33D01B6813F4002F2AD1636C002BE7
:102594003ED0204698473BE02268136823F0160398
:1025A40013602268536923F080035361236CA3B141
:1025B4002268136823F008031360E26D3F239340FD
:1025C400BB60012384F83530002384F83430236D54
:1025D400002B3FD0204698473CE0A36C002BE7D16A
:1025E400EBE7E36BA3B12046984711E01A6812F4B5
:1025F400807F09D11A6822F010021A60012384F83E
:102604003530002384F83430E36B0BB1204698470F
:10261400636DFBB1636D13F0010F17D0052384F8CC
:1026240035302268136823F001031360019B0133E2
:102634000193AB4204D823681B6813F0010FF5D152
:10264400012384F83530002384F83430E36C0BB173
:102654002046984703B0F0BD140C0020B5814E1BF2
:10266400002807DB00F01F02400901239340024ABF
:1026740042F82030704700BF00E100E0002808DB8A
:102684000901C9B200F1604000F5614080F800130F
:10269400704700F00F000901C9B2014B195470478B
:1026A40014ED00E000B500F00700C0F1070CBCF128
:1026B400040F28BF4FF0040C031D062B0FD9C31EB3
:1026C4004FF0FF3E0EFA0CF021EA000199400EFA99
:1026D40003FE22EA0E0241EA02005DF804FB002335
:1026E400EEE70000074AD36823F4E0631B041B0CE5
:1026F400000200F4E060034343F0BF6343F400339B
:10270400D360704700ED00E010B50446054BD8686F
:10271400C0F30220FFF7C6FF01462046FFF7AEFFD5
:1027240010BD00BF00ED00E008B5FFF799FF08BD3C
:102734000138B0F1807F0BD24FF0E0235861054A95
:10274400F02182F823100020986107221A61704753
:102754000120704700ED00E010B504460E4B1A78D6
:102764004FF47A73B3FBF2F30C4A1068B0FBF3F046
:10277400FFF7DEFF68B90F2C01D901200AE000221F
:1027840021464FF0FF30FFF7BFFF054B1C600020D0
:1027940000E0012010BD00BF0C0C0020140C002030
:1027A400100C002008B50B4B1A6842F400721A6032
:1027B4001A6842F480621A601A6842F480721A60DD
:1027C4000320FFF78FFF0F20FFF7C6FFFEF70AFB7A
:1027D400002008BD003C0240034A1168034B1B78EB
:1027E4000B441360704700BF300D00200C0C002018
:1027F400014B1868704700BF300D0020034AD2F81F
:10280400883043F47003C2F88830704700ED00E06C
:10281400DFF834D0FFF7F2FF0C480D490D4A0023CE
:1028240002E0D458C4500433C4188C42F9D30A4A81
:102834000A4C002301E013600432A242FBD300F0EF
:1028440019F8FEF703F97047000002200000002089
:10285400180C0020C07A0308180C0020340D002046
:10286400FEE702440346934200D1704703F8011B7C
:10287400F9E7000070B50D4D0D4C641BA410002643
:10288400A64209D10B4D0C4C00F018F8641BA4109F
:102894000026A64205D170BD55F8043B9847013681
:1028A400EEE755F8043B98470136F2E7B87A030897
:1028B400B87A0308B87A0308BC7A0308F8B500BFED
:1028C400F8BC08BC9E467047F8B500BFF8BC08BC0D
:0428D4009E46704765
:1028D80053696E65000000005361770054726961A6
:1028E8006E676C65000000005069616E6F00000043
:1028F80047756974617200004472756D00000000CC
:10290800C8000000C8000000C8000000C80000009F
:10291800C8000000C8000000C8000000C80000008F
:10292800C8000000C8000000C8000000C80000007F
:10293800C8000000C8000000C8000000C80000006F
:10294800C8000000C8000000C8000000C80000005F
:10295800C8000000C8000000C8000000C80000004F
:10296800C8000000C8000000C8000000C80000003F
:10297800C8000000C8000000C8000000C80000002F
:10298800C8000000C8000000C8000000C80000001F
:10299800C8000000C8000000C8000000C80000000F
:1029A800C8000000C8000000C8000000C8000000FF
:1029B800C8000000C8000000C8000000C8000000EF
:1029C800C8000000C8000000C8000000C8000000DF
:1029D800C8000000C8000000C8000000C8000000CF
:1029E800C8000000C8000000C8000000C8000000BF
:1029F800C8000000C8000000C8000000C8000000AF
:102A0800C8000000C8000000C8000000C80000009E
:102A1800C8000000C8000000C8000000C80000008E
:102A2800C8000000C8000000C8000000C80000007E
:102A3800C8000000C8000000C8000000C80000006E
:102A4800C8000000C8000000C8000000C80000005E
:102A5800C8000000C8000000C8000000C80000004E
:102A6800C8000000C8000000C8000000C80000003E
:102A7800C8000000C8000000C8000000C80000002E
:102A8800C7000000C9000000C7000000C90000001E
:102A9800C6000000C70000007E00000028000000FB
:102AA8003700000082000000C5000000F0000000B0
:102AB800CB000000B1000000880000009500000075
:102AC800D0000000E900000004010000F40000004C
:102AD800C60000009200000096000000A30000005D
:102AE800CD0000000B01000002010000E40000001E
:102AF800AB00000098000000A6000000E200000003
:102B080024010000200100001C010000E300000077
:102B1800AC000000AA000000D90000002F0100004E
:102B2800700100007C0100001E010000B8000000D8
:102B38005F00000029000000380000007400000059
:102B4800BD000000DF000000DB000000A90000005D
:102B58008300000092000000B5000000DD000000C6
:102B6800F3000000E7000000C2000000A000000021
:102B780092000000A0000000D80000000A01000038
:102B88000F010000ED000000BA00000098000000EE
:102B9800A3000000CE000000FA00000019010000A8
:102BA80014010000E9000000B7000000A6000000C2
:102BB800CD000000180100005F0100007001000056
:102BC80042010000EA0000008A00000049000000FD
:102BD8003E000000650000009F000000C1000000EA
:102BE800BC0000009E00000088000000900000006B
:102BF800AF000000D9000000F2000000EA00000069
:102C0800C60000009B00000086000000980000003D
:102C1800C7000000F400000001010000EA00000005
:102C2800BC0000009A00000099000000BB000000F2
:102C3800ED0000001301000012010000EA0000008E
:102C4800B70000009B000000B1000000EC0000008D
:102C5800310100005501000043010000000100009F
:102C6800AB00000069000000560000006F00000083
:102C78009B000000BB000000C0000000AD00000089
:102C88009A0000009A000000B2000000D80000007E
:102C9800F1000000ED000000CC000000A2000000E0
:102CA8008D0000009C000000C6000000F400000039
:102CB80007010000F6000000CB000000A3000000A0
:102CC80098000000B2000000E40000000C010000C1
:102CD80013010000F3000000C1000000A000000084
:102CE800A8000000DA0000001E0100004E010000EC
:102CF8004D0100001A010000CE0000008A0000000B
:102D08006A0000007200000091000000AC000000A2
:102D1800B3000000A7000000970000009700000023
:102D2800AE000000D0000000EB000000EB00000047
:102D3800CE000000A70000008E00000095000000F3
:102D4800B9000000E4000000FB000000F1000000F2
:102D5800CC000000A300000094000000A8000000C0
:102D6800D70000000301000012010000F900000074
:102D7800C8000000A00000009A000000BF0000008A
:102D8800FD00000032010000410100001F010000A9
:102D9800E0000000A10000007C0000007C000000B2
:102DA80094000000AE000000B6000000AC00000077
:102DB8009C0000009A000000AD000000CC0000005C
:102DC800E8000000EB000000D4000000AF000000A5
:102DD8009500000098000000B7000000E000000027
:102DE800FB000000F6000000D7000000AF00000064
:102DF80099000000A5000000CD000000F9000000C7
:102E08000D010000FD000000D3000000A900000033
:102E18009C000000B5000000EC0000002301000049
:102E28003B01000029010000F7000000BE0000007F
:102E3800970000008D00000099000000A800000025
:102E4800AE000000A50000009800000096000000F9
:102E5800A8000000C6000000E2000000E900000031
:102E6800D8000000B60000009A000000960000009C
:102E7800AD000000D2000000EE000000EF000000EE
:102E8800D6000000B200000099000000A000000079
:102E9800C1000000EB00000004010000FD0000007C
:102EA800DA000000B10000009C000000A90000004A
:102EB800D5000000070100002601000021010000E4
:102EC800FC000000CC000000A700000099000000F2
:102ED800A0000000AC000000B0000000A800000046
:102EE8009B00000097000000A6000000C30000003F
:102EF800DF000000EB000000DE000000BF00000063
:102F0800A100000098000000AA000000CD00000009
:102F1800EC000000F4000000E3000000C100000025
:102F2800A5000000A2000000BA000000E0000000B8
:102F3800FB000000FB000000E0000000BA000000F9
:102F4800A3000000A8000000CA000000F80000006C
:102F58001B0100002001000007010000DF00000045
:102F6800BA000000A8000000A8000000AF000000A0
:102F7800B0000000A70000009900000092000000C7
:102F88009F000000BA000000D8000000E800000020
:102F9800E1000000C5000000A60000009700000046
:102FA800A2000000C1000000E1000000EF000000E6
:102FB800E3000000C5000000A9000000A000000018
:102FC800B2000000D6000000F5000000FD0000007F
:102FD800E9000000C5000000A8000000A4000000EF
:102FE800BD000000E7000000090100001501000015
:102FF80005010000E5000000C4000000B200000068
:10300800AF000000B4000000B4000000AB000000F6
:103018009C000000940000009D000000B600000025
:10302800D5000000E8000000E5000000CD00000029
:10303800AF0000009C000000A0000000B9000000E4
:10304800D9000000EC000000E8000000D0000000FB
:10305800B3000000A6000000B0000000CD00000092
:10306800EC000000FA000000ED000000CF000000B6
:10307800B1000000A5000000B5000000D800000065
:10308800FC0000000F01000009010000F100000031
:10309800D3000000BF000000B8000000B800000026
:1030A800B7000000AD0000009C0000008F00000089
:1030B80091000000A7000000C7000000E000000029
:1030C800E6000000D6000000BA000000A2000000E0
:1030D8009E000000B0000000CD000000E3000000EA
:1030E800E6000000D3000000B8000000A7000000C0
:1030F800AB000000C3000000E2000000F500000083
:10310800F1000000D9000000BB000000A900000089
:10311800B1000000CD000000EE0000000401000036
:1031280005010000F3000000DA000000C7000000FD
:10313800C0000000C1000000BF000000B400000093
:10314800A30000009400000092000000A20000000C
:10315800C0000000DB000000E7000000DD00000008
:10316800C3000000AA000000A0000000AB0000009F
:10317800C6000000DF000000E7000000DB000000E0
:10318800C2000000AD000000AB000000BE0000005F
:10319800DA000000F0000000F3000000E00000008A
:1031A800C3000000AF000000AE000000C400000033
:1031B800E2000000FB00000001010000F500000033
:1031C800E2000000D2000000CB000000CB000000AD
:1031D800C8000000BC000000A90000009600000024
:1031E8008E0000009A000000B5000000D300000027
:1031F800E3000000DF000000C9000000B10000008B
:10320800A4000000AA000000C0000000D7000000D1
:10321800E2000000D8000000C2000000AD0000007D
:10322800A7000000B6000000D0000000E900000080
:10323800F0000000E5000000CC000000B60000002F
:10324800B0000000BD000000D4000000EA0000004B
:10325800F4000000EF000000E2000000D5000000CC
:10326800CF000000CE000000CC000000C20000002B
:10327800AF0000009C0000009200000099000000D0
:10328800B0000000CC000000DE000000DE000000FE
:10329800CD000000B7000000A9000000AC0000004D
:1032A800BE000000D4000000E0000000DB000000C9
:1032B800C7000000B2000000A9000000B300000031
:1032C800CB000000E3000000F0000000EA0000006E
:1032D800D5000000BE000000B3000000B9000000E7
:1032E800CC000000E1000000EE000000EE0000004D
:1032F800E6000000DD000000D7000000D600000056
:10330800D3000000C9000000B7000000A3000000BF
:103318009600000098000000AB000000C500000007
:10332800D8000000DD000000D1000000BC00000053
:10333800AC000000AA000000B8000000CC000000AB
:10334800DB000000DA000000CB000000B60000003F
:10335800AA000000AE000000C2000000DA00000071
:10336800EB000000EA000000DB000000C6000000DF
:10337800B7000000B8000000C5000000D70000003A
:10338800E4000000E8000000E3000000DB000000AB
:10339800D7000000D8000000D7000000CF000000D0
:1033A800BF000000AA0000009B0000009900000078
:1033B800A8000000C0000000D7000000DF000000E7
:1033C800D5000000C3000000B1000000AC00000000
:1033D800B5000000C6000000D5000000D8000000BD
:1033E800CF000000BF000000B4000000B3000000E0
:1033F800BE000000CF000000DD000000E10000007A
:10340800DB000000CE000000C3000000BF00000089
:10341800C3000000CC000000D6000000DD00000062
:10342800E1000000E2000000E3000000E10000000D
:10343800DB000000D0000000BE000000AC0000006F
:10344800A1000000A0000000AA000000BC000000CD
:10345800CC000000D5000000D2000000C70000002A
:10346800BB000000B6000000BA000000C400000065
:10347800CE000000D1000000CB000000C100000019
:10348800B8000000B5000000BC000000C900000042
:10349800D4000000DA000000D8000000D1000000CD
:1034A800C8000000C4000000C5000000C9000000FA
:1034B800CF000000D4000000D8000000DC000000AD
:1034C800E1000000E3000000DF000000D60000007B
:1034D800C4000000B1000000A30000009F0000002D
:1034E800A6000000B6000000C6000000D1000000E1
:1034F800D1000000C9000000BF000000B9000000B2
:10350800BB000000C3000000CD000000D200000096
:10351800D1000000C8000000BE000000B900000093
:10352800BC000000C6000000D1000000D800000068
:10353800D8000000D3000000CC000000C700000045
:10354800C6000000C9000000CD000000D000000047
:10355800D4000000D8000000DE000000E5000000F4
:10356800E7000000E1000000D2000000BD000000FC
:10357800AA0000009F000000A1000000AD000000AC
:10358800BF000000CD000000D1000000CB0000000B
:10359800C1000000BA000000B9000000C10000002E
:1035A800CA000000D1000000D1000000CA000000DD
:1035B800BF000000BA000000BB000000C20000000D
:1035C800CC000000D3000000D4000000D2000000AE
:1035D800CD000000CA000000CA000000CB000000B7
:1035E800CB000000CB000000CC000000D0000000A1
:1035F800D9000000E2000000E9000000E700000038
:10360800DA000000C5000000B0000000A3000000C0
:10361800A2000000AB000000BB000000C8000000D2
:10362800CE000000CB000000C3000000BB0000007B
:10363800BB000000C2000000CA000000D00000006B
:10364800D0000000CB000000C3000000BD00000057
:10365800BD000000C1000000C9000000CE0000004D
:10366800D0000000D0000000CF000000CD00000016
:10367800CD000000CD000000CB000000C900000014
:10368800C9000000CC000000D5000000DF000000E9
:10369800E8000000E9000000E1000000D0000000A0
:1036A800BB000000AA000000A4000000A800000061
:1036B800B4000000C2000000CB000000CB000000F6
:1036C800C6000000BF000000BB000000BF000000F3
:1036D800C6000000CC000000CE000000CC000000B6
:1036E800C7000000C1000000BF000000BF000000CC
:1036F800C3000000C9000000CC000000CD0000009D
:10370800CE000000CF000000CF000000CF00000076
:10371800CE000000CA000000C7000000C70000007B
:10372800CC000000D7000000E3000000E800000023
:10373800E4000000D8000000C5000000B30000004D
:10374800A9000000A9000000B1000000BD000000B1
:10375800C7000000CA000000C6000000C00000004A
:10376800BD000000BE000000C5000000CB00000046
:10377800CE000000CD000000C8000000C30000001B
:10378800C0000000C0000000C3000000C700000027
:10379800CA000000CB000000CC000000CD000000F3
:1037A800D0000000D1000000D0000000CD000000D3
:1037B800C8000000C6000000C9000000D2000000D8
:1037C800DD000000E7000000E8000000DF00000066
:1037D800CE000000BB000000AD000000AA00000001
:1037E800AF000000B9000000C2000000C7000000E0
:1037F800C5000000C2000000BF000000BF000000BC
:10380800C4000000C9000000CD000000CD00000089
:10381800CA000000C5000000C2000000C10000008E
:10382800C3000000C5000000C8000000C900000077
:10383800CB000000CD000000CF000000D000000049
:10384800D0000000CC000000C7000000C400000049
:10385800C6000000CD000000D7000000E200000014
:10386800E6000000E1000000D5000000C3000000F1
:10387800B4000000AD000000AE000000B60000007B
:10388800BF000000C5000000C5000000C300000024
:10389800C0000000BF000000C3000000C800000016
:1038A800CC000000CD000000CB000000C8000000E4
:1038B800C5000000C4000000C5000000C6000000EC
:1038C800C8000000C8000000C9000000CB000000CC
:1038D800CF000000D2000000D3000000D00000009C
:1038E800CA000000C4000000C2000000C7000000B9
:1038F800D1000000DD000000E5000000E400000049
:10390800DA000000CA000000BA000000AF000000A2
:10391800AE000000B3000000BB000000C3000000C0
:10392800C5000000C4000000C1000000BF00000086
:10393800C1000000C6000000CA000000CC00000062
:10394800CC000000C8000000C5000000C400000052
:10395800C4000000C5000000C7000000C700000048
:10396800C7000000C9000000CD000000D100000021
:10397800D4000000D4000000CE000000C600000003
:10398800C1000000C1000000C9000000D50000000F
:10399800DF000000E4000000DF000000D1000000AC
:1039A800C0000000B3000000AF000000B20000003B
:1039B800B9000000C1000000C5000000C5000000FB
:1039C800C3000000C1000000C1000000C5000000E5
:1039D800C9000000CC000000CD000000CB000000B2
:1039E800C8000000C6000000C6000000C7000000B4
:1039F800C8000000C7000000C7000000C7000000A2
:103A0800CB000000D0000000D4000000D40000006B
:103A1800D1000000CA000000C3000000C10000007F
:103A2800C5000000D0000000DB000000E10000003D
:103A3800DF000000D5000000C7000000B90000004A
:103A4800B2000000B2000000B7000000BE00000095
:103A5800C3000000C4000000C2000000C100000054
:103A6800C1000000C3000000C7000000CA00000039
:103A7800CB000000CB000000C9000000C700000018
:103A8800C8000000C9000000C9000000C80000000C
:103A9800C6000000C7000000CA000000CE000000F9
:103AA800D2000000D5000000D4000000CE000000C5
:103AB800C7000000C3000000C4000000CB000000E5
:103AC800D4000000DC000000DE000000D900000087
:103AD800CE000000C1000000B7000000B5000000E3
:103AE800B7000000BC000000C1000000C2000000D8
:103AF800C3000000C2000000C1000000C2000000B6
:103B0800C5000000C8000000C9000000CA0000008D
:103B1800C9000000C8000000C8000000C80000007C
:103B2800C8000000C7000000C6000000C500000073
:103B3800C6000000CB000000D0000000D300000049
:103B4800D4000000D0000000CA000000C50000003A
:103B5800C4000000C8000000D0000000D70000002A
:103B6800DB000000D8000000CF000000C500000006
:103B7800BC000000B8000000B8000000BB00000056
:103B8800BF000000C2000000C3000000C200000027
:103B9800C2000000C4000000C6000000C800000009
:103BA800C9000000C9000000C9000000C8000000EA
:103BB800C8000000C8000000C8000000C8000000DD
:103BC800C7000000C6000000C6000000C8000000D2
:103BD800CD000000D1000000D2000000D10000009C
:103BE800CC000000C7000000C5000000C6000000AF
:103BF800CB000000D2000000D8000000D90000006F
:103C0800D4000000CB000000C2000000BB00000090
:103C1800B9000000BB000000BE000000C2000000A8
:103C2800C3000000C3000000C3000000C40000007F
:103C3800C6000000C8000000CA000000CB00000059
:103C4800C9000000C8000000C7000000C70000004D
:103C5800C8000000C9000000C8000000C70000003C
:103C6800C6000000C6000000C9000000CD0000002A
:103C7800D0000000D1000000CF000000C900000003
:103C8800C5000000C4000000C8000000CE0000000D
:103C9800D5000000D7000000D5000000CF000000CC
:103CA800C6000000BE000000BA000000BA00000014
:103CB800BC000000BF000000C1000000C2000000FE
:103CC800C3000000C4000000C6000000C9000000D6
:103CD800CA000000CA000000C9000000C8000000B7
:103CE800C6000000C6000000C7000000C9000000B0
:103CF800C9000000C9000000C7000000C60000009D
:103D0800C7000000CB000000CF000000D100000079
:103D1800D0000000CB000000C6000000C400000076
:103D2800C6000000CC000000D3000000D70000004F
:103D3800D7000000D1000000C9000000C200000048
:103D4800BD000000BB000000BD000000BF00000077
:103D5800C0000000C1000000C1000000C300000056
:103D6800C6000000CA000000CC000000CC00000023
:103D7800CA000000C8000000C7000000C70000001B
:103D8800C9000000CA000000CA000000C800000006
:103D9800C5000000C4000000C6000000CB00000001
:103DA800CF000000D2000000D1000000CC000000CD
:103DB800C7000000C4000000C6000000CA000000E0
:103DC800D1000000D6000000D6000000D20000009C
:103DD800CB000000C5000000C0000000BD000000CE
:103DE800BD000000BE000000BF000000BE000000D3
:103DF800BF000000C0000000C4000000C7000000B1
:103E0800CA000000CC000000CB000000CA0000007F
:103E1800C9000000C8000000C9000000C900000077
:103E2800C9000000C7000000C5000000C400000071
:103E3800C6000000C9000000CE000000D00000004D
:103E4800D0000000CD000000C8000000C500000040
:103E5800C5000000C9000000CE000000D30000002B
:103E6800D5000000D2000000CD000000C70000000F
:103E7800C3000000C1000000C0000000BF00000037
:103E8800BE000000BD000000BD000000BF00000033
:103E9800C3000000C7000000CA000000CC000000FA
:103EA800CC000000CA000000CA000000C9000000E1
:103EB800CA000000CB000000CA000000C9000000D2
:103EC800C6000000C5000000C6000000C9000000D0
:103ED800CD000000D0000000D0000000CD000000A0
:103EE800C9000000C6000000C6000000C8000000AD
:103EF800CD000000D2000000D4000000D200000075
:103F0800CE000000C9000000C5000000C20000008B
:103F1800C1000000C0000000BF000000BE0000009B
:103F2800BE000000BF000000C1000000C500000086
:103F3800C8000000CA000000CB000000CA00000052
:103F4800C8000000C8000000C9000000CA00000046
:103F5800CA000000C9000000C6000000C50000003B
:103F6800C5000000C8000000CC000000CF00000021
:103F7800D0000000CE000000CB000000C700000009
:103F8800C6000000C7000000CB000000CF00000002
:103F9800D1000000D1000000CF000000CA000000DE
:103FA800C6000000C3000000C1000000C0000000FF
:103FB800C0000000BE000000BE000000C0000000FD
:103FC800C2000000C5000000C7000000C8000000D3
:103FD800C9000000C8000000C8000000C9000000B7
:103FE800C9000000CA000000CA000000C9000000A3
:103FF800C7000000C6000000C7000000C90000009C
:10400800CB000000CE000000CF000000CF00000071
:10401800CD000000CA000000C9000000C90000006F
:10402800CB000000CD000000CF000000D000000051
:10403800CE000000CB000000C8000000C500000052
:10404800C3000000C2000000C0000000BF00000064
:10405800BE000000BF000000C1000000C400000056
:10406800C7000000C8000000C9000000C800000028
:10407800C7000000C6000000C7000000C80000001C
:10408800C8000000C8000000C7000000C70000000A
:10409800C7000000C8000000C9000000CC000000F4
:1040A800CD000000CD000000CD000000CC000000D5
:1040B800CB000000CB000000CC000000CD000000C9
:1040C800CD000000CE000000CE000000CD000000B2
:1040D800CB000000C8000000C5000000C3000000BD
:1040E800C1000000C0000000C0000000C0000000C7
:1040F800C1000000C3000000C5000000C7000000A8
:10410800C8000000C9000000C8000000C800000086
:10411800C7000000C7000000C8000000C800000079
:10412800C8000000C7000000C7000000C70000006A
:10413800C8000000CA000000CC000000CD0000004C
:10414800CD000000CC000000CA000000C90000003B
:10415800CA000000CB000000CC000000CD00000029
:10416800CD000000CC000000CB000000C90000001A
:10417800C8000000C6000000C4000000C200000023
:10418800C1000000C0000000C1000000C300000022
:10419800C5000000C7000000C8000000C8000000FB
:1041A800C8000000C7000000C7000000C8000000E9
:1041B800C8000000C8000000C8000000C7000000D8
:1041C800C7000000C7000000C8000000CA000000C7
:1041D800CB000000CC000000CC000000CB000000A9
:1041E800CA000000C9000000C9000000C9000000A2
:1041F800CA000000CB000000CB000000CC0000008B
:10420800CB000000C9000000C7000000C600000085
:10421800C5000000C4000000C3000000C200000088
:10422800C2000000C3000000C4000000C500000078
:10423800C7000000C9000000C9000000C900000054
:10424800C9000000C8000000C8000000C800000045
:10425800C8000000C8000000C8000000C800000036
:10426800C8000000C9000000CA000000CB00000020
:10427800CD000000CD000000CC000000CB00000005
:10428800CA000000C9000000CA000000CA000000FF
:10429800CB000000CB000000CB000000CA000000EB
:1042A800C9000000C8000000C6000000C5000000EA
:1042B800C4000000C4000000C3000000C3000000E8
:1042C800C4000000C5000000C7000000C8000000CE
:1042D800C9000000C9000000C8000000C7000000B5
:1042E800C7000000C7000000C7000000C8000000A9
:1042F800C8000000C8000000C8000000C800000096
:10430800C9000000CA000000CB000000CC0000007B
:10431800CC000000CB000000CA000000C90000006B
:10432800C8000000C9000000CA000000CB0000005F
:10433800CB000000CB000000CA000000C80000004D
:10434800C7000000C6000000C5000000C50000004E
:10435800C4000000C4000000C4000000C500000044
:10436800C6000000C8000000C9000000C900000025
:10437800C8000000C7000000C6000000C60000001A
:10438800C7000000C8000000C9000000C800000005
:10439800C7000000C7000000C7000000C9000000F7
:1043A800CB000000CC000000CD000000CB000000D6
:1043B800C9000000C7000000C6000000C8000000D7
:1043C800CA000000CB000000CB000000CA000000BB
:1043D800C8000000C7000000C6000000C7000000B9
:1043E800C8000000C7000000C6000000C4000000AC
:1043F800C3000000C4000000C6000000C90000009F
:10440800CA000000C9000000C7000000C500000085
:10441800C5000000C5000000C7000000C80000007B
:10442800C9000000C8000000C7000000C600000066
:10443800C7000000C9000000CC000000CD0000004B
:10444800CD000000CC000000C9000000C70000003B
:10445800C7000000C8000000CA000000CB00000030
:10446800CB000000CA000000C9000000C80000001E
:10447800C8000000C9000000C9000000C800000012
:10448800C6000000C4000000C3000000C400000013
:10449800C6000000C9000000C9000000C9000000F3
:1044A800C7000000C5000000C5000000C6000000ED
:1044B800C7000000C9000000C9000000C8000000D3
:1044C800C6000000C5000000C6000000C8000000CB
:1044D800CB000000CC000000CD000000CB000000A5
:1044E800CA000000C8000000C8000000C9000000A1
:1044F800CA000000CB000000CA000000C90000008C
:10450800C9000000CA000000CA000000CB0000007B
:10451800CB000000C8000000C6000000C400000076
:10452800C3000000C4000000C7000000C90000006C
:10453800C9000000C9000000C7000000C500000055
:10454800C4000000C5000000C7000000C90000004A
:10455800C9000000C7000000C5000000C40000003A
:10456800C4000000C6000000C9000000CB00000025
:10457800CC000000CB000000CA000000C900000009
:10458800C9000000C9000000CA000000CA000000FD
:10459800C9000000C9000000C9000000CA000000EE
:1045A800CB000000CB000000CB000000C9000000D9
:1045B800C6000000C3000000C3000000C4000000E3
:1045C800C7000000C9000000C9000000C9000000C1
:1045D800C7000000C5000000C5000000C6000000BC
:1045E800C7000000C9000000C9000000C8000000A2
:1045F800C6000000C4000000C4000000C5000000A0
:10460800C6000000C8000000CA000000CA00000080
:10461800C9000000C9000000C9000000C90000006E
:10462800CA000000CA000000CA000000C90000005B
:10463800C9000000C9000000CA000000CB0000004B
:10464800CB000000CA000000C8000000C60000003F
:10465800C4000000C5000000C6000000C80000003B
:10466800C9000000C8000000C7000000C600000024
:10467800C6000000C6000000C7000000C900000016
:10468800CA000000CA000000C8000000C7000000FF
:10469800C6000000C6000000C6000000C8000000F8
:1046A800C8000000C8000000C8000000C8000000E2
:1046B800CA000000CB000000CB000000CB000000C7
:1046C800C9000000C9000000C8000000C9000000BF
:1046D800CA000000CB000000CC000000CB000000A6
:1046E800C9000000C7000000C6000000C5000000A7
:1046F800C6000000C7000000C7000000C700000097
:10470800C7000000C6000000C6000000C600000088
:10471800C7000000C8000000C9000000C900000070
:10472800C8000000C8000000C7000000C700000063
:10473800C7000000C6000000C6000000C600000058
:10474800C7000000C8000000CA000000CB0000003D
:10475800CC000000CB000000C9000000C70000002A
:10476800C6000000C7000000C9000000CB00000020
:10477800CC000000CB000000CA000000C800000008
:10478800C7000000C7000000C7000000C800000004
:10479800C8000000C7000000C6000000C6000000F6
:1047A800C6000000C6000000C7000000C8000000E6
:1047B800C9000000C8000000C8000000C8000000D0
:1047C800C9000000C9000000C9000000C8000000BE
:1047D800C7000000C7000000C7000000C8000000B4
:1047E800C9000000CB000000CC000000CB00000096
:1047F800CA000000C8000000C7000000C700000091
:10480800C8000000CA000000CB000000CC00000077
:10481800CA000000C9000000C7000000C70000006F
:10482800C7000000C7000000C7000000C700000064
:10483800C6000000C5000000C5000000C60000005A
:10484800C7000000C8000000C8000000C700000042
:10485800C7000000C7000000C8000000C900000031
:10486800C9000000C9000000C7000000C600000021
:10487800C6000000C7000000C9000000CB0000000F
:10488800CB000000CB000000C9000000C7000000FA
:10489800C5000000C6000000C7000000C9000000F5
:1048A800CB000000CB000000CB000000CA000000D5
:1048B800C8000000C8000000C7000000C8000000D1
:1048C800C8000000C7000000C7000000C6000000C4
:1048D800C5000000C5000000C5000000C6000000BB
:1048E800C7000000C7000000C8000000C8000000A2
:1048F800C8000000C9000000C9000000C90000008D
:10490800C8000000C7000000C6000000C700000083
:10491800C8000000CA000000CB000000CB00000067
:10492800CA000000C8000000C6000000C500000062
:10493800C7000000C9000000CB000000CC00000048
:10494800CB000000CA000000C8000000C70000003B
:10495800C8000000C9000000C9000000C90000002C
:10496800C8000000C7000000C6000000C600000024
:10497800C7000000C7000000C8000000C800000011
:10498800C8000000C8000000C8000000C9000000FE
:10499800CA000000C9000000C8000000C6000000EE
:1049A800C5000000C5000000C7000000C9000000E5
:1049B800CB000000CB000000CA000000C8000000C7
:1049C800C5000000C5000000C5000000C8000000C8
:1049D800CA000000CB000000CB000000CA000000A5
:1049E800C8000000C7000000C8000000C8000000A0
:1049F800C9000000C9000000C8000000C70000008E
:104A0800C6000000C6000000C6000000C700000085
:104A1800C7000000C8000000C8000000C80000006F
:104A2800C8000000C9000000C9000000C90000005B
:104A3800C8000000C6000000C5000000C500000056
:104A4800C7000000C9000000CB000000CB00000038
:104A5800CA000000C8000000C6000000C600000030
:104A6800C6000000C8000000CA000000CB0000001B
:104A7800CB000000CA000000C9000000C900000007
:104A8800C9000000C9000000C9000000C9000000FA
:104A9800C8000000C7000000C7000000C6000000F2
:104AA800C7000000C7000000C7000000C7000000E2
:104AB800C7000000C7000000C8000000C9000000CF
:104AC800CA000000CA000000C8000000C7000000BB
:104AD800C5000000C5000000C6000000C8000000B6
:104AE800CA000000CB000000CA000000C800000097
:104AF800C6000000C5000000C6000000C700000096
:104B0800C9000000CB000000CB000000CA00000074
:104B1800C9000000C8000000C8000000C90000006B
:104B2800CA000000CA000000CA000000C800000057
:104B3800C7000000C6000000C6000000C700000053
:104B4800C7000000C7000000C7000000C700000041
:104B5800C8000000C8000000C9000000CA0000002A
:104B6800CA000000C8000000C6000000C500000020
:104B7800C4000000C6000000C8000000CA00000011
:104B8800CB000000C9000000C7000000C5000000FD
:104B9800C5000000C6000000C9000000CA000000EF
:104BA800CB000000CA000000C8000000C7000000D9
:104BB800C8000000C9000000CA000000CA000000C8
:104BC800C9000000C8000000C7000000C7000000BE
:104BD800C7000000C8000000C9000000C9000000AC
:104BE800C8000000C7000000C6000000C8000000A0
:104BF800CA000000CC000000CB000000C900000083
:104C0800C6000000C4000000C3000000C50000008A
:104C1800C8000000CA000000CB000000CA00000065
:104C2800C7000000C5000000C4000000C600000066
:104C3800C8000000CA000000CA000000CA00000046
:104C4800C8000000C7000000C7000000C80000003E
:104C5800C9000000CA000000C9000000C800000028
:104C6800C7000000C6000000C7000000C800000020
:104C7800C9000000C9000000C8000000C80000000A
:104C8800C7000000C8000000CA000000CB000000F8
:104C9800CB000000CA000000C8000000C5000000EA
:104CA800C4000000C5000000C7000000C9000000E3
:104CB800CB000000CA000000C8000000C6000000C9
:104CC800C5000000C6000000C8000000CA000000BF
:104CD800CA000000C9000000C7000000C6000000AC
:104CE800C6000000C8000000C9000000CA0000009B
:104CF800CA000000C8000000C6000000C60000008E
:104D0800C6000000C8000000C9000000CA0000007A
:104D1800C9000000C8000000C7000000C80000006B
:104D2800C9000000CB000000CC000000CB00000050
:104D3800C9000000C6000000C4000000C400000054
:104D4800C6000000C9000000CA000000CA00000038
:104D5800C8000000C6000000C6000000C700000030
:104D6800C9000000CA000000CA000000C900000015
:104D7800C7000000C5000000C5000000C700000013
:104D8800C9000000CA000000CA000000C8000000F6
:104D9800C5000000C4000000C5000000C6000000F7
:104DA800C8000000C9000000C9000000C7000000DA
:104DB800C6000000C7000000C9000000CB000000CA
:104DC800CC000000CB000000C9000000C6000000B5
:104DD800C4000000C5000000C6000000C9000000B3
:104DE800CB000000CB000000C9000000C700000095
:104DF800C7000000C8000000C9000000CB00000088
:104E0800CB000000CA000000C8000000C600000077
:104E1800C5000000C6000000C8000000C90000006E
:104E2800C9000000C8000000C7000000C60000005C
:104E3800C6000000C7000000C8000000C90000004C
:104E4800C9000000C8000000C7000000C80000003A
:104E5800C9000000CB000000CC000000CB0000001F
:104E6800C9000000C6000000C5000000C500000021
:104E7800C7000000C9000000CB000000CA00000005
:104E8800C9000000C7000000C6000000C7000000FD
:104E9800C9000000CB000000CB000000CA000000E1
:104EA800C7000000C5000000C4000000C5000000E5
:104EB800C7000000C8000000C9000000C8000000CA
:104EC800C7000000C6000000C6000000C7000000C0
:104ED800C8000000C9000000C9000000C9000000A7
:104EE800C8000000C8000000C9000000CA00000097
:104EF800CB000000CA000000C9000000C700000085
:104F0800C6000000C6000000C7000000C90000007D
:104F1800CA000000C9000000C8000000C700000067
:104F2800C6000000C7000000C9000000CB00000058
:104F3800CB000000CB000000C9000000C600000044
:104F4800C5000000C5000000C6000000C700000042
:104F5800C8000000C8000000C6000000BD00000036
:104F6800B5000000B9000000C3000000CB0000003D
:104F7800CF000000C9000000C6000000C10000000A
:104F8800C5000000CD000000D0000000D3000000E4
:104F9800CF000000C9000000C2000000C3000000EC
:104FA800C3000000CA000000D1000000CF000000CC
:104FB800CB000000C4000000C3000000C6000000D1
:104FC800CF000000D5000000D3000000D200000090
:104FD800C9000000C2000000C2000000C8000000B4
:104FE800D3000000DA000000DA000000CD00000065
:104FF800C2000000B8000000B3000000B7000000C5
:10500800C0000000C9000000CC000000CB00000078
:10501800C3000000BF000000C2000000C80000007C
:10502800CD000000CF000000CE000000C800000046
:10503800C4000000C3000000C6000000CD0000004E
:10504800D2000000D1000000CB000000C400000026
:10505800C1000000C4000000CA000000CF0000002A
:10506800D3000000D1000000CB000000C400000005
:10507800C2000000C8000000D1000000D9000000F4
:10508800D9000000D2000000C7000000BB000000EB
:10509800B5000000B5000000BC000000C40000001E
:1050A800C8000000C7000000C3000000C0000000E6
:1050B800C2000000C6000000CB000000CE000000C7
:1050C800CD000000C8000000C3000000C1000000BF
:1050D800C4000000CA000000CF000000D00000009B
:1050E800CC000000C6000000C2000000C2000000A2
:1050F800C8000000CF000000D3000000D10000006D
:10510800CB000000C3000000C0000000C300000086
:10511800CC000000D5000000D8000000D500000039
:10512800CC000000C1000000B9000000B900000078
:10513800BD000000C4000000C9000000C900000054
:10514800C6000000C3000000C3000000C700000044
:10515800CB000000CE000000CE000000CA00000016
:10516800C5000000C3000000C6000000CB0000001E
:10517800D0000000D1000000CD000000C6000000F3
:10518800C1000000C1000000C6000000CD00000002
:10519800D2000000D2000000CC000000C5000000D2
:1051A800C1000000C2000000C9000000D2000000D9
:1051B800D8000000D6000000CF000000C4000000A6
:1051C800BB000000B8000000BB000000C0000000E9
:1051D800C5000000C6000000C4000000C3000000B5
:1051E800C3000000C6000000CA000000CC00000098
:1051F800CC000000C8000000C4000000C20000008D
:10520800C5000000CA000000CE000000D000000069
:10521800CD000000C7000000C2000000C20000006E
:10522800C6000000CD000000D2000000D30000003E
:10523800CF000000C7000000C2000000C10000004D
:10524800C6000000CE000000D4000000D600000018
:10525800D1000000C9000000C1000000BC0000002F
:10526800BD000000C1000000C5000000C70000002C
:10527800C6000000C5000000C4000000C500000012
:10528800C8000000CB000000CB000000C9000000EF
:10529800C6000000C3000000C4000000C8000000F1
:1052A800CD000000CF000000CE000000C9000000C3
:1052B800C3000000C1000000C4000000CA000000D4
:1052C800D0000000D3000000D1000000CA00000098
:1052D800C3000000C1000000C4000000CC000000B2
:1052E800D3000000D6000000D4000000CC0000006D
:1052F800C3000000BD000000BC000000BE000000AC
:10530800C2000000C5000000C5000000C300000086
:10531800C3000000C4000000C7000000CB0000006C
:10532800CB000000C9000000C5000000C20000005A
:10533800C3000000C7000000CC000000CF00000040
:10534800CE000000C9000000C4000000C00000003A
:10535800C2000000C8000000CF000000D300000019
:10536800D1000000CB000000C4000000C000000015
:10537800C2000000C8000000D0000000D5000000F6
:10538800D4000000CE000000C7000000C1000000EB
:10539800BF000000C0000000C3000000C5000000FE
:1053A800C5000000C4000000C4000000C5000000E3
:1053B800C8000000CB000000CC000000CA000000BC
:1053C800C6000000C3000000C3000000C6000000C3
:1053D800CC000000D0000000D0000000CC0000008D
:1053E800C6000000C1000000C2000000C7000000A5
:1053F800CE000000D3000000D2000000CD00000065
:10540800C6000000C1000000C2000000C800000083
:10541800CF000000D4000000D4000000D00000003D
:10542800C9000000C4000000C1000000C200000064
:10543800C3000000C4000000C3000000C200000058
:10544800C1000000C3000000C6000000CA00000040
:10545800CC000000CA000000C6000000C200000026
:10546800C1000000C4000000CA000000CE00000017
:10547800CF000000CC000000C6000000C200000001
:10548800C1000000C5000000CC000000D1000000F1
:10549800D2000000CE000000C7000000C2000000DB
:1054A800C1000000C6000000CC000000D2000000CF
:1054B800D3000000D0000000CA000000C5000000B2
:1054C800C3000000C3000000C5000000C5000000C4
:1054D800C4000000C2000000C1000000C2000000BB
:1054E800C6000000CA000000CD000000CC0000008B
:1054F800C8000000C4000000C2000000C300000093
:10550800C8000000CD000000CF000000CD00000062
:10551800C8000000C4000000C2000000C400000071
:10552800CA000000D0000000D1000000CF00000039
:10553800CA000000C4000000C3000000C50000004D
:10554800CA000000D0000000D2000000D000000017
:10555800CC000000C7000000C4000000C400000028
:10556800C5000000C5000000C4000000C200000023
:10557800C0000000C1000000C5000000C900000014
:10558800CC000000CB000000C7000000C3000000F2
:10559800C1000000C2000000C7000000CC000000ED
:1055A800CF000000CD000000C9000000C4000000CA
:1055B800C1000000C4000000C9000000CE000000C7
:1055C800D1000000D0000000CB000000C6000000A1
:1055D800C3000000C4000000C8000000CD000000A7
:1055E800D0000000CF000000CC000000C90000007F
:1055F800C6000000C6000000C6000000C50000008C
:10560800C4000000C3000000C2000000C300000086
:10561800C6000000C9000000CC000000CB0000005C
:10562800C8000000C5000000C2000000C300000060
:10563800C6000000CB000000CE000000CE00000035
:10564800CA000000C6000000C2000000C30000003D
:10565800C7000000CC000000CF000000D000000010
:10566800CD000000C8000000C5000000C500000013
:10567800C7000000CC000000CF000000CF000000F1
:10568800CE000000CB000000C8000000C6000000EB
:10569800C6000000C6000000C5000000C3000000EE
:1056A800C2000000C2000000C5000000C8000000E1
:1056B800CA000000CB000000C9000000C6000000BE
:1056C800C3000000C2000000C5000000C9000000BF
:1056D800CD000000CE000000CB000000C700000095
:1056E800C4000000C3000000C5000000C90000009D
:1056F800CD000000CF000000CD000000C900000070
:10570800C5000000C4000000C6000000C900000079
:10571800CC000000CE000000CE000000CB0000004E
:10572800C9000000C7000000C6000000C600000055
:10573800C5000000C4000000C3000000C200000053
:10574800C3000000C6000000C9000000CB00000034
:10575800CA000000C7000000C4000000C300000029
:10576800C4000000C7000000CC000000CE0000000C
:10577800CD000000C9000000C5000000C300000003
:10578800C4000000C8000000CC000000CF000000EA
:10579800CE000000CA000000C7000000C5000000DD
:1057A800C6000000C9000000CD000000CF000000C6
:1057B800CF000000CD000000CA000000C8000000B3
:1057C800C7000000C7000000C6000000C5000000B8
:1057D800C3000000C1000000C2000000C4000000B7
:1057E800C8000000CA000000CA000000C80000008D
:1057F800C4000000C2000000C3000000C600000092
:10580800CA000000CD000000CD000000CA00000062
:10581800C6000000C3000000C3000000C60000006E
:10582800CA000000CD000000CE000000CC0000003F
:10583800C8000000C5000000C5000000C700000047
:10584800CB000000CE000000CF000000CE0000001A
:10585800CC000000C9000000C8000000C80000001B
:10586800C7000000C6000000C4000000C20000001D
:10587800C2000000C3000000C7000000CA0000000A
:10588800CB000000C9000000C6000000C3000000F3
:10589800C4000000C6000000CA000000CC000000E0
:1058A800CD000000CB000000C7000000C4000000CD
:1058B800C3000000C5000000C8000000CB000000C5
:1058C800CC000000CB000000C9000000C7000000A9
:1058D800C7000000C7000000CA000000CC0000009C
:1058E800CE000000CF000000CE000000CD00000078
:1058F800CB000000C9000000C8000000C60000007E
:10590800C4000000C3000000C3000000C300000082
:10591800C5000000C7000000C8000000C800000063
:10592800C7000000C6000000C5000000C600000057
:10593800C8000000CA000000CB000000CA00000038
:10594800C9000000C7000000C5000000C500000035
:10595800C6000000C8000000C9000000CA0000001E
:10596800C9000000C8000000C7000000C600000011
:10597800C7000000C9000000CB000000CD000000F7
:10598800CD000000CD000000CC000000CA000000DF
:10599800C9000000C7000000C5000000C3000000E7
:1059A800C3000000C3000000C5000000C6000000DE
:1059B800C8000000C8000000C8000000C7000000C0
:1059C800C6000000C6000000C7000000C9000000B3
:1059D800CB000000CB000000CA000000C800000097
:1059E800C6000000C6000000C6000000C800000095
:1059F800CA000000CA000000CA000000C900000078
:105A0800C8000000C7000000C8000000C90000006E
:105A1800CB000000CC000000CD000000CD0000004D
:105A2800CC000000CB000000CA000000C900000044
:105A3800C7000000C5000000C3000000C30000004C
:105A4800C4000000C6000000C7000000C800000035
:105A5800C8000000C7000000C5000000C500000025
:105A6800C6000000C8000000C9000000CA0000000D
:105A7800CA000000C8000000C6000000C600000000
:105A8800C6000000C8000000C9000000CA000000ED
:105A9800CA000000C9000000C7000000C6000000DE
:105AA800C7000000C8000000CA000000CB000000CA
:105AB800CC000000CB000000CB000000CB000000B1
:105AC800CA000000C9000000C8000000C6000000AD
