:020000040800F2
:100000000000022019280008C50D0008C70D0008CF
:10001000C90D0008CB0D0008CD0D00080000000040
:10002000000000000000000000000000CF0D0008EC
:10003000D10D000800000000D30D0008D50D000808
:10004000692800086928000869280008692800084C
:1000500069280008692800085D0700086928000869
:10006000692800086928000869280008692800082C
:10007000692800086928000869280008692800081C
:10008000DD0D0008692800086928000869280008B3
:1000900069280008692800086928000869280008FC
:1000A00069280008692800086928000869280008EC
:1000B00069280008692800086928000869280008DC
:1000C00069280008692800086928000869280008CC
:1000D00069280008692800086928000869280008BC
:1000E00069280008692800086928000869280008AC
:1000F000692800086928000869280008692800089C
:10010000692800086928000869280008692800088B
:10011000692800086928000869280008692800087B
:10012000692800086928000869280008692800086B
:10013000692800080000000000000000692800088D
:10014000692800086928000869280008692800084B
:10015000692800086928000869280008692800083B
:10016000692800086928000869280008692800082B
:1001700069280008692800086928000800000000B4
:1001800000000000692800080000000000000000D6
:10019000692800080000000000000000692800082D
:1001A00000000000000000000000000069280008B6
:1001B00069280008692800086928000869280008DB
:0401C00069280008A2
:1001C40010B5054C237833B9044B13B10448AFF38D
:1001D40000800123237010BD180C002000000000D3
:1001E400C428000808B5034B1BB103490348AFF307
:1001F400008008BD000000001C0C0020C42800087A
:1002040053B94AB9002908BF00281CBF4FF0FF3179
:100214004FF0FF3000F088B9ADF1080C6DE904CE61
:1002240000F006F8DDF804E0DDE9022304B07047CD
:100234002DE9F047089D8E4604468846002B4AD196
:100244008A42174662D9B2FA82F64EB1C6F1200349
:1002540001FA06F820FA03F3B74043EA0808B44069
:100264004FEA174E1FFA87FCB8FBFEF1230C0EFB76
:10027400118843EA084301FB0CF29A4209D9FB189E
:1002840001F1FF3080F0EA809A4240F2E7800239BF
:100294003B449A1AA3B2B2FBFEF00EFB102243EACF
:1002A400024300FB0CFC9C4509D9FB1800F1FF320A
:1002B40080F0D6809C4540F2D3803B44023840EA2B
:1002C4000140A3EB0C0300211DB1F3400022C5E95A
:1002D4000032BDE8F0878B4205D90DB1C5E90001B4
:1002E40000210846F5E7B3FA83F1002946D17345A6
:1002F40002D3824200F20581841A6EEB03020120CC
:100304009046002DE5D0C5E90048E2E7002A00F058
:100314009080B2FA82F6002E40F0A4808A1A030C70
:100324004FEA174E80B2BCB20121B2FBFEFC0EFBB9
:100334001C2243EA024304FB0CF29A4207D9FB183D
:100344000CF1FF3802D29A4200F2E080C4469B1AB4
:10035400B3FBFEF20EFB123340EA034302FB04F448
:100364009C4207D9FB1802F1FF3002D29C4200F2F2
:10037400CA8002461B1B42EA0C40A5E7C1F12006D5
:100384008B4022FA06F71F430EFA01F420FA06F313
:100394002EFA06FE4FEA1749234300FA01F81FFA22
:1003A40087FCBEFBF9F01C0C09FB10EE44EA0E447A
:1003B40000FB0CFEA64502FA01F209D93C1900F132
:1003C400FF3A80F09C80A64540F2998002383C4474
:1003D400A4EB0E041FFA83FEB4FBF9F309FB1344E8
:1003E4004EEA044403FB0CFCA44508D93C1903F170
:1003F400FF3E80F08280A4457FD9023B3C4443EA1F
:100404000040A4EB0C04A0FB02EC64457346E146F7
:1004140062D35FD05DB1B8EB030264EB090404FA64
:1004240006F622FA01F31E43CC40C5E9006400211C
:100434004FE7B1FBF2FC010C41EA0E4180B240EA05
:1004440001423B4638463C46B846BE462026B1FBF0
:10045400F7F1A2EB080241EA0C4166E7014618E70E
:1004640010462CE7C6F120022EFA02F3B740B14041
:1004740020FA02F24FEA174E0A43B3FBFEF8BCB26D
:100484000EFB1833110C41EA034108FB04F9B04098
:1004940089454FEA104380B23ED9791808F1FF3CF0
:1004A40001D289451FD8A1EB0901B1FBFEF909FB73
:1004B40004F80EFB191192B242EA0142424529D2D4
:1004C400BA1809F1FF31C4D24245C2D2A9F10201DE
:1004D4003A44BEE7F0459DD2BEEB02036CEB070C39
:1004E4000138E14696E7A7EB09094944A8F1020C53
:1004F400B1FBFEF909FB04F8DBE773467FE75046DE
:1005040066E70846FDE63B44023A33E7ACF1020CE9
:100514003B441CE749469CE7A1EB0901C446B1FBF7
:10052400FEF909FB04F8C4E7704700BF2DE9F04F5A
:1005340089B00024039404940594069407940094C9
:100544002F4B1A6B42F080021A631A6B02F080027E
:100554000092009A01941A6B42F001021A631A6B1A
:1005640002F001020192019A02941A6B42F0020213
:100574001A631B6B03F002030293029B4FF4404B7C
:10058400CDF80CB001260496DFF87CA003A95046F0
:1005940001F012FD4FF44079CDF80C90DFF86C8037
:1005A40003A9404601F008FD4FF410470397154D89
:1005B40003A9284601F000FD22465946504601F0A1
:1005C400EBFD22464946404601F0E6FD2246394607
:1005D400284601F0E1FD03964FF488130493059631
:1005E40003A9284601F0E8FC22460221062002F075
:1005F4008DF8062002F09AF809B0BDE8F08F00BF2C
:10060400003802400000024000080240000402409A
:1006140000B583B000210191094B1A6B42F400121A
:100624001A631B6B03F400130193019B0A46102009
:1006340002F06CF8102002F079F803B05DF804FBC6
:100644000038024072B6FEE700B58FB000230A936B
:100654000B930C930D9308930993019302930393C3
:10066400049305930693079336484FF08042026043
:1006740043608360344A1268013AC2600361836153
:1006840000F078FD002850D14FF480530A930AA952
:100694002C4800F0D5FE002849D12A4800F096FDE8
:1006A400002846D100230893099308A9254801F09E
:1006B400D7F800283FD100220192029203920592BA
:1006C40001A9204800F012FE002836D1002300932F
:1006D4001E4A116B41F400111163126B02F40012F3
:1006E4000092009A1A481B4A02604FF0C0624260AE
:1006F40040228260C3604FF4806202614FF48052F2
:1007040042614FF4804282614FF48072C2614FF4BF
:1007140000320262436201F0D1FD80B9094A0C4BF8
:1007240053629A630FB05DF804FBFFF78BFFFFF78A
:1007340089FFFFF787FFFFF785FFFFF783FFFFF7C9
:1007440081FF00BFE80C00200400002000380240B4
:10075400400C00208860024010B502F04BF85C4B5E
:100764001B68C31AC82B03D8012001F01DFD10BD5E
:10077400574B1860574B1A68D36823F40073D3603F
:10078400554801F036FE554B1B68052B19D8DFE898
:1007940003F00332485E748A012000F051FA504895
:1007A40000F042FA4F4B504A1A60504B4FF480729B
:1007B4001A604A4A1368013313604D4B40F27122A8
:1007C4001A60444C0021204600F0C8FEFFF73CFFAD
:1007D4000021204600F008FF444B1B68454A12687C
:1007E400404909683C4801F0CFFD2268D36843F4CE
:1007F4000073D360B8E7012000F022FA3E4800F00D
:1008040013FA384B3D4A1A60384B4FF480721A6021
:10081400324A136801331360354B40F271221A6077
:10082400CFE7012000F00CFA354800F0FDF92D4B1C
:10083400344A1A602D4B4FF480721A60274A1368A9
:10084400013313602A4B40F271221A60B9E7012088
:1008540000F0F6F92C4800F0E7F9224B2B4A1A6015
:10086400224B45F6C7721A601C4A136801331360A1
:100874001F4B41F206021A60A3E7012000F0E0F9E1
:10088400234800F0D1F9174B224A1A60174B43F260
:10089400BA521A60114A136801331360144B41F2BF
:1008A40006021A608DE7012000F0CAF91A4800F028
:1008B400BBF90C4B194A1A600C4B43F693121A609D
:1008C400064B00221A600A4B41F206021A6078E7CE
:1008D400340C0020E80C0020400C00203C0C0020CC
:1008E400DC280008380C002008080020080C002030
:1008F4000400002000000020E42800080804002070
:10090400E828000808000020F4280008142900083A
:10091400FC28000830A8010804290008187F0208F0
:1009240000B58FB000230A930B930C930D93089397
:1009340009930193029303930493059306930793F6
:100944001E481F4A02604360836040F6FF72C26023
:100954000361836100F00EFC28BB4FF480530A93BB
:100964000AA9164800F06CFDF8B9144800F05AFCC6
:10097400E8B900230893099308A9104800F070FF10
:10098400B8B96023019300230293039305930822CB
:1009940001A90A4800F0D9FC68B9084800F08CFAAB
:1009A4000FB05DF804FBFFF74DFEFFF74BFEFFF7BA
:1009B40049FEFFF747FEFFF745FE00BFA00C0020ED
:1009C4000004004000B595B03422002107A801F0CE
:1009D4004AFF002302930393049305930693009321
:1009E400194A116C41F080511164126C02F080526A
:1009F4000092009A019315490A6822F4404242F495
:100A040080420A600A6802F440420192019A02227A
:100A1400079201220A9210220B920D9307A801F06B
:100A2400A9F868B90F230293002103910491059159
:100A3400069102A800F05AFF20B915B05DF804FB36
:100A4400FFF700FEFFF7FEFD003802400070004093
:100A540008B501F0A9FEFFF7B5FFFFF767FDFFF743
:100A6400D7FDFFF7F1FDFFF75BFF00F071F90821F7
:100A74000F4800F073FE0F4C0021204600F0B4FD37
:100A84000D4D284601F0B5FC0C4B1B680C4A12684E
:100A94000C49284601F078FC012000F0D1F80A48FE
:100AA40000F0C2F82268D36843F40073D360FEE711
:100AB400A00C0020E80C0020400C0020080C0020B2
:100AC40000000020080800200C29000882B000EB78
:100AD40040000023019304E000BF00BF019B0133E9
:100AE4000193019B8342F7D302B0704710B51420E1
:100AF400FFF7ECFF094CA36943F40043A3611420FE
:100B0400FFF7E4FFA36943F00043A3611420FFF758
:100B1400DDFFA36943F40043A36110BD0008024054
:100B240010B504463D4A936943F48043936110F041
:100B3400800F41D13A4A936943F00043936114F022
:100B4400400F40D0364A936943F48053936114F0C4
:100B5400200F3ED0334A936943F40073936114F039
:100B6400100F3CD02F4A936943F480739361FFF7CD
:100B7400BDFF14F0080F38D0294A936943F40043A9
:100B8400936114F0040F36D0254A936943F48053DB
:100B9400936114F0020F34D0224A936943F4007332
:100BA400936114F0010F32D01E4A936943F48073A9
:100BB4009361FFF79BFF10BDA2F50062936943F4B4
:100BC40000439361BBE7164A936943F080539361F2
:100BD400BDE7144A936943F000739361BFE7114A78
:100BE400936943F080739361C1E70D4A936943F0BD
:100BF40000439361C5E70A4A936943F080539361C4
:100C0400C7E7084A936943F000739361C9E7054A4B
:100C1400936943F080739361CBE700BF00080240FF
:100C2400000002400004024038B50546002403E0F9
:100C3400FFF776FF0134E4B2285D0028F8D138BD0F
:100C440010B504463F4A936943F08043936110F022
:100C5400800F45D13C4A936943F00043936114F0FB
:100C6400400F44D0384A936943F48053936114F09D
:100C7400200F42D0354A936943F40073936114F012
:100C8400100F40D0314A936943F480739361FFF7A6
:100C94002DFF14F0080F3CD02B4A936943F4004312
:100CA400936114F0040F3AD0274A936943F48053B4
:100CB400936114F0020F38D0244A936943F400730B
:100CC400936114F0010F36D0204A936943F4807382
:100CD4009361FFF70BFF40F6B830FFF7F7FE10BD46
:100CE400A2F50062936943F400439361B7E7164A9F
:100CF400936943F080539361B9E7144A936943F0CD
:100D040000739361BBE7114A936943F08073936165
:100D1400BDE70D4A936943F000439361C1E70A4A72
:100D2400936943F080539361C3E7084A936943F09E
:100D340000739361C5E7054A936943F08073936137
:100D4400C7E700BF00080240000002400004024060
:100D540008B5194B1A6B42F001021A631A6B42F080
:100D640002021A631A6B42F004021A63134A1368EC
:100D740043F08243136002F58062136843F4A023B6
:100D8400136002F58062136843F0A043136047F2D6
:100D94003050FFF79BFE3320FFF752FF3220FFF75E
:100DA4004FFF0C20FFF74CFF2820FFF749FF0120DD
:100DB400FFF746FF08BD00BF0038024000000240B4
:100DC400FEE7FEE7FEE7FEE7FEE770477047704781
:100DD40008B501F003FD08BD08B5024801F054FB55
:100DE40008BD00BF400C002082B0002100910B4BD5
:100DF4005A6C42F480425A645A6C02F48042009263
:100E0400009A01911A6C42F080521A641B6C03F030
:100E140080530193019B02B0704700BF0038024029
:100E240010B582B00368B3F1804F04D01E4A9342D8
:100E34002CD002B010BD0446002300931B4A116C51
:100E440041F001011164126C02F001020092009A57
:100E54001748184A02604FF0C06242608360C36062
:100E64004FF4806202614FF4805242614FF4804239
:100E74008261C3610362436201F020FA18B90C4B2A
:100E840063629C63D5E7FFF7DDFBF8E7002301937A
:100E9400064B1A6C42F002021A641B6C03F0020344
:100EA4000193019BC5E700BF0004004000380240E5
:100EB400400C00208860024000B587B000230193F5
:100EC400029303930493059302680E4B9A4202D053
:100ED40007B05DF804FB002300930B4B1A6B42F040
:100EE40002021A631B6B03F002030093009B0123AD
:100EF400019302230293059301A9044801F05CF8CD
:100F0400E6E700BF0004004000380240000402404D
:100F140030B4036A026A22F0010202624268846900
:100F240024F0730C0C6844EA0C0423F0020C8B6864
:100F340043EA0C03114DA84203D005F58065A8428D
:100F440005D123F00803CD682B4323F004030B4D94
:100F5400A84203D005F58065A84207D122F4407267
:100F64004D6945EA020C8A6942EA0C0242608461D6
:100F74004A684263036230BC704700BF000001400E
:100F840030B4036A026A22F4807202624268C4695D
:100F940024F0730C0C6844EA0C0523F400738C6889
:100FA40043EA0423114CA04203D004F58064A04218
:100FB40006D123F40063CC6843EA042323F480635A
:100FC4000A4CA04203D004F58064A04207D122F465
:100FD40040524C6942EA04128C6942EA04124260AB
:100FE400C5614A68C263036230BC704700000140B7
:100FF40030B4036A026A22F4805202624468C2690D
:1010040022F4E6420D6842EA052223F400538D6877
:1010140043EA0533094DA84203D005F58065A8428B
:1010240004D124F480444D6944EA85144460C261C7
:101034004A680264036230BC704700BF000001408C
:1010440010B4036A046A24F001040462846924F07D
:10105400F00C4CEA021223F00A030B438261036290
:101064005DF8044B704710B4036A046A24F010045A
:101074000462846924F4704C4CEA023223F0A00325
:1010840043EA0113826103625DF8044B704783688D
:1010940023F070030B4343F00703836070477047EA
:1010A400704700000368324A904212D0B0F1804F7A
:1010B4000FD0A2F57C4290420BD002F580629042A0
:1010C40007D002F58062904203D002F57842904244
:1010D40003D123F070034A681343254A90422AD06F
:1010E400B0F1804F27D0A2F57C42904223D002F584
:1010F400806290421FD002F5806290421BD002F5BC
:101104007842904217D002F57052904213D002F503
:10111400806290420FD002F5806290420BD0A2F51B
:101124009832904207D002F58062904203D002F5D3
:101134008062904203D123F44073CA68134323F0BE
:1011440080034A6913438A68C2620A688262084A51
:10115400904203D002F58062904201D10A69026391
:10116400026842F004020260012242610360704797
:101174000000014040B310B5044690F83D30F3B18F
:10118400022384F83D30214651F8040BFFF78AFF0F
:10119400012384F8463084F83E3084F83F3084F8E4
:1011A400403084F8413084F8423084F8433084F885
:1011B400443084F8453084F83D30002010BD80F878
:1011C4003C30FFF72DFEDBE70120704740B310B53C
:1011D400044690F83D30F3B1022384F83D302146B3
:1011E40051F8040BFFF75EFF012384F8463084F8BE
:1011F4003E3084F83F3084F8403084F8413084F83D
:10120400423084F8433084F8443084F8453084F81C
:101214003D30002010BD80F83C30FFF740FFDBE795
:101224000120704740B310B5044690F83D30F3B147
:10123400022384F83D30214651F8040BFFF732FFB6
:10124400012384F8463084F83E3084F83F3084F833
:10125400403084F8413084F8423084F8433084F8D4
:10126400443084F8453084F83D30002010BD80F8C7
:101274003C30FFF715FFDBE70120704730B4036A09
:10128400026A22F0100202624468826922F4E64291
:101294000D6842EA052223F020038D6843EA051312
:1012A400114DA84203D005F58065A84206D123F06C
:1012B4008003CD6843EA051323F040030A4DA84296
:1012C40003D005F58065A84207D124F440644D6934
:1012D40044EA85048D6944EA8504446082614A686D
:1012E4008263036230BC70470000014090F83C30D8
:1012F400012B28D010B50446012380F83C300C2A79
:101304001CD8DFE802F0071B1B1B0C1B1B1B111B4B
:101314001B1B16000068FFF7FBFD00200FE00068B0
:10132400FFF7ACFF00200AE00068FFF729FE002069
:1013340005E00068FFF75CFE002000E001200023C8
:1013440084F83C3010BD0220704738B590F83C302A
:10135400012B66D004460D46012380F83C300C2A4C
:101364005AD8DFE802F0075959591B5959593059CD
:10137400595944000068FFF7CBFD2268936943F094
:10138400080393612268936923F00403936122683C
:10139400936929690B43936100203EE00068FFF7DD
:1013A4006DFF2268936943F4006393612268936933
:1013B40023F48063936122689369296943EA0123D2
:1013C4009361002029E00068FFF7DAFD2268D36901
:1013D40043F00803D3612268D36923F00403D36183
:1013E4002268D36929690B43D361002015E00068A2
:1013F400FFF7FEFD2268D36943F40063D3612268DA
:10140400D36923F48063D3612268D369296943EAE9
:101414000123D361002000E00120002384F83C3044
:1014240038BD0220FCE710B4846824F47F4C42EAFF
:1014340003220A4342EA0C0282605DF8044B7047BF
:1014440090F83C30012B78D010B50446012380F885
:101454003C30022380F83D300268936823F47F43D4
:1014640023F0770393600B68602B4CD023D8402B78
:1014740054D011D8202B03D00AD80BB1102B05D18E
:1014840019462068FFF703FE002028E0012026E02B
:10149400302BF5D0012022E0502B0AD1CA684968CC
:1014A4000068FFF7CDFD50212068FFF7F0FD002014
:1014B40015E0012013E0B3F5805F3AD0B3F5005F87
:1014C40014D0702B37D1CB684A6889680068FFF75D
:1014D400AAFF2268936843F07703936000200123F6
:1014E40084F83D30002384F83C3010BDCB684A6852
:1014F40089680068FFF797FF2268936843F4804384
:1015040093600020EBE7CA6849680068FFF7ABFD09
:1015140060212068FFF7BBFD0020E0E7CA68496846
:101524000068FFF78DFD40212068FFF7B0FD002023
:10153400D5E70020D3E70120D1E70220704701F06E
:101544001F014FF0010C0CFA01FC036A23EA0C039F
:101554000362036A8A4013430362704738B5044642
:101564000D4600220068FFF7EAFF23681D4A9342F4
:1015740018D002F58062934214D02368196A41F2AC
:101584001112114208D1196A40F24442114203D1A6
:101594001A6822F001021A609DB9012384F83E30D2
:1015A400002038BD196A41F211121142E5D1196ABD
:1015B40040F244421142E0D15A6C22F400425A648F
:1015C400DBE7042D05D0082D07D0012384F8413032
:1015D400E6E7012384F83F30E2E7012384F8403052
:1015E400DEE700BF0000014010B5044608460029AC
:1015F40048D194F83E30DBB2013B18BF0123002BE5
:1016040040F0A380002856D1022384F83E3022689B
:10161400D36843F00203D360012201462068FFF738
:101624008EFF23684C4A934203D002F580629342B2
:1016340003D15A6C42F400425A642368464A9342E6
:1016440078D0B3F1804F75D0A2F57C42934271D02B
:1016540002F5806293426DD002F58062934269D0B4
:1016640002F57842934265D002F57052934261D0FC
:10167400A2F5943293425DD01A6842F001021A60D6
:10168400002061E0042908D008290DD094F84130E5
:10169400DBB2013B18BF0123B1E794F83F30DBB262
:1016A400013B18BF0123AAE794F84030DBB2013BA9
:1016B40018BF0123A3E7042824D008282BD0022331
:1016C40084F841300C2842D801A353F820F000BF1D
:1016D400131600085317000853170008531700087F
:1016E4000F17000853170008531700085317000872
:1016F4002117000853170008531700085317000850
:101704002D170008022384F83F302268D36843F081
:101714000403D36080E7022384F840302268D3684E
:1017240043F00803D36077E72268D36843F01003DB
:10173400D36071E79A6802F00702062A09D01A6892
:1017440042F001021A60002010BD0120FCE70120D4
:10175400FAE70020F8E700BF0000014010B5044696
:101764000846002942D194F83E30DBB2013B18BF51
:101774000123002B6ED1002851D1022384F83E307E
:10178400012201462068FFF7DAFE2368334A9342B8
:1017940003D002F58062934203D15A6C42F40042B2
:1017A4005A6423682D4A934249D0B3F1804F46D0FE
:1017B400A2F57C42934242D002F5806293423ED02D
:1017C40002F5806293423AD002F57842934236D0D1
:1017D40002F57052934232D0A2F5943293422ED045
:1017E4001A6842F001021A60002032E0042908D08D
:1017F40008290DD094F84130DBB2013B18BF012316
:10180400B7E794F83F30DBB2013B18BF0123B0E7E0
:1018140094F84030DBB2013B18BF0123A9E7042848
:1018240005D0082807D0022384F84130A8E7022312
:1018340084F83F30A4E7022384F84030A0E79A6894
:1018440002F00702062A07D01A6842F001021A6061
:10185400002010BD0120FCE70020FAE70000014051
:1018640090F83C20012A3DD010B40346012280F8B0
:101874003C20022280F83D2002685068946820F0E1
:10188400700C086840EA0C0050601A6816488242DE
:101894001AD0B2F1804F17D0A0F57C40824213D009
:1018A40000F5806082420FD000F5806082420BD048
:1018B40000F57840824207D000F57050824203D090
:1018C400A0F59430824204D124F080044968214375
:1018D4009160012283F83D20002083F83C005DF8EC
:1018E400044B70470220704700000140002800F0BC
:1018F4009B8070B50D4604464F4B1B6803F00F03E5
:101904008B4208D2CBB24C4A1370136803F00F0316
:101914008B4240F08B80236813F0020F17D013F032
:10192400040F04D0454A936843F4E053936023685A
:1019340013F0080F04D0414A936843F46043936062
:101944003E4A936823F0F003A1680B439360236835
:1019540013F0010F32D06368012B21D09A1E012AA3
:1019640025D9364A126812F0020F61D033498A68C9
:1019740022F0030213438B6000F03CFF06462F4B1A
:101984009B6803F00C036268B3EB820F16D000F07F
:1019940031FF801B41F288339842F0D9032042E0A2
:1019A400264A126812F4003FE0D101203BE0234AAA
:1019B400126812F0007FD9D1012034E01E4B1B685D
:1019C40003F00F03AB4207D9EAB21B4B1A701B6832
:1019D40003F00F03AB422DD1236813F0040F06D09C
:1019E400164A936823F4E053E1680B439360236839
:1019F40013F0080F07D0114A936823F46043216958
:101A040043EAC103936000F021F80C4B9B68C3F3D5
:101A140003130B4AD35CD8400A4B18600A4B18686E
:101A240000F09CFE002070BD012070470120FAE701
:101A34000120F8E70120F6E7003C024000380240AC
:101A44006C650308140C0020100C002008B5464BEC
:101A54009B6803F00C03082B05D00C2B43D0042BFC
:101A64007FD1424819E0404B5A6802F03F025B685C
:101A740013F4800F12D03C4B5968C1F388113B48D2
:101A84000023A1FB0001FEF7BBFB374B5B68C3F3EC
:101A9400014301335B00B0FBF3F008BD324B5868DF
:101AA400C0F388104FEA401CBCEB000C6EEB0E0E2A
:101AB4004FEA8E1343EA9C634FEA8C11B1EB0C019D
:101AC40063EB0E03DB0043EA5173C90011EB000C16
:101AD40043F10003990200234FEA8C2041EA9C5110
:101AE400FEF78EFBD1E7204B5A6802F03F025B6899
:101AF40013F4800F10D01C4B5968C1F388111B4894
:101B04000023A1FB0001FEF77BFB174B5B68C3F3CB
:101B14000273B0FBF3F0C0E7134B5868C0F38810AE
:101B24004FEA401CBCEB000C6EEB0E0E4FEA8E131A
:101B340043EA9C634FEA8C11B1EB0C0163EB0E0397
:101B4400DB0043EA5173C90011EB000C43F10003BD
:101B5400990200234FEA8C2041EA9C51FEF750FB86
:101B6400D3E7034899E700BF0038024040787D017D
:101B74000024F400002800F0018270B582B004460D
:101B8400036813F0010F41D0994B9B6803F00C03D9
:101B9400042B32D0964B9B6803F00C03082B27D000
:101BA400934B9B6803F00C030C2B59D06368B3F57B
:101BB400803F5BD0B3F5A02F5ED08D4B1A6822F422
:101BC40080321A601A6822F480221A606368002B3B
:101BD4005CD000F00FFE0546854B1B6813F4003FF4
:101BE40014D100F007FE401B6428F5D90320CCE192
:101BF4007F4B5B6813F4800FD2D07D4B1B6813F4CA
:101C0400003F03D06368002B00F0BA81236813F00F
:101C1400020F60D0764B9B6813F00C0F4AD0744BC4
:101C24009B6803F00C03082B3FD0714B9B6803F0B7
:101C34000C030C2B69D0E368002B75D06D4B01228B
:101C44001A6000F0D7FD0546694B1B6813F0020FBC
:101C540061D100F0CFFD401B0228F5D9032094E1A7
:101C6400634B5B6813F4800FA0D0C6E7604A136827
:101C740043F480331360A9E75D4B1A6842F4802271
:101C84001A601A6842F480321A609FE700F0B2FDCD
:101C94000546574B1B6813F4003FB7D000F0AAFD6C
:101CA400401B6428F5D903206FE1514B5B6813F4A2
:101CB400800FBAD14E4B1B6813F0020F03D0E368B8
:101CC400012B40F05F814A4A136823F0F80321692D
:101CD40043EAC1031360236813F0080F49D0636912
:101CE400002B33D0434B0122C3F8802E00F082FD39
:101CF40005463F4B5B6F13F0020F3AD100F07AFDBB
:101D0400401B0228F5D903203FE1394B5B6813F4EB
:101D1400800F90D1CEE7364A136823F0F803216987
:101D240043EAC1031360D6E7324B00221A6000F085
:101D340061FD05462E4B1B6813F0020FCBD000F05B
:101D440059FD401B0228F5D903201EE1294B00222E
:101D5400C3F8802E00F04EFD0546254B5B6F13F053
:101D6400020F06D000F046FD401B0228F5D90320DF
:101D74000BE1236813F0040F76D01D4B1B6C13F09A
:101D8400805F33D100230193194B1A6C42F08052C7
:101D94001A641B6C03F080530193019B0125164BBD
:101DA4001B6813F4807F29D0A368012B3AD0052B3C
:101DB4003ED00F4B1A6F22F001021A671A6F22F0FD
:101DC40004021A67A368002B3CD000F013FD0646FA
:101DD400074B1B6F13F0020F45D100F00BFD801B66
:101DE40041F288339842F3D90320CEE00025D6E7A8
:101DF4000038024000004742007000406B4A1368FC
:101E040043F48073136000F0F5FC0646674B1B68CF
:101E140013F4807FC8D100F0EDFC801B0228F5D9B3
:101E24000320B2E0624A136F43F001031367C9E76A
:101E34005F4B1A6F42F004021A671A6F42F00102F4
:101E44001A67BFE700F0D6FC0646594B1B6F13F028
:101E5400020F08D000F0CEFC801B41F28833984278
:101E6400F3D9032091E0EDB9A369002B00F08C8035
:101E74004F4A926802F00C02082A54D0022B17D061
:101E84004C4B00221A6600F0B5FC0446484B1B6814
:101E940013F0007F45D000F0ADFC001B0228F5D9FB
:101EA400032072E0424A136C23F080531364DBE78F
:101EB400404B00221A6600F09DFC05463C4B1B6813
:101EC40013F0007F06D000F095FC401B0228F5D9E2
:101ED40003205AE0E369226A1343626A43EA8213E5
:101EE400A26A5208013A43EA0243E26A43EA0263FD
:101EF400226B43EA02732E4A53602E4B01221A6668
:101F040000F078FC04462A4B1B6813F0007F06D1CE
:101F140000F070FC001B0228F5D9032035E00020F6
:101F240033E0002031E0012B31D0214B5B6803F416
:101F34008001E26991422CD103F03F02216A8A4276
:101F440029D1616A47F6C0721A40B2EB811F24D1CD
:101F540003F44031A26A5208013AB1EB024F1ED198
:101F640003F07062E16AB2EB016F1AD103F0E0434F
:101F7400226BB3EB027F16D1002006E001207047EC
:101F8400012002E0012000E0002002B070BD012029
:101F9400FBE70120F9E70120F7E70120F5E701203D
:101FA400F3E70120F1E70120EFE700BF00700040F4
:101FB400003802400000474200230F2B00F2E38068
:101FC40070B582B065E085684FEA430E032404FAD5
:101FD4000EF425EA0405CC6804FA0EF42C4384605C
:101FE400446824EA02044A68C2F300129A40224375
:101FF40042605CE0DC08083450F8242003F0070554
:10200400AD004FF00F0E0EFA05FE22EA0E0E0A691D
:10201400AA4042EA0E0240F824205CE0062200E0D6
:10202400002202FA0EF22A430234574D45F82420C6
:10203400564A94686FEA0C0224EA0C054E6816F4BA
:10204400801F01D04CEA0405504CA560E46802EA04
:1020540004054E6816F4001F01D04CEA04054B4CED
:10206400E560646802EA04054E6816F4003F01D096
:102074004CEA0405454C6560246822404D6815F41B
:10208400803F01D04CEA0402404C226001330F2B04
:1020940077D801229A400C6804EA020C32EA04045C
:1020A400F4D14C6804F00304013C012C8BD94A6838
:1020B40002F00302032A09D0C4685D000322AA4087
:1020C40024EA02048A68AA402243C2604A6802F0F1
:1020D4000302022A8ED004684FEA430E032202FA56
:1020E4000EF224EA02044A6802F0030202FA0EF233
:1020F400224302604A6812F4403FC7D00022019292
:10210400234A546C44F480445464526C02F4804274
:102114000192019A9C08A51C1B4A52F8255003F011
:10212400030E4FEA8E0E0F2202FA0EF225EA020582
:10213400184A90423FF474AF02F58062904216D080
:1021440002F58062904214D002F58062904212D06F
:1021540002F58062904210D002F5806290420ED067
:1021640002F5806290423FF459AF072259E70122F9
:1021740057E7022255E7032253E7042251E70522D9
:102184004FE702B070BD704700380140003C014089
:1021940000380240000002400AB18161704709041E
:1021A400816170477047000008B5054B5B690342C5
:1021B40000D108BD024B5861FFF7F4FFF9E700BFF7
:1021C400003C014030B405682C6824F480242C6061
:1021D400046863608368402B05D0036899600368D2
:1021E400DA6030BC704703689A600368D960F8E726
:1021F40010B40368D9B210390A4AA2FB0142120989
:10220400094CA25CC2655F2907D96FF30903043343
:102214008365806D5DF8044B70476FF30903836534
:10222400F7E700BFABAAAAAA64650308836A8269B8
:1022340092B9012B0AD0022B02D00BB100207047B7
:10224400C36A13F0807F28D100207047C36AB3F1BA
:10225400C07F24D000207047B2F5005F09D0022B64
:1022640025D9032B25D1C36A13F0807F23D1002005
:102274007047032B03D8DFE803F01404140A00208A
:102284007047C36A13F0807F0DD100207047C36A82
:10229400B3F1C07F09D000207047012070470120AE
:1022A40070470120704701207047012070470120CA
:1022B40070470020704701207047000070B5044645
:1022C40000F098FA002C5BD00546022384F83530E0
:1022D400002384F834302268136823F00103136068
:1022E40023681A6812F0010F0AD000F083FA431B26
:1022F400052BF5D920236365032084F8350070BDD0
:102304001A68204911406268A0680243E0680243E9
:102314002069024360690243A0690243E069024301
:10232400206A02430A43616A04291ED01A6026689F
:10233400756925F00705636A1D43042B07D1A36A59
:102344001D43E36A1BB12046FFF770FF90B9756126
:102354002046FFF74DFFE26D3F239340836000204A
:102364006065012384F83530C9E7E16A206B0143D5
:102374000A43DBE740236365012084F83500BEE7A8
:102384000120BCE73F8010F038B50446856D90F815
:10239400340001282BD0012084F8340094F835004F
:1023A400C0B2012804D0002384F83430022038BDA0
:1023B400022084F83500002060652046FFF702FF04
:1023C400E26D3F239340AB602268136843F0160329
:1023D4001360236C23B12268136843F0080313606D
:1023E4002268136843F0010313600020DFE7022032
:1023F400DDE770B50446866D00F0FCF994F83530DD
:10240400DBB2022B06D080236365002384F83430CA
:10241400012070BD05462268136823F0160313607B
:102424002268536923F080035361236CE3B122686B
:10243400136823F0080313602268136823F0010370
:10244400136023681B6813F0010F11D000F0D2F958
:10245400431B052BF5D920236365032084F835003D
:10246400002384F83430D4E7A36C002BDFD1E3E7F6
:10247400E26D3F239340B360012384F8353000209C
:1024840084F83400C5E70000F0B583B004460023A7
:102494000193724B1D68724BA3FB0535AD0A876D22
:1024A4003E68C26D08239340334210D003681A6813
:1024B40012F0040F0BD01A6822F004021A60C26DE5
:1024C40008239340BB60436D43F001034365E26D11
:1024D40001239340334209D02268526912F0800FDD
:1024E40004D0BB60636D43F002036365E26D0423B3
:1024F4009340334209D02268126812F0020F04D0CC
:10250400BB60636D43F004036365E26D1023934085
:10251400334224D02268126812F0080F1FD0BB6027
:1025240023681A6812F4802F0DD01B6813F4002F4F
:1025340004D1236C9BB12046984710E0A36C73B17F
:10254400204698470BE01A6812F4807F03D11A687A
:1025540022F008021A60236C0BB120469847E26D02
:1025640020239340334255D02268126812F0100F92
:1025740050D0BB6094F83530DBB2052B0ED0236805
:102584001A6812F4802F33D01B6813F4002F2AD159
:10259400636C002B3ED0204698473BE022681368CA
:1025A40023F0160313602268536923F080035361F8
:1025B400236CA3B12268136823F008031360E26D4F
:1025C4003F239340BB60012384F83530002384F813
:1025D4003430236D002B3FD0204698473CE0A36C59
:1025E400002BE7D1EBE7E36BA3B12046984711E05A
:1025F4001A6812F4807F09D11A6822F010021A6056
:10260400012384F83530002384F83430E36B0BB1B4
:1026140020469847636DFBB1636D13F0010F17D02B
:10262400052384F835302268136823F0010313600E
:10263400019B01330193AB4204D823681B6813F058
:10264400010FF5D1012384F83530002384F83430A8
:10265400E36C0BB12046984703B0F0BD140C002086
:10266400B5814E1B002807DB00F01F02400901233F
:102674009340024A42F82030704700BF00E100E076
:10268400002808DB0901C9B200F1604000F561408F
:1026940080F80013704700F00F000901C9B2014B24
:1026A4001954704714ED00E000B500F00700C0F1C4
:1026B400070CBCF1040F28BF4FF0040C031D062BBC
:1026C4000FD9C31E4FF0FF3E0EFA0CF021EA0001B1
:1026D40099400EFA03FE22EA0E0241EA02005DF876
:1026E40004FB0023EEE70000074AD36823F4E06309
:1026F4001B041B0C000200F4E060034343F0BF63BF
:1027040043F40033D360704700ED00E010B5044695
:10271400054BD868C0F30220FFF7C6FF01462046E8
:10272400FFF7AEFF10BD00BF00ED00E008B5FFF7F6
:1027340099FF08BD0138B0F1807F0BD24FF0E02340
:102744005861054AF02182F823100020986107227D
:102754001A6170470120704700ED00E010B504468F
:102764000E4B1A784FF47A73B3FBF2F30C4A1068E9
:10277400B0FBF3F0FFF7DEFF68B90F2C01D901209D
:102784000AE0002221464FF0FF30FFF7BFFF054B60
:102794001C60002000E0012010BD00BF0C0C0020D4
:1027A400140C0020100C002008B50B4B1A6842F4DE
:1027B40000721A601A6842F480621A601A6842F45D
:1027C40080721A600320FFF78FFF0F20FFF7C6FF08
:1027D400FEF70AFB002008BD003C0240034A1168D2
:1027E400034B1B780B441360704700BF300D00206F
:1027F4000C0C0020014B1868704700BF300D0020FE
:10280400034AD2F8883043F47003C2F88830704722
:1028140000ED00E0DFF834D0FFF7F2FF0C480D497B
:102824000D4A002302E0D458C4500433C4188C4227
:10283400F9D30A4A0A4C002301E013600432A2428D
:10284400FBD300F019F8FEF703F9704700000220EB
:1028540000000020180C00208C650308180C0020D0
:10286400340D0020FEE702440346934200D1704732
:1028740003F8011BF9E7000070B50D4D0D4C641B06
:10288400A4100026A64209D10B4D0C4C00F018F8F8
:10289400641BA4100026A64205D170BD55F8043B64
:1028A40098470136EEE755F8043B98470136F2E7BE
:1028B4008465030884650308846503088865030840
:1028C400F8B500BFF8BC08BC9E467047F8B500BF19
:0828D400F8BC08BC9E467047E9
:1028DC0053696E65000000005361770054726961A2
:1028EC006E676C65000000005069616E6F0000003F
:1028FC0047756974617200004472756D00000000C8
:10290C00526561647900000000080000FF070000B8
:10291C0000080000FF07000000080000FF0700008F
:10292C0000080000FF07000000080000FF0700007F
:10293C0000080000FF07000000080000000800006D
:10294C00FF07000000080000FF070000000800005F
:10295C00FF070000FF070000FF070000FF07000053
:10296C00FF070000FF070000FF070000FF07000043
:10297C00FF070000FF070000FF070000FF07000033
:10298C0000080000FF07000000080000000800001D
:10299C00000800000008000000080000FF0700000D
:1029AC0000080000FF070000FF07000000080000FF
:1029BC000008000000080000FE070000FF070000F0
:1029CC0000080000000800000008000000080000DB
:1029DC00FE070000FF0700000008000000080000D0
:1029EC00FF070000FF07000000080000FF070000C1
:1029FC00FF070000FF0700000108000001080000AD
:102A0C0001080000FF070000020800000008000099
:102A1C000008000000080000000800000108000089
:102A2C00FF070000FF07000001080000FF0700007F
:102A3C00FF0700000108000000080000000800006B
:102A4C0000080000FE070000FE070000010800005F
:102A5C0000080000FF070000FF070000000800004E
:102A6C000008000001080000020800000008000037
:102A7C0000080000FF07000001080000FC07000030
:102A8C0003080000FA07000008080000F307000024
:102A9C0014080000D3060000BF020000690100000A
:102AAC0009040000EA0600005B090000BD080000F4
:102ABC004D070000EC0500006F0500000008000049
:102ACC001D090000530A0000F1090000270800004E
:102ADC00ED050000F70500007E060000330800003D
:102AEC00B70A0000410A0000F8080000A506000023
:102AFC001F060000D7060000AC090000C80B000040
:102B0C007C0B0000090B000038080000AD0600002B
:102B1C0024070000EC0900003E0D00005D0F0000D2
:102B2C00F50D000061090000A00500005402000032
:102B3C00AF010000640300007D060000990800004E
:102B4C00060900008F070000780500008F050000C3
:102B5C00D60600007D080000A20900006D090000E7
:102B6C000308000088060000DE0500004E06000089
:102B7C00830800009B0A0000DA0A00006C090000C0
:102B8C005107000008060000AA06000079080000A2
:102B9C00380A0000530B0000CA0A0000CF080000DE
:102BAC00EF060000DE06000009090000430C0000DF
:102BBC00980E0000430E0000910B0000A2070000CD
:102BCC00120400006802000013030000500500000E
:102BDC004C070000C7070000D4060000A205000047
:102BEC00880500008A0600003908000087090000EB
:102BFC0092090000420800007806000068050000F9
:102C0C00E7050000BF070000A90900004A0A000000
:102C1C00620900008507000023060000240600005E
:102C2C009D070000A9090000150B0000CB0A00004D
:102C3C0000090000F30600003D06000091070000AB
:102C4C00440A0000D80C0000A40D0000230C000066
:102C5C00EF08000096050000A2030000BE03000070
:102C6C004A050000FC060000BE07000055070000E6
:102C7C006606000009060000AD06000020080000F2
:102C8C006F090000AA09000094080000D306000098
:102C9C00B705000004060000A00700008D09000025
:102CAC00810A0000F10900003A0800008C060000BF
:102CBC00110600002C07000037090000D00A0000A4
:102CCC00EF0A0000780900006D0700004F060000B5
:102CDC000607000058090000100C00008E0D0000C3
:102CEC00DD0C00004E0A000025070000D204000095
:102CFC00300400000B0500006206000025070000F0
:102D0C00FF0600004D060000EE05000081060000E5
:102D1C00CB0700001909000086090000AC08000070
:102D2C001A070000D1050000C50500000A070000C5
:102D3C00D5080000FA090000C3090000590800007A
:102D4C00A1060000E9050000AB0600009508000094
:102D5C00620A0000EE0A0000D5090000CF0700004F
:102D6C0048060000460600000C080000A10A0000FE
:102D7C00890C0000A70C0000DB0A000023080000EF
:102D8C00CC050000D00400004605000064060000DD
:102D9C003207000028070000890600001706000013
:102DAC007706000097070000E50800007E09000088
:102DBC00E80800007C0700002C060000E705000076
:102DCC00E80600009B080000E7090000FA09000073
:102DDC00D20800002C070000270600008506000022
:102DEC001C080000EA090000BF0A0000180A0000D5
:102DFC0053080000A9060000450600007D070000EE
:102E0C00CF090000E80B00009A0C0000820B0000B8
:102E1C00430900000E070000C5050000B9050000BD
:102E2C005A060000E4060000E10600005C06000003
:102E3C00F7050000440600004A0700009208000055
:102E4C005409000007090000D00700007D060000AF
:102E5C00EC05000088060000FE0700005209000087
:102E6C00AB090000D50800005C0700003706000025
:102E7C00480600008B070000450900005F0A0000AF
:102E8C00240A0000B80800000B0700003E060000F2
:102E9C00DD060000BD080000BF0A0000CF0B0000DB
:102EAC005F0B0000AE090000C20700006D060000B9
:102EBC002306000091060000FB060000FC06000043
:102ECC00810600000F0600003506000021070000F7
:102EDC00630800004B0900003D09000036080000A3
:102EEC00DC060000190600006E060000AF070000AB
:102EFC001D090000C4090000520900000F08000061
:102F0C00C80600006C0600003E070000C308000065
:102F1C00F4090000150A00000A0900007A070000F5
:102F2C0082060000BA06000028080000120A000001
:102F3C006A0B0000740B00004D0A00009C08000096
:102F4C003A070000AB060000CD06000009070000A0
:102F5C00F40600007D060000F4050000F3050000F7
:102F6C00BE060000FF0700000E0900004409000027
:102F7C007F0800002F070000310600002B06000020
:102F8C002B070000990800007E0900005909000079
:102F9C0043080000FB06000061060000E706000085
:102FAC0047080000AA090000290A00007409000063
:102FBC00FE070000C60600008F0600009107000007
:102FCC0045090000A80A00000D0B0000560A00007D
:102FDC00F6080000B10700000F0700000907000009
:102FEC003707000025070000A906000011060000A5
:102FFC00F305000092060000C4070000EC08000076
:10300C0053090000CA0800009F0700008306000057
:10301C0030060000E00600002C0800003E0900000D
:10302C0073090000B20800007C070000B406000021
:10303C00D6060000E307000033090000F509000084
:10304C00A209000071080000290700009B0600007F
:10305C00300700009D080000170A0000D70A000086
:10306C00940A00008A09000058080000900700002C
:10307C00550700005F07000040070000C306000072
:10308C0013060000AB05000001060000130700004A
:10309C00610800002D0900000C0900001B0800004D
:1030AC00EF0600004606000095060000A50700008C
:1030BC00C508000044090000D3080000BC0700004C
:1030CC00D7060000B106000078070000C208000017
:1030DC00B6090000C4090000E2080000A7070000C0
:1030EC00CF060000FE060000180800007909000059
:1030FC00660A00006E0A0000B0090000AB08000070
:10310C00EE070000AE070000BA07000098070000A9
:10311C001707000061060000D7050000EF0500004E
:10312C00C90600000B08000000090000330900006C
:10313C007D08000058070000810600007F06000093
:10314C00520700007A080000350900000E09000043
:10315C003108000030070000C706000042070000DD
:10316C005E08000065090000C1090000300900007C
:10317C000808000015070000EA060000AF07000071
:10318C00EF080000FB090000470A0000D10900000D
:10319C000A09000064080000210800001D08000056
:1031AC00FC07000071070000A0060000E605000007
:1031BC00BA0500006106000091070000B10800008C
:1031CC001E090000AD080000AA070000CB06000095
:1031DC008E0600001D07000020080000E408000017
:1031EC00EE080000350800003D070000AB060000AB
:1031FC00F3060000EE070000090900009B0900001F
:10320C00570900006E080000700700000B07000053
:10321C00690700005608000047090000BD090000BE
:10322C00950900000E090000870800004608000000
:10323C003C08000024080000B5070000EC06000064
:10324C002A060000D70500004006000047070000D2
:10325C0062080000F5080000BD080000ED07000042
:10326C0011070000B706000017070000F607000062
:10327C00C5080000F7080000640800008107000082
:10328C00DA060000E4060000AE070000BD080000EE
:10329C007E09000082090000D1080000D50700005B
:1032AC003107000047070000FB070000E1080000A1
:1032BC007C0900009009000040090000DE080000B5
:1032CC00A00800008C08000073080000070800002C
:1032DC004607000074060000F805000027060000F1
:1032EC00FB06000009080000BD080000C70800002C
:1032FC002A0800004E070000CA060000F006000075
:10330C00A407000072080000D40800008308000025
:10331C00BB070000FB060000CB06000055070000B1
:10332C005108000030090000730900000509000075
:10333C00300800007307000045070000B6070000C6
:10334C00720800000F090000460900001A0900006D
:10335C00CE0800009E0800009E080000980800009F
:10336C004B0800009F070000C6060000290600005D
:10337C0020060000CC060000D3070000AD080000BA
:10338C00E10800006608000098070000F306000042
:10339C00EA0600006C07000029080000A3080000E2
:1033AC009008000005080000650700001F070000DA
:1033BC0056070000F70700009F080000FA080000FD
:1033CC00E408000073080000EF070000A7070000E6
:1033DC00BB0700000E08000079080000CC080000B4
:1033EC00FA0800000B090000100900000209000097
:1033FC00CA08000058080000A8070000EA060000F0
:10340C006F06000064060000D9060000910700005A
:10341C003A0800008408000054080000DB07000094
:10342C00690700004A07000086070000FA07000041
:10343C005008000051080000FE0700008C07000037
:10344C004607000051070000BF07000047080000B6
:10345C00A6080000BC0800007F080000210800003E
:10346C00DC070000D5070000F90700003108000058
:10347C006C08000098080000C2080000F308000067
:10348C000F090000F80800009D080000F00700007C
:10349C00260700008E0600005F060000A80600004C
:1034AC0047070000F60700005B0800005308000007
:1034BC00FC07000095070000670700008A07000062
:1034CC00E9070000470800006A08000044080000F3
:1034DC00DB0700007E07000068070000A70700005C
:1034EC002008000083080000A90800008B080000D9
:1034FC004808000007080000EA070000FD0700006C
:10350C00220800004A0800006D080000990800001D
:10351C00D4080000170900003C0900000E09000047
:10352C0083080000B0070000DD0600006006000004
:10353C0068060000E9060000A2070000320800003F
:10354C00590800001A080000AF07000069070000C6
:10355C0071070000C6070000290800005E08000083
:10356C004E080000F10700008E07000069070000FC
:10357C008D070000ED070000500800007D080000DA
:10358C00740800004C08000022080000100800001D
:10359C0018080000210800001F0800002608000081
:1035AC00420800008B080000F308000046090000E8
:1035BC0048090000D90800000E0800002807000088
:1035CC009006000072060000CC0600007007000098
:1035DC00020800003B0800001A080000C3070000A6
:1035EC007B07000081070000C90700001E080000CF
:1035FC00530800004C08000007080000B907000041
:10360C008A07000093070000D20700001D08000085
:10361C0047080000530800004B0800003E0800005B
:10362C0033080000320800002B08000013080000CB
:10363C0007080000170800005D080000C60800001D
:10364C002E0900005A0900001F0900008208000022
:10365C00A4070000E70600008F060000AD0600007E
:10366C0028070000BA070000180800002108000015
:10367C00E80700009E0700007E070000A607000078
:10368C00F60700002C080000410800002308000089
:10369C00E5070000B30700009D070000B00700001D
:1036AC00E1070000140800002E0800003908000093
:1036BC00450800004C0800004C08000047080000BA
:1036CC002808000000080000EF0700000E080000AA
:1036DC006D080000EB0800003D09000037090000F0
:1036EC00CE080000130800004E070000CE060000B4
:1036FC00B80600000207000081070000EB0700007D
:10370C000F080000EF070000B20700008C07000054
:10371C009E070000E007000022080000420800009D
:10372C002D080000F8070000C9070000AD070000D5
:10373C00B6070000D7070000FE07000018080000BD
:10374C00210800002B08000040080000540800006D
:10375C005D080000440800001A080000F307000090
:10376C00F607000038080000A80800001C0900003B
:10377C00490900001209000076080000AC0700009F
:10378C0009070000CA060000F006000053070000FD
:10379C00B8070000F0070000E7070000C3070000AF
:1037AC00A3070000A2070000D20700000F080000CA
:1037BC0031080000300800000D080000E007000090
:1037CC00C0070000BE070000CF070000EA0700009A
:1037DC000008000013080000270800003F08000044
:1037EC0051080000560800004108000013080000B2
:1037FC00E7070000D9070000040800006708000074
:10380C00DC080000280900001A090000B6080000B6
:10381C000C0800005F070000F6060000ED06000033
:10382C003607000092070000D9070000E6070000E9
:10383C00CC070000AC070000A5070000C50700007E
:10384C00F9070000270800003308000020080000DA
:10385C00FD070000DE070000D8070000E3070000AA
:10386C00F2070000FD070000000800000908000036
:10387C002908000055080000700800006C080000C2
:10388C0041080000FD070000C8070000CF0700003A
:10389C001E08000097080000090900002C09000010
:1038AC00EB08000057080000A70700001E070000E7
:1038BC00EC0600001607000068070000BE070000B9
:1038CC00E5070000DA070000C0070000A9070000A8
:1038DC00B6070000E40700001208000029080000E9
:1038EC002408000003080000E0070000D2070000D5
:1038FC00D7070000E5070000F3070000F9070000F8
:10390C00FC070000140800003C08000069080000D7
:10391C00810800006A08000022080000D50700009A
:10392C00B0070000D40700003B080000BC080000F2
:10393C00100900000B090000A2080000F7070000A6
:10394C005707000002070000090700004E0700009F
:10395C00A2070000D7070000DE070000CD0700001B
:10396C00B6070000B7070000D807000007080000E2
:10397C002C0800003308000021080000000800009B
:10398C00ED070000EA070000F5070000FB07000048
:10399C00F5070000F0070000FA07000025080000FA
:1039AC00590800007F080000780800004608000055
:1039BC00F6070000BA070000C00700000808000066
:1039CC0082080000E508000001090000BF080000A3
:1039DC003D080000A20700002F070000140700009C
:1039EC003707000086070000C0070000D40700005E
:1039FC00C9070000B8070000B5070000C7070000A2
:103A0C00EC0700000C080000200800001A08000059
:103A1C0009080000FA070000000800000808000070
:103A2C0005080000FB070000ED070000F60700008A
:103A3C0016080000470800006E080000820800000D
:103A4C006C08000029080000E7070000C907000007
:103A5C00EA0700003E080000A6080000DF0800008E
:103A6C00D20800007A080000F70700007D0700006C
:103A7C003D070000430700006A070000A50700008F
:103A8C00C4070000C9070000C4070000BB07000002
:103A9C00C3070000DC070000FC0700000C08000056
:103AAC00100800000B080000FF07000003080000CE
:103ABC000308000000080000F6070000EA070000F9
:103ACC00E1070000F1070000230800005408000083
:103ADC00790800007608000048080000050800007E
:103AEC00D7070000DD070000170800006E08000073
:103AFC00AF080000BB080000810800001C08000093
:103B0C00B30700006A070000550700006B070000B0
:103B1C0098070000B6070000C9070000C80700009E
:103B2C00C2070000CD070000E1070000F907000004
:103B3C00090800000E08000007080000010800003A
:103B4C00FE0700000008000002080000FF0700004C
:103B5C00F6070000EA070000EE0700000708000067
:103B6C00350800005F0800006A08000051080000DA
:103B7C001D080000EF070000DB070000F507000040
:103B8C00340800007D080000AD0800009F0800000C
:103B9C0059080000F8070000A00700006D0700009E
:103BAC006D07000089070000AF070000CC0700007C
:103BBC00CF070000CA070000CF070000E107000094
:103BCC00FA070000140800001C080000110800008F
:103BDC0003080000F4070000F0070000FD070000D8
:103BEC000808000003080000F8070000EC070000BC
:103BFC00EE0700000C080000370800005608000013
:103C0C005C0800003B08000004080000DC07000012
:103C1C00DD0700000A080000530800008E080000B1
:103C2C009A0800007308000024080000C607000072
:103C3C00850700006B070000750700009507000062
:103C4C00B4070000C1070000C6070000D20700003F
:103C5C00E1070000FC070000140800001A0800002F
:103C6C001008000000080000F1070000EA0700003F
:103C7C00F6070000040800000D080000080800000A
:103C8C00F7070000ED070000FA070000210800000C
:103C9C00460800005A0800004B0800001B080000F2
:103CAC00EA070000DA070000F707000037080000F9
:103CBC007D080000A00800008C08000045080000EA
:103CCC00ED070000A7070000820700008407000032
:103CDC0096070000AB070000B5070000B507000011
:103CEC00C2070000DC0700000408000024080000E4
:103CFC002B0800001F08000008080000F80700004F
:103D0C00F80700000808000017080000170800005A
:103D1C0002080000E5070000D9070000EB070000CF
:103D2C001A08000049080000630800005808000049
:103D3C0029080000F3070000D8070000ED07000079
:103D4C0022080000670800009008000087080000A7
:103D5C005208000009080000CB0700009E07000075
:103D6C008F0700008F0700009D070000A1070000CF
:103D7C009E070000A8070000BF070000EA0700002C
:103D8C000D080000230800002008000017080000A0
:103D9C000A080000010800000508000009080000DE
:103DAC0009080000F6070000E5070000D70700002F
:103DBC00E60700000A08000037080000550800005C
:103DCC004E0800002D080000FA070000DF07000075
:103DDC00E20700000E080000490800007608000009
:103DEC007D0800005908000021080000E9070000C8
:103DFC00C6070000B1070000A70700009D070000E0
:103E0C00930700008E07000097070000B60700001C
:103E1C00E00700000B080000210800002708000044
:103E2C001D080000120800000E0800001108000018
:103E3C001A080000180800000D080000F407000024
:103E4C00E1070000E8070000090800003208000044
:103E5C005008000052080000350800000E08000051
:103E6C00EC070000E6070000040800003A08000018
:103E7C006708000078080000640800002F080000A4
:103E8C00FD070000D4070000C1070000B7070000C1
:103E9C00AF070000A107000096070000980700007C
:103EAC00A8070000CC070000F30700000E08000074
:103EBC001B0800001608000007080000010800009D
:103ECC000708000010080000180800000D0800008A
:103EDC00F5070000E2070000E1070000F80700000A
:103EEC001E080000420800005008000043080000B3
:103EFC0022080000FA070000E7070000F3070000A3
:103F0C001C08000048080000610800005D08000063
:103F1C003C08000010080000E5070000CB0700007B
:103F2C00B9070000B0070000A50700009C070000BF
:103F3C00A1070000B4070000D1070000EB07000048
:103F4C00FF0700000508000004080000FF07000040
:103F5C0003080000080800000E0800001708000005
:103F6C000B080000FA070000EC070000ED0700004A
:103F7C00FF0700001C080000380800004A08000079
:103F8C004808000032080000190800000B08000067
:103F9C000B0800001E08000038080000470800004D
:103FAC004C0800003D0800001C080000F807000049
:103FBC00E0070000CD070000BE070000AE070000C0
:103FCC009C07000099070000A8070000C407000028
:103FDC00E1070000FA0700000808000007080000CD
:103FEC00FF070000F1070000F2070000F8070000CF
:103FFC00FF07000000080000FA070000F3070000AC
:10400C00F1070000FC0700000A0800001F08000070
:10401C003108000036080000340800002A080000AF
:10402C00200800001E080000260800002E080000D2
:10403C00340800003B0800003B0800003308000077
:10404C001E080000FE070000E2070000CC0700007D
:10405C00B9070000AC070000AC070000B407000073
:10406C00C1070000D7070000E9070000FA070000AD
:10407C000408000006080000FE070000FA07000014
:10408C00F8070000FA070000FF070000FD0700001A
:10409C00FB070000F4070000F3070000F90700001D
:1040AC000A080000200800002D080000320800005B
:1040BC0027080000170800000E0800000F08000079
:1040CC00190800002A080000370800003408000016
:1040DC002D080000200800000C080000FA07000062
:1040EC00EA070000D4070000C1070000B607000073
:1040FC00B1070000BA070000D1070000E507000077
:10410C00F707000001080000FF070000F807000097
:10411C00F7070000FB070000FF0700000408000081
:10412C0001080000FA070000F6070000F507000080
:10413C00FA0700000B0800001B0800002308000011
:10414C0028080000210800001408000008080000DE
:10415C0005080000060800000F0800001C080000FD
:10416C0022080000240800001D0800000E080000B2
:10417C00F8070000EA070000DC070000D107000088
:10418C00C9070000C3070000C5070000CF070000E7
:10419C00DD070000EA070000FE070000070800002A
:1041AC000A080000090800000508000002080000C9
:1041BC00FF070000FF070000FC070000FE070000DF
:1041CC00FF070000FF0700000608000012080000AF
:1041DC001F0800002B080000310800002B0800000D
:1041EC0020080000140800000E0800000E08000053
:1041FC00150800001C08000021080000220800001F
:10420C00180800000A080000FB070000EA0700007D
:10421C00DF070000D9070000D4070000CF0700001B
:10422C00CE070000D7070000E5070000F7070000E5
:10423C00040800000908000003080000F70700004C
:10424C00F2070000F1070000F3070000FC07000074
:10425C000208000003080000FE070000FC07000035
:10426C00020800000C0800001908000023080000D8
:10427C002708000023080000170800000A080000A7
:10428C0000080000030800000F0800001A080000D6
:10429C00200800001C0800001008000003080000A3
:1042AC00F4070000EA070000E2070000DF07000047
:1042BC00DA070000D5070000D6070000DF07000072
:1042CC00F0070000020800000808000006080000C3
:1042DC00FC070000F1070000EC070000EF070000EE
:1042EC00FB0700000408000006080000FE070000A1
:1042FC00F7070000F607000003080000180800008C
:10430C00290800002F080000250800000D080000F7
:10431C00F7070000EF070000F80700000C0800008A
:10432C001D0800001F080000130800000108000011
:10433C00F6070000EF070000F7070000FA0700007F
:10434C00F4070000EA070000D6070000CE070000C3
:10435C00D8070000F3070000070800001008000051
:10436C0007080000F0070000E1070000DE0700006E
:10437C00E8070000F807000006080000020800002B
:10438C00F9070000F0070000F0070000000800002B
:10439C001A08000030080000370800002E08000042
:1043AC0013080000FB070000F3070000FC070000E7
:1043BC000F0800001F080000240800001708000068
:1043CC0008080000FE070000FF07000007080000B7
:1043DC0009080000FE070000E8070000D5070000F0
:1043EC00CD070000DB070000F20700000708000003
:1043FC000E08000005080000F3070000E2070000AB
:10440C00E4070000EE070000FE07000006080000AD
:10441C0004080000F3070000E3070000E3070000B6
:10442C00EF0700000D08000025080000310800000F
:10443C002A0800001908000007080000FC0700000B
:10444C00020800000F0800001A08000017080000FE
:10445C000E080000050800000D08000018080000F8
:10446C001F0800001C08000006080000EC070000F4
:10447C00D6070000D0070000DB070000F70700009C
:10448C000A0800000E08000004080000ED070000F8
:10449C00DA070000D9070000E9070000FD0700005B
:1044AC000C08000008080000F0070000DA07000004
:1044BC00D2070000DD070000F70700001508000018
:1044CC0023080000250800001E080000100800004A
:1044DC00090800000D080000100800001408000076
:1044EC001008000007080000050800001008000074
:1044FC001E080000230800001F0800000D08000023
:10450C00F0070000D3070000CA070000D507000021
:10451C00F10700000A0800000E0800000508000062
:10452C00F1070000E2070000DF070000EB070000C6
:10453C00FB0700000708000009080000F90700004D
:10454C00E3070000D3070000D5070000E2070000D6
:10455C00F70700000A08000011080000120800000C
:10456C000C0800000B080000090800000F080000F0
:10457C001608000016080000100800000A080000C9
:10458C000B080000110800001E0800001E080000A7
:10459C001408000005080000EC070000DC07000010
:1045AC00DD070000EC070000FD0700000608000016
:1045BC0003080000F6070000EC070000E707000006
:1045CC00EC070000FB0700000C08000012080000BC
:1045DC000D080000FE070000EC070000E6070000D5
:1045EC00E9070000F4070000FF07000002080000C4
:1045FC00010800000008000009080000160800006F
:10460C00200800001E080000130800000908000024
:10461C0003080000040800000D0800001C0800003E
:10462C0023080000210800000F080000F907000013
:10463C00E9070000E2070000E7070000F1070000AF
:10464C00F8070000F8070000F2070000EB07000075
:10465C00E8070000EB070000F80700000608000060
:10466C000A0800000508000000080000FA07000016
:10467C00F3070000F2070000F0070000EC07000051
:10468C00EC070000ED070000F4070000050800002F
:10469C001B08000026080000260800001608000071
:1046AC00FF070000EE070000EF0700000008000005
:1046BC00140800002608000022080000150800005D
:1046CC0001080000F2070000F0070000F5070000E9
:1046DC00FC070000FB070000F6070000EB070000DA
:1046EC00E7070000E9070000ED070000F6070000EF
:1046FC000108000006080000000800000008000087
:10470C0003080000080800000C080000090800005D
:10471C00FF070000F6070000F3070000F407000095
:10472C000108000012080000210800002308000006
:10473C001608000006080000F4070000F10700004E
:10474C00FA0700000B0800001C08000024080000F9
:10475C001D0800000B080000FB070000F10700001B
:10476C00F2070000F7070000F8070000F40700004C
:10477C00ED070000E4070000E0070000E707000079
:10478C00F1070000FB070000FB070000F607000024
:10479C00F5070000FB070000060800000D080000EC
:1047AC000C08000002080000F4070000E8070000F5
:1047BC00E8070000F80700000E0800001F080000C2
:1047CC002208000013080000FB070000E9070000A6
:1047DC00E3070000F00700000508000019080000BE
:1047EC00200800001D080000140800000608000046
:1047FC00FE070000F9070000FA070000FC070000A4
:10480C00F9070000F3070000EC070000E4070000C4
:10481C00DF070000E4070000EA070000F2070000D1
:10482C00F8070000FD070000000800000508000064
:10483C000A0800000808000005080000FB0700003B
:10484C00F1070000EF070000F7070000090800005F
:10485C0018080000220800001D0800000C080000C9
:10486C00F6070000E6070000EA070000FC0700005E
:10487C00130800002108000024080000170800009D
:10488C0008080000FC070000F907000003080000FE
:10489C000C0800000E08000006080000F6070000D7
:1048AC00E9070000E7070000F0070000F807000028
:1048BC000108000002080000FE070000FD070000D0
:1048CC00010800000A080000100800000C08000095
:1048DC00FD070000EC070000E1070000E607000000
:1048EC00FA07000012080000220800001F08000050
:1048FC000B080000F2070000E0070000DF070000D3
:10490C00EE0700000A0800001C0800001F08000049
:10491C001808000007080000F9070000F80700005D
:10492C00010800000508000007080000000800004E
:10493C00F3070000EB070000E7070000E9070000A1
:10494C00EF070000F8070000FB070000FC07000061
:10495C00FE070000020800000B0800000D08000014
:10496C0008080000FB070000EA070000DF07000052
:10497C00E4070000F8070000100800002008000001
:10498C002008000010080000FB070000EC070000E6
:10499C00EA070000F60700000C0800001B080000E6
:1049AC001D080000160800000B0800000608000097
:1049BC00060800000A0800000B0800000B080000A5
:1049CC0004080000FC070000F4070000EF070000DB
:1049DC00F0070000F2070000F2070000F2070000E9
:1049EC00F3070000F8070000010800000D080000A4
:1049FC00130800001008000002080000F007000077
:104A0C00E1070000DE070000EC07000000080000D2
:104A1C0014080000190800000E080000FA07000036
:104A2C00EA070000E2070000EB070000FF070000A8
:104A3C0015080000210800001B0800000D080000EC
:104A4C000108000000080000040800000E08000027
:104A5C00150800001208000007080000F607000007
:104A6C00EC070000E9070000F0070000F407000065
:104A7C00F9070000FA070000F8070000FB07000028
:104A8C00000800000C0800001508000013080000C6
:104A9C0002080000EB070000DC070000DB07000049
:104AAC00EA070000040800001708000018080000BE
:104ABC0008080000EE070000DD070000E107000019
:104ACC00F60700000E0800001C0800001A08000081
:104ADC000D080000FE070000FA07000001080000A6
:104AEC000E0800001608000012080000090800005B
:104AFC00FC070000F5070000F807000001080000A3
:104B0C000708000006080000FE070000F20700007E
:104B1C00EF070000F9070000100800002308000050
:104B2C00240800000E080000EF070000D707000063
:104B3C00D1070000E2070000FE0700001808000083
:104B4C001D0800000E080000F3070000DE0700003F
:104B5C00DC070000EC07000004080000140800004B
:104B6C00160800000B080000FC070000F607000008
:104B7C00FB070000070800001108000012080000E5
:104B8C0008080000F8070000EE070000F10700001D
:104B9C00FC070000070800000B08000005080000D7
:104BAC00FD070000FA070000FE0700000C080000DB
:104BBC001C08000023080000180800000108000071
:104BCC00E5070000D5070000DD070000F207000034
:104BDC000D0800001B08000015080000FE0700006F
:104BEC00EA070000E5070000F107000005080000D7
:104BFC00120800001308000004080000F30700006E
:104C0C00EB070000F1070000040800001208000088
:104C1C001508000008080000F7070000EA0700006C
:104C2C00EB070000F6070000060800001308000060
:104C3C000F08000005080000FB070000FD0700003E
:104C4C00090800001D080000280800001F080000CB
:104C5C0008080000EC070000D9070000DB07000083
:104C6C00F0070000080800001608000013080000F8
:104C7C0000080000ED070000E8070000F407000042
:104C8C000A080000180800001308000001080000C2
:104C9C00EC070000E0070000E6070000FB0700003F
:104CAC0010080000180800000C080000F2070000B3
:104CBC00DB070000D8070000E4070000FB0700003A
:104CCC000C0800000B08000000080000F1070000B1
:104CDC00F3070000020800001A0800002908000071
:104CEC00250800000D080000EE070000DB0700009F
:104CFC00DC070000EF07000007080000190800009F
:104D0C001A0800000B080000F9070000F207000069
:104D1C00FD0700000D0800001C0800001D08000025
:104D2C000F080000FA070000E9070000E407000084
:104D3C00EF070000020800000E0800000B0800003E
:104D4C00FE070000EF070000E8070000EE07000078
:104D5C00FB070000070800000B0800000508000016
:104D6C00FA070000FC070000080800001808000003
:104D7C0024080000210800000B080000F1070000C7
:104D8C00E0070000E0070000F30700000D0800003A
:104D9C001C0800001808000007080000F3070000BA
:104DAC00EE070000FA0700000E0800001F080000C4
:104DBC00210800000E080000F3070000DE070000C9
:104DCC00D7070000E5070000F907000008080000FD
:104DDC0009080000FE070000EF070000E8070000CC
:104DEC00EC070000F9070000060800000B080000A3
:104DFC000708000002080000000800000708000077
:104E0C00140800001D080000180800000A08000023
:104E1C00F6070000E8070000E8070000F3070000B1
:104E2C0004080000100800000B080000FE0700003A
:104E3C00F2070000EF070000FB0700000F0800005E
:104E4C001E080000210800001A08000004080000D9
:104E5C00EC070000DF070000E3070000EC07000090
:104E6C00FA070000FE070000FB070000D407000053
:104E7C00600700003D07000099070000F6070000DE
:104E8C004108000026080000F7070000CB070000CF
:104E9C00BF0700001C080000410800006A08000061
:104EAC005B0800001D080000CA070000C6070000D0
:104EBC00CF070000040800005D0800004D0800004A
:104ECC0027080000DC070000D1070000E8070000FD
:104EDC004608000085080000720800006208000007
:104EEC00FB070000BE070000C20700001508000009
:104EFC007F080000C9080000A20800000E0800008E
:104F0C009E0700003E0700003207000070070000FB
:104F1C00DE070000220800002B080000F707000045
:104F2C00AB070000B1070000E307000021080000F8
:104F3C00490800004408000015080000E3070000C1
:104F4C00D0070000DB070000220800006208000008
:104F5C006008000027080000E0070000BB07000005
:104F6C00D6070000150800004B0800006D08000073
:104F7C005A08000018080000D3070000CA070000F8
:104F8C000B0800006C080000B4080000A608000024
:104F9C0050080000D407000065070000330700002C
:104FAC004D070000A0070000E8070000FC07000008
:104FBC00E0070000B9070000B4070000D5070000A7
:104FCC000B080000360800003E080000190800001D
:104FDC00DE070000BA070000C80700000108000047
:104FEC003F0800005108000030080000F1070000E5
:104FFC00C3070000C1070000F507000041080000CE
:10500C0071080000610800001B080000CA070000BE
:10501C00AB070000D507000030080000880800002E
:10502C00A70800007A080000110800009F07000084
:10503C005E0700006B070000A8070000EB070000EC
:10504C000A080000FE070000DB070000CA0700008A
:10505C00DC070000090800003708000041080000C8
:10506C0024080000F1070000CF070000DB07000058
:10507C000E080000480800005E0800004008000010
:10508C00FF070000C3070000B9070000E407000099
:10509C002D08000067080000690800002F080000B8
:1050AC00E0070000B3070000C5070000110800006E
:1050BC006E080000A10800008908000034080000F8
:1050CC00C50700007307000061070000850700009A
:1050DC00BF070000E4070000E6070000D30700004C
:1050EC00C5070000D4070000F807000020080000E6
:1050FC002E08000014080000E9070000C707000094
:10510C00CE070000FB07000032080000500800002A
:10511C003F08000009080000CD070000BB07000095
:10512C00DC07000021080000610800007508000081
:10513C004B080000FE070000BF070000B20700008C
:10514C00E80700003E080000820800008B08000001
:10515C0055080000FC070000AA07000085070000A6
:10516C0092070000C0070000EB070000F8070000E2
:10517C00EA070000D7070000D8070000EF0700007F
:10518C0011080000240800001B080000FA070000AA
:10519C00D8070000D1070000EF070000230800002B
:1051AC0048080000450800001A080000DC07000051
:1051BC00B7070000C6070000010800004708000000
:1051CC00700800005E0800001D080000D6070000F3
:1051DC00B6070000D4070000220800007008000089
:1051EC00920800007408000023080000C9070000A2
:1051FC008F07000086070000A4070000CA07000004
:10520C00DF070000D9070000CC070000CC07000026
:10521C00E207000006080000200800001908000042
:10522C00F6070000D0070000C1070000D9070000F6
:10523C000D0800003B080000460800002408000090
:10524C00E7070000B7070000B6070000EB070000F7
:10525C00370800006B080000680800002E080000EA
:10526C00E4070000B4070000BE070000FD070000C3
:10527C004E0800008008000079080000400800007B
:10528C00F0070000B6070000A3070000B6070000F7
:10529C00D4070000E6070000E3070000D407000075
:1052AC00D3070000E70700000A08000025080000EB
:1052BC002308000003080000DA070000C407000000
:1052CC00D60700000C080000410800005808000038
:1052DC003D08000001080000C8070000B9070000E5
:1052EC00E40700002C0800006808000071080000AA
:1052FC0040080000F6070000C0070000BE070000D1
:10530C00F407000041080000790800007D08000047
:10531C004E0800000A080000D1070000B907000081
:10532C00BF070000D0070000D8070000CC07000022
:10533C00BB070000B9070000D1070000FA07000006
:10534C001D0800002308000006080000D907000013
:10535C00BB070000C3070000F0070000290800008D
:10536C00470800003808000007080000CF070000BD
:10537C00B6070000D00700000E0800004C08000023
:10538C00660800004908000005080000C907000075
:10539C00B8070000DC070000200800005D080000D2
:1053AC006F0800005008000018080000E307000018
:1053BC00CB070000CF070000E0070000E407000067
:1053CC00D5070000BE070000B3070000C8070000A7
:1053DC00F40700001F080000300800001E08000041
:1053EC00F2070000C9070000BF070000DF0700003C
:1053FC001708000043080000480800001F080000C0
:10540C00E7070000C3070000C9070000FD07000004
:10541C003B0800005E080000520800002108000054
:10542C00E7070000C9070000D90700000B080000BF
:10543C004608000064080000570800002908000016
:10544C00F8070000DB070000D8070000E1070000A8
:10545C00E1070000D4070000BC070000AE07000005
:10546C00BD070000E6070000130800002808000034
:10547C0019080000EC070000C3070000B807000083
:10548C00D40700000708000036080000430800009D
:10549C0022080000EE070000C3070000C20700004E
:1054AC00ED0700002A080000540800005608000010
:1054BC0032080000F9070000D5070000D3070000F0
:1054CC00F7070000270800004A0800004B080000FE
:1054DC002F0800000D080000F1070000E90700008C
:1054EC00E9070000E6070000D9070000C807000024
:1054FC00BF070000CA070000EC07000010080000FE
:10550C00250800001D080000FC070000D60700005D
:10551C00C4070000D1070000FA0700002B080000A8
:10552C00410800003108000004080000D607000004
:10553C00C2070000D90700000D0800003E0800005B
:10554C00540800004308000016080000EA07000099
:10555C00DB070000EE070000180800003E08000002
:10556C004D0800004008000021080000020800005F
:10557C00F0070000EC070000EA070000E10700005C
:10558C00D0070000C3070000C7070000DE070000BB
:10559C00FE070000180800001A08000004080000AC
:1055AC00E0070000C5070000C7070000E90700007E
:1055BC00160800003408000034080000130800002E
:1055CC00E7070000CC070000D1070000F50700003A
:1055DC0023080000410800003D0800001E080000E0
:1055EC00F4070000DA070000DE070000FC070000EB
:1055FC00220800003C0800003C08000027080000BE
:10560C000C080000F6070000EE070000EB07000096
:10561C00E5070000D8070000C8070000C30700001A
:10562C00D1070000EE0700000D0800001C08000068
:10563C0011080000F4070000D5070000C90700009E
:10564C00DB070000050800002C08000039080000EA
:10565C0027080000FD070000D9070000CE07000056
:10566C00E60700001208000039080000420800009C
:10567C002A08000002080000E3070000DF07000012
:10568C00FB07000024080000410800004808000047
:10569C00360800001A08000003080000F807000094
:1056AC00F5070000EF070000E0070000CA07000044
:1056BC00BC070000BF070000D9070000FD07000071
:1056CC001508000016080000FC070000D8070000B1
:1056DC00C2070000CD070000F30700001F08000000
:1056EC00370800002D08000008080000DC07000047
:1056FC00C6070000D0070000F807000025080000CE
:10570C003D0800003508000011080000EC070000FF
:10571C00DC070000EC070000100800003508000052
:10572C0049080000420800002D0800001408000081
:10573C0005080000FE070000F8070000EA0700005B
:10574C00D5070000C2070000BD070000CF0700000E
:10575C00EF0700000E080000190800000A080000FE
:10576C00E9070000D0070000D3070000EF07000096
:10577C00160800002F0800002E0800001308000077
:10578C00EE070000D1070000CE070000E80700007C
:10579C000C0800002508000028080000180800006C
:1057AC0001080000F2070000F307000004080000E5
:1057BC001E080000350800004208000040080000E8
:1057CC003408000025080000130800000008000041
:1057DC00ED070000DB070000CE070000CA07000041
:1057EC00CF070000DF070000F307000000080000EF
:1057FC00FF070000F4070000E7070000E4070000C3
:10580C00EC070000FE070000110800001C08000057
:10581C001608000003080000EC070000DD0700007C
:10582C00DF070000EE07000003080000120800006C
:10583C001308000009080000FA070000F007000038
:10584C00F1070000FF070000160800002B080000FD
:10585C0033080000330800002A0800001D0800006F
:10586C000D080000F8070000E3070000D307000054
:10587C00CA070000CC070000DB070000ED070000A2
:10588C00FC07000002080000FD070000F207000002
:10589C00EA070000EB070000F60700000C08000008
:1058AC001B0800001B0800000D080000FA07000090
:1058BC00EB070000E8070000F307000004080000F5
:1058CC00130800001808000010080000020800006F
:1058DC00F8070000F7070000020800001408000099
:1058EC00240800002E080000300800002A080000E0
:1058FC0022080000190800000C080000FB0700003B
:10590C00E6070000D4070000CC070000D207000017
:10591C00E4070000F807000004080000030800007A
:10592C00F5070000E5070000E0070000E9070000AC
:10593C00FD0700000E080000160800000E0800000D
:10594C00FD070000EE070000E8070000F10700006B
:10595C0001080000110800001708000010080000E2
:10596C0001080000F3070000F0070000F907000031
:10597C000B0800001A080000230800002308000090
:10598C00200800001C080000170800000F08000089
:10599C0002080000F0070000DC070000D007000040
:1059AC00D0070000DF070000F3070000020800002A
:1059BC0007080000FF070000F5070000ED070000D6
:1059CC00EF070000FB0700000908000013080000A7
:1059DC001008000003080000F3070000EC070000AB
:1059EC00F2070000000800000F0800001808000073
:1059FC00170800000B080000FF070000F907000063
:105A0C00FC07000005080000100800001908000041
:105A1C001D0800001F0800001E0800001A080000E6
:105A2C001308000007080000F4070000DF0700005F
:105A3C00D1070000CB070000D3070000E7070000E8
:105A4C00FB0700000508000004080000FC0700002C
:105A5C00F4070000F4070000FA0700000308000038
:105A6C000C0800000F08000008080000FD070000EB
:105A7C00F6070000F5070000FC070000070800000F
:105A8C000F08000014080000130800000B080000A9
:105A9C0002080000FF0700000008000005080000D5
:105AAC000E080000140800001A0800001D08000071
:105ABC001A0800001008000003080000F40700009A
:105ACC00E2070000D5070000CE070000D107000058
