:020000040800F2
:1000000000200020713100083D2C00083F2C000822
:1000100000000000000000000000000000000000E0
:10002000000000000000000000000000412C00085B
:100030000000000000000000432C0008452C0008D0
:10004000C1310008C1310008C1310008C1310008C8
:10005000C1310008C1310008C1310008C1310008B8
:10006000C1310008C1310008C1310008C1310008A8
:10007000C1310008C1310008C1310008C131000898
:10008000C1310008C131000800000000C131000882
:10009000C131000851280008C1310008C1310008F1
:1000A000C1310008C1310008C1310008C131000868
:1000B000C131000800000000C1310008000000004C
:1000C00010B5064C2378002B07D1054B002B02D02E
:1000D000044800E000BF0123237010BD740000201D
:1000E0000000000088420008044B10B5002B03D02C
:1000F0000349044800E000BF10BDC04600000000F6
:10010000780000208842000803B471464908400086
:100110004900095E49008E4403BC70470022430831
:100120008B4274D303098B425FD3030A8B4244D3BF
:10013000030B8B4228D3030C8B420DD3FF22090201
:1001400012BA030C8B4202D31212090265D0030BC0
:100150008B4219D300E0090AC30B8B4201D3CB03B6
:10016000C01A5241830B8B4201D38B03C01A5241F8
:10017000430B8B4201D34B03C01A5241030B8B42FA
:1001800001D30B03C01A5241C30A8B4201D3CB02E5
:10019000C01A5241830A8B4201D38B02C01A5241CA
:1001A000430A8B4201D34B02C01A5241030A8B42CD
:1001B00001D30B02C01A5241CDD2C3098B4201D3E5
:1001C000CB01C01A524183098B4201D38B01C01A63
:1001D000524143098B4201D34B01C01A52410309DA
:1001E0008B4201D30B01C01A5241C3088B4201D389
:1001F000CB00C01A524183088B4201D38B00C01A36
:10020000524143088B4201D34B00C01A5241411A5C
:1002100000D20146524110467047FFE701B5002069
:1002200000F0F0F802BDC0460029F7D076E770472D
:1002300003460B437FD4002243088B4274D3030947
:100240008B425FD3030A8B4244D3030B8B4228D3E8
:10025000030C8B420DD3FF22090212BA030C8B420E
:1002600002D31212090265D0030B8B4219D300E0AE
:10027000090AC30B8B4201D3CB03C01A5241830B33
:100280008B4201D38B03C01A5241430B8B4201D3E3
:100290004B03C01A5241030B8B4201D30B03C01A0C
:1002A0005241C30A8B4201D3CB02C01A5241830A86
:1002B0008B4201D38B02C01A5241430A8B4201D3B5
:1002C0004B02C01A5241030A8B4201D30B02C01ADF
:1002D0005241CDD2C3098B4201D3CB01C01A524146
:1002E00083098B4201D38B01C01A524143098B42CF
:1002F00001D34B01C01A524103098B4201D30B01B8
:10030000C01A5241C3088B4201D3CB00C01A5241DC
:1003100083088B4201D38B00C01A524143088B42A1
:1003200001D34B00C01A5241411A00D2014652413A
:10033000104670475DE0CA0F00D04942031000D359
:100340004042534000229C4603098B422DD3030AAE
:100350008B4212D3FC22890112BA030A8B420CD3BE
:10036000890192118B4208D3890192118B4204D3E7
:1003700089013AD0921100E08909C3098B4201D367
:10038000CB01C01A524183098B4201D38B01C01AA1
:10039000524143098B4201D34B01C01A5241030918
:1003A0008B4201D30B01C01A5241C3088B4201D3C7
:1003B000CB00C01A524183088B4201D38B00C01A74
:1003C0005241D9D243088B4201D34B00C01A52414B
:1003D000411A00D20146634652415B10104601D3D8
:1003E0004042002B00D54942704763465B1000D362
:1003F000404201B5002000F005F802BD0029F8D008
:1004000016E770477047C046844608006146FFE71C
:100410001FB500F007F9002801D40021C8421FBD14
:1004200010B500F08FF84042013010BD10B500F05B
:10043000F9F8002801DB002010BD012010BDC046E6
:1004400010B500F0EFF8002801DD002010BD0120FC
:1004500010BDC04610B500F09DF8002801DC00205A
:1004600010BD012010BDC04610B500F093F8002863
:1004700001DA002010BD012010BDC046F0B5CE4607
:100480009946030C9C46130447461B0C1D000E00A6
:1004900061460404240C80B50700100C4B436543EF
:1004A000414360432C0CC01824188C46A34203D946
:1004B00080235B029846C444494679435643230C43
:1004C0002D042D0C8919634424046019C918C0BC7B
:1004D000B946B046F0BDC0469E2110B5C905041C02
:1004E000FFF7C2FF002803D1201C00F0A1FC10BDC3
:1004F0009E21201CC90500F037FA00F099FC8023EA
:100500001B069C466044F2E770B500220C4B0400C9
:100510000D0001F08FFF002804D12000290001F018
:10052000F5FE70BD064B00222000290001F0E4FA20
:1005300001F0ECFE80231B069C466044F1E7C046B8
:100540000000E04170B542004E024C0045026D0AC9
:10055000120EC30F760A240EC90FFF2A10D0FF2CEB
:100560000CD00120A2420AD1B54208D18B420FD053
:10057000002A04D12800431E984100E0012070BDEC
:100580000120FF2CFBD13543F9D14B401800F6E791
:100590000020F4E730B5420044024D02C30F48008A
:1005A000640A120E6D0A000EC90FFF2A18D0FF2828
:1005B0000AD0002A1ED100280AD1002D29D0002CF3
:1005C0002DD14800013830BD002D25D1002A01D1A0
:1005D000002CF6D08B4219D001205B421843F2E781
:1005E000002C19D1FF28F7D1002D15D100208B4206
:1005F000F2D1E8E70028EFD08B42EDD18242EBDC6C
:1006000004DBAC42E8D80020AC42DCD25800013810
:10061000D9E7002CD7D0DFE702204042D3E78B4256
:10062000DAD1EEE730B5420044024D02C30F480074
:10063000640A120E6D0A000EC90FFF2A17D0FF2898
:100640000AD0002A1BD100280AD1002D1DD0002C71
:100650002DD14800013811E0002D0ED1002A01D122
:10066000002CF6D08B420CD15800013806E0002C4B
:1006700003D1FF2805D1002D15D0022030BD002860
:1006800006D101205B421843F8E7002CF6D0F8E7CA
:100690008B42F6D18242F4DCE6DBAC42F1D800209A
:1006A000AC42EBD2E0E700208B42EAD1E6E78B4296
:1006B000E7D1F2E7F0B54F464646D6464400C0B50E
:1006C00046020F1C760A240EC50F002C00D1DAE07A
:1006D000FF2C74D08023F600DB041E4300239946D0
:1006E0009A467F3C7B025B0A98467B001B0EFF0FFD
:1006F000002B74D0FF2B00D18EE042468021D20027
:10070000C90411437F3B2A00E4184B467A408846CF
:10071000D2B20A2B75DC4B460020022B0FDD494676
:1007200001238B40A621C9000B4269D19021890089
:100730000B4200D000E18821194200D0F5E041468B
:100740000904090C43460800350C36041B0C360C12
:10075000704369435E435D437618030C9B199942CD
:1007600003D9802149028C46654400041904000C19
:1007700009188E01701E86411B0C890E5B190E43F1
:100780009B011E431B016CD423007F33002B00DC34
:10079000B1E0150071070BD00F2021003040042874
:1007A00006D00436320103D56E4B1E400B00803359
:1007B000FE2B00DDBDE0B201520ADBB248E0002EA4
:1007C00000D092E008239946063B9A467B025B0ADA
:1007D00098467B00FF241B0EFF0F002B8AD1424658
:1007E000002A64D149460132114389460A2908DCAE
:1007F0007D400120EAB2022991DC1500002227E0A9
:1008000015005346022B00D193E0032B1AD0012B85
:100810002CD1002300221BE04346FF34002B55D08F
:1008200003214B460B4319000A2B00DC92E00F2BEF
:1008300000D08CE08022D203164203D043461342FC
:1008400000D17DE08022D20332435202520AFF23BC
:10085000D805ED0710432843E0BCBA46B146A84688
:10086000F0BD0123150071081E400E4323008033A4
:10087000611C002B41DD720794D00F223240042A04
:1008800000D08EE78EE7002E05D104239946033B66
:1008900000249A4626E7300001F0D6FD7624431F57
:1008A0009E400023644299469A46241A1AE740461D
:1008B00001F0CAFD4B46241A763C0A2BA1DC4346C4
:1008C000053883407D409846EAB224E74A46023321
:1008D00013432A007A40D2B20A2B92DC4946150013
:1008E000002926D09946022019E70C239946093B96
:1008F000FF249A46F6E6150021000122D31A1B2B8D
:1009000000DD86E79E3132008E40DA40731E9E4144
:100910003243530704D00F231340042B00D004327A
:10092000530110D50123002292E73D00464682463E
:1009300067E7FF2300228BE780220025D20386E7AA
:100940003D001A4383E792010023520A80E73D00ED
:10095000464677E72A0001237A408B400320D2B233
:10096000E9E6C046FFFFFFF7F8B54746CE4643022B
:1009700080B55F0A9B0945004A009C464B02C40FA4
:10098000CE0F2D0E580A120E9909FF2A6BD00123A3
:100990005E40AB1AB4424BD0002B00DCFFE0002AD3
:1009A00000D188E0FF2D00D1EFE08022D204114376
:1009B00001201B2B08DC08002022D840D31A9940C4
:1009C0000B005A1E9341184363461B1A9C4663460C
:1009D0005B0100D4CDE063469F01BF09380001F000
:1009E00033FD3B0005388340854200DCA2E0B74A76
:1009F0002D1A1A4094465A0700D1C3E00F22134023
:100A0000042B00D1BEE004239846C44463465B0136
:100A100000D4B7E0681CFE2D00D0A5E0FF20002226
:100A2000C0051043E4072043C0BCB946B046F8BD3A
:100A3000002B00DCEBE1002A46D0FF2D00D1A4E022
:100A40008022D20411431B2B00DCFBE005239846D7
:100A50002B00C4446246D708FF2B00D195E07A02F0
:100A6000520AD8B2DCE72B00FF3B9946002918D187
:100A700001235E40B44200D1CAE04B46002B2DD08A
:100A8000002D00D03CE1FF236446002C00D15FE143
:100A90005D1E012B00D174E13400FF2B74D02B00BC
:100AA00003E1B44200D19CE0002B17D0002DEAD026
:100AB000070034006CE00029CCD05A1E012B2BD04B
:100AC000FF2B62D0130073E70029C3D05A1E012BFD
:100AD00000D11EE1FF2B58D01300B4E7FE226B1C9F
:100AE0001A420DD1002D60D06346002B00D020E1CA
:100AF000002900D028E180220024FF20D2038FE7C4
:100B000063465F1A7B0100D5FEE0002F00D065E749
:100B100000240020002283E76346591A4B0100D4C9
:100B200019E18F01BF09380001F08EFC3B00053848
:100B3000834001252022401B0130121A19009340E6
:100B4000C1405A1E934119438C460B1EE1D05B07EE
:100B500000D152E10F2300250B40042B00D052E7B7
:100B600001204A0100D492E0C0B263469A01520AC1
:100B700056E763465B0705D00F2362461340042BFC
:100B800000D040E72B0065E70700002F00D145E7C4
:100B90008022D2033A435202FF20520A40E7002B40
:100BA00079D1FE226B1C1A42AAD16346002B00D1D8
:100BB000F5E0002900D1D1E05F1A8023DB041F4259
:100BC00000D10EE1624601248A1A94460020344086
:100BD000002A00D124E701201A42C6D10023D708F9
:100BE0003DE7002B17D0002D00D0AFE0FF23654676
:100BF000002D00D1ADE05E1E012B00D189E0FF2B5E
:100C0000C2D01B2E00DCABE04B1D9C46130021E73D
:100C10004B46002B70D1FE226B1C1A425ED1002D78
:100C200000D0C3E06346002B00D1D0E0002900D102
:100C300094E00A006244530100D4D8E092010120FC
:100C4000520AEDE608002022D840D31A99400B0042
:100C50005A1E934103439C4463465B0189D5013589
:100C6000FF2D00D1DAE662460123194913405208EC
:100C70000A401A43130094465B0704D00F23134025
:100C8000042B00D0BFE663465B0100D5C2E6634695
:100C9000DF082B00E3E6531B002D00D1F4E6802093
:100CA0006446C0040443A446340001201B2B09DC25
:100CB00020256046D840EB1A65469D402B005D1EFE
:100CC000AB4118430B1A9C46150080E6FFFFFFFB63
:100CD000FFFFFF7DFE226B1C1342A3D0FF2B00D130
:100CE0009CE6614449084A0749D00F220A40042A79
:100CF00045D00A1D9446ADE6002D00D176E78DE67D
:100D00003400FF2000228BE663460124CF1A3440D2
:100D100064E661444B016DD54808444901404307EE
:100D20002CD00F230340042B28D00B1D9C460223FC
:100D300090E6002900D12BE78023DB039F4200D2FD
:100D400026E7984200D323E70124344007001FE739
:100D500034008C467EE60123CF0880E600237EE641
:100D600020206546801B854063462800F340451ED1
:100D7000A84103439C4615008C446DE70223CF082D
:100D80006DE60F1B7B0128D5BF01BF09380001F0BC
:100D90005BFB3B000538834034000125CAE600298F
:100DA00000D1B5E601240700344058E66346002B25
:100DB00000D1E9E6002900D1EAE68023DB039F4267
:100DC00000D2E5E6984200D3E2E60700E0E600291B
:100DD00000D19EE60023CF0841E634000123FF083E
:100DE0003DE6002F00D193E60023FF0837E60023FD
:100DF000D70834E60123CF0831E680220B00D20465
:100E000001201340114200D0AEE6CF0827E6002BA8
:100E100000D15FE7561B002D01D13300E7E68023A8
:100E20006046DB0418438446EBE6C046FFFFFF7DC7
:100E300041024200C30F490A0020120E7E2A03DD40
:100E40009D2A02DD094A981870478020000401435A
:100E5000952A07DC9620821AD1404842002BF3D114
:100E60000800F1E7963A9140F7E7C046FFFFFF7FA1
:100E700010B5041E0DD001F0E7FA9E231B1A962B25
:100E80000CDC082834D0083884406402640AD8B2E4
:100E900001E000200024C005204310BD992B13DC85
:100EA000421F9440144A224061071CD00F21214068
:100EB000042918D00432D408520115D59F236402A6
:100EC000181A640AC0B2E6E7020021001B32914002
:100ED0000A00511E8A410521091ACC401443064AD2
:100EE00022406107E2D1D4086402640AD8B2D2E792
:100EF0006402640A8E30CEE7FFFFFFFBF0B5DE46EA
:100F0000454657464E46E0B587B0009201930B0325
:100F10001B0B9B46CA0F4B00040080465B0D0292E0
:100F200000D198E07C4A934237D05946420FC9001D
:100F30000A43802109041143C2009046774A89463A
:100F400092469A44002300240393009E019F3B0392
:100F50001B0B9B467B0030005B0DFD0F002B59D017
:100F60006D4A934248D05946720FC9000A43802106
:100F7000090411438B466949F2008C46514663448B
:100F8000CB1A9A460021029E6E40F6B20F2C00D971
:100F9000CEE0634BA4001B599F465A46024391463C
:100FA00000D090E09A460223904608240393CCE7B1
:100FB000CB464246029D0399022900D1DEE1032976
:100FC00000D18DE0012900D079E12E00002200231C
:100FD000002490461B052343F6073343404619007F
:100FE00007B0F0BCBB46B246A946A046F0BD002201
:100FF00000249046484BEDE75A46009B1A43494B64
:101000009C46E244002A59D102231C4300230221BA
:101010009B46B8E75A46009B1A4349D05B46002BD3
:1010200000D19CE1584601F00FFA020003000B3A90
:101030001D27009EBA1A19005846D6400839884024
:10104000320002439346009A8A40374953448A4605
:1010500000219A4497E75B460343994621D05B46BB
:10106000002B00D169E1584601F0EEF90B235B42F9
:101070009C460200844466461D239B1B26001100EB
:101080005846DE4008398840330003439946230020
:101090008B409846254B00249B1A9A4600230393C5
:1010A00053E7002398469A460133042403934CE700
:1010B00001231C43002301219B4664E703233200E4
:1010C00003211C435FE79A460323D9460C2403936C
:1010D0003BE700238024984600260F4B240379E742
:1010E00080245B4624031C4324032E0090460A4BB5
:1010F000240B6FE780244B462403234202D05B4637
:101100002342F0D080244B4624031C432403029E38
:10111000014B240B5EE7C046FF07000001FCFFFF08
:10112000A042000801F8FFFFF30300000DFCFFFFE1
:10113000CB4500D2F8E000D1F3E001235B429C46AE
:10114000444648460025E2445B46170E1B021F43F7
:10115000190C3B04120200971F0C91460291039751
:10116000FFF762F802007A430B04210C8046194312
:101170008A4209D9009F0123BC465B4261449C46D8
:10118000E0448F4200D85CE1881A0299FFF74CF8DE
:10119000039A240442430904240C03000C43A24292
:1011A00006D90099013B8C466444A14200D842E133
:1011B000A01A424612041A4393464B4659461B0C4A
:1011C0001F0004930B0449460904090C0C001B0C76
:1011D0005C43120C7B43884651437A43270CBC4640
:1011E0005B186344994203D9802149028C466244CA
:1011F000190C24041B04240C8A181C19904202D3D5
:1012000016D1A54214D25B46009F013B4D44059385
:101210004D459B41BC465B426344C018874200D3A6
:1012200002E1824200D929E100D124E1059B9B46DD
:101230002C1BA542AD41009B801A6D42401B83428E
:1012400000D10FE10299FEF7EFFF039A0B0442432E
:10125000210C050019438A4200D9CBE0881A029973
:10126000FEF7E2FF039A240442430904240C03001E
:101270000C43A24200D9CAE04146A41A2A041A43E8
:10128000049F13041B0C594340467B439C46150C9A
:1012900068430B0C844463447D43984203D9802007
:1012A000400284466544180C09041B04090C4019CB
:1012B0005B18844227D323D0012335001A43944B73
:1012C0005344002B60DD510700D086E02E00D1088A
:1012D0005A46D20106D55A468E4B1A408023934671
:1012E000DB0053448C4A934200DD80E65A465207A5
:1012F0000A4390465A465B055402240B5B0D69E68F
:101300003500002BDBD0009D511EAC466444AC423E
:1013100000D29EE0844200D2E1E000D1EEE00A007B
:10132000CAE7424500D908E74B46DC075808434660
:101330005B081C434346DD0706E701F085F81523EB
:101340009C4684440200634620321C2B00DC92E65B
:101350002300083883409946002398469AE601F016
:1013600073F802000300153220331C2A00DC5FE60C
:1013700000990838814000228B4666E600222E0044
:1013800000249046654B25E62E000121C91A382914
:1013900000DD1BE61F297EDC6148140050445B46DB
:1013A00082408340CC40501E824123431A435B4617
:1013B000CB40510709D00F211140042905D0111D40
:1013C0009142924152429B180A00190200D49BE0BC
:1013D0000022012300249046FCE50F21114004293E
:1013E00000D173E7111D9142924152422E00C9086B
:1013F00093446DE7009B013D9C4661448B4200D9BC
:101400002CE78A4200D829E7851E614426E7009927
:10141000013B8C466444A14200D92DE7A24200D88A
:101420002AE7831E644427E7874200D0FEE6A945E9
:1014300000D9FBE6F5E6A24200D8B9E6831E644473
:10144000B6E68A4200D89FE6BC46831E98466144B1
:101450009AE60A00844200D02EE74B4500D02BE7E5
:1014600035002CE72A4B2F4A5344924543DB012297
:10147000002193442CE7AC4200D8D7E602235B421C
:101480009C4600994D444D459B41E3448C465B424C
:101490006344C018CCE61F204042C31A5846D840C7
:1014A000202904D05946204B534499400A43531EE7
:1014B0009A4107231900024300241140134209D026
:1014C00008331340042B1DD0131D934289411A0089
:1014D00049424907D2080A43904600237AE5494623
:1014E000009F4D004D458941BC4649426144A94693
:1014F000023A6418AEE70122524246E79945EED31C
:101500000A00AAE70021E5E759075B021C0BE1E7A7
:10151000FF030000FFFFFFFEFE070000FF070000C3
:101520001E04000002FCFFFF3E040000F0B5574619
:101530004E46DE464546E0B51F000B031B0B16006A
:101540009A46CA0F4B000400914685B05B0D00D14E
:10155000CFE1CD4A934255D05146420FC9000A43CC
:10156000802109041143C2009046C84A8A46934626
:101570009B440023002502933C037B00FA0F019655
:10158000240B5B0D009200D188E1BF4A934200D149
:1015900092E0BE4A944663449B440A2D42DCE40038
:1015A000730F23438024494624041C43F300019312
:1015B000009B00205940CBB20393022D00DC94E045
:1015C0000123AB401D00A6232A00DB001A401D4268
:1015D00000D029E290239B001D4200D14DE2002360
:1015E000802499462403A84B10004A461B05234338
:1015F000D2071343190005B0F0BCBB46B246A9465A
:10160000A046F0BD52460243904600D0ACE19B4656
:101610000223924608250293AEE7009BA246994614
:10162000019B9846029B022B00D1CAE1032B00D1FB
:1016300092E1012B10D1002300240022D4E70122E3
:101640007B083A4013435246D20713439846534609
:101650005B089A46039B99465B46581C8023DB0037
:101660005B44002B00DCB1E1424652070BD00F2255
:1016700041460A40042A06D04246111D4145924186
:101680008846524292445246D20106D55246804B79
:101690001A4080239246DB00C3187E4A934200DD45
:1016A0008FE14246D108524652070A4351465B0534
:1016B0004C02240B5B0D97E7734B26439C46E34497
:1016C000002E00D16FE1032349461D43009B594082
:1016D000CBB203930A2D00DD33E10123AB401D00A3
:1016E0000323029388222A4297D14246434612049A
:1016F000120C160001981D0C030C0004000C46434C
:10170000B4461E006E430096160007005E43614615
:10171000B0466F430E0CB8444644B74205D9802109
:1017200049028846009F4744009761460904090C16
:10173000370C36048C463100614401911100260CAF
:101740002404240C61438C46210069438946614688
:10175000090C884672434A4442447543914503D973
:101760008021490288464544110C88466146090497
:10177000090C8C4612046244B91802915146090CB6
:101780008C4651460F043F0C39004143454488467E
:10179000614641438A4641466046090C89465843A2
:1017A0007B4353444B449A4503D9802149028946DF
:1017B0004844190C894641460904090C88463900F9
:1017C00061431B044344884661464C4371438C4645
:1017D000414677430E0C3F19F6194844B44203D9E9
:1017E000802149028946CC440299009F89463104F0
:1017F0004F4489464146974292410C04240C4C4484
:10180000FF1852426419A1189F429B4188468246A4
:101810005B42994690459241AC42A441C244D144B6
:1018200052426442144399459B41824592415B4236
:10183000524213434A46360CA419E31863445B0230
:10184000D20D1A43019992467A020A43501E8241F0
:10185000FF0D17434A4652021743B846DB0100D535
:10186000EDE60D4B039A5B449146002B00DCACE0A7
:101870003A00520700D110E70F2258463A40042A96
:1018800000D0F9E609E7C046FF07000001FCFFFFB2
:10189000FFFFFFFEFE070000FF03000022003243AF
:1018A0006FD0002C00D1C2E0200000F0CDFD02007E
:1018B00003000B3A1D20821A30001900D04008396D
:1018C0008C400200224334008C405946CB1A864992
:1018D0008B469B440A2D00DDA4E64946009B0194FB
:1018E0005940CBB2140000200393022D00DD67E6BF
:1018F000FBE65346034398463CD05346002B00D1A9
:10190000A3E0504600F0A0FD0B235B429C46020082
:10191000844411005046083988401D2380466046A3
:101920001B1A2000D8400300404603439A46230078
:101930008B4098466C4B00259B1A9B4600230293D4
:101940001AE60F2D00D0C9E0802352461B031A422D
:1019500002D01C4200D192E08024534624031C4351
:1019600024034246240B3EE69B46032380460C2577
:10197000029301E600239A469B4601330425029315
:10198000FAE501210D430A2D00DD4BE6494600989A
:101990004140C9B20391022D00DC96E000230024EF
:1019A000012001930CE649460223009A2B43514043
:1019B000CAB203920A2B00DD34E6002D57D1039BF7
:1019C000994600240022494B0EE658460121C91AC7
:1019D000382900DD2FE61F2956DD1F2254465242CA
:1019E000D31ADC40202907D0414B42469C4653463F
:1019F000604483401A43904642460721531E9A4151
:101A00000B00224313400024114209D00F2313403E
:101A1000042B5DD0111D91429B410A005B425B0784
:101A2000D2081A430023DFE5039B9946FAE50198A3
:101A300000F00AFD02000300153220331C2A00DCEE
:101A400038E7019A083882403FE700F0FDFC152393
:101A50009C4684440200634620321C2B00DC58E77D
:101A6000002398462300083883409A4662E71D0009
:101A70000023002402200193A2E5029032E61C43D9
:101A8000009B019A9946AEE51A4B5246C318404650
:101A90009A40C8400243404698400300581E834184
:101AA00054461A43CC40530709D00F231340042B4C
:101AB00005D0131D934292415242A4181A002302EA
:101AC00008D50123002400228EE5894600248BE5F9
:101AD0000023A5E763076402240BA1E7009BA2464D
:101AE0009946019B984637E70DFCFFFFFF07000072
:101AF0003E0400001E040000F0B557464E46454621
:101B0000DE46E0B583B0009001910C034D00CE0F8E
:101B1000610A009C5F00640F0C43009900920193DE
:101B2000C80019037B0D9946019BCC4FDB0F9C46E7
:101B30004B0A00998046490F1943009B8B46DA00F7
:101B400092466D0DB94500D1BFE001236146594071
:101B50004B468C46EB1A8E4275D0002B00DCA3E27C
:101B60004946002900D1CEE0BD4200D100E2012764
:101B7000382B19DC802759463F0439438B461F2BED
:101B800000DDFAE12027F91A8C4659466746B9402C
:101B90000F001100D9400F4361468A40511E8A410F
:101BA0005946D9401743641AC71BB8428041404286
:101BB000241A230200D440E16402640A002C00D1FC
:101BC00054E1200000F040FC0300083B20213800D5
:101BD000CA1AD0409C4002009F4022439D4200DD33
:101BE000A6E1581B0130091A3C008F40C4407B1EFF
:101BF0009F4113008B4027431F43C2403B0014000A
:101C00000025134300D1F7E17B0700D177E30F23D1
:101C100038003B40042B04D0381DB842BF417F42FE
:101C2000E419230200D468E38C4B01359D4200D1B6
:101C3000F4E08B4B6D051C406D0D6707C008640216
:101C40000743240BECE0002B00DC29E34946002984
:101C500000D0D6E05946114300D12EE1591E012B88
:101C600000D1E6E1BB4200D182E101270B00382917
:101C700014DC1F2B00DD3CE22027F91A8C46594664
:101C80006746B9400F001100D9400F4361468A40B2
:101C9000511E8A415946D940174364183F1887425C
:101CA000804140422418230200D4C6E06B4B01352A
:101CB0009D4200D1B2E00121694B7A081C403940B5
:101CC0000A43E707174364089EE7664B11438A46B9
:101CD000EB18002928D066452CD0002B5BD0002DB6
:101CE00000D12CE15B4666465F07D2081743DD084A
:101CF0003B002B4300D1E2E0802424032C43240347
:101D0000564D240B8CE05946114300D1D5E0591EA5
:101D1000012B00D1B9E1BB4200D1B1E101270B0099
:101D2000382900DD40E72AE76146012779408C46E3
:101D30006645D2D1002B00D1C5E0002D00D055E181
:101D40004B462500054300D112E2591E8C46012B5B
:101D500000D149E2414DAB4200D18FE20127382941
:101D600011DC63461F2B00DD5BE261462023270068
:101D70005B1A050098409F40CD40431E9841CC40DF
:101D80002F430743A344BF189742924152425A44FB
:101D900014004D4687E7344F6B1C3B4200D0B6E041
:101DA0005946230011430F000343002D00D026E1C4
:101DB000002B00D1C0E1002900D1A1E0831A984690
:101DC0005B464045AD41E31A6D425B1B80252D0407
:101DD0002B4200D14BE15B46101A824292411C1B00
:101DE0000700012663465242A41A27431E40002FD3
:101DF00000D142E12C4200D16DE2194B01251C407B
:101E00001BE7BD4200D13BE10127382B00DD45E750
:101E1000802759463F0439438B462AE70024002790
:101E20002D052543F60735433800290003B0F0BCE3
:101E3000BB46B246A946A046F0BD7B0704D00F239F
:101E40003B40042B00D0E7E62B00F808034A670765
:101E50000743E508934200D14AE7A5E0FF070000E9
:101E6000FFFF7FFF01F8FFFFFE070000380000F0D2
:101E7000EBFA030018331F2B00DCA7E63A00083802
:101E800082409D4200DD8AE05B1B581C1F2800DC5D
:101E9000D8E117001F3BDF40202805D040231B1A44
:101EA0009A40531E9A4117430025002F00D1E5E0C8
:101EB0007B0700D0ABE62C00C6E7C008C6E70027CA
:101EC0000024D14DACE7D14F6B1C3B4271D12300B4
:101ED0000343002D00D04EE15746002B00D1B5E161
:101EE000002F0DD08318834280415C444042241867
:101EF000220200D5C8E11F009846274300D1BCE06C
:101F000043466707DB081F43E50800234CE0831ABC
:101F100098465B464045BF41E31A7F42DB1B1F02E8
:101F20007CD447461F4300D1A6E01C00474645E647
:101F3000B74CED1A14407B0700D080E784E74B468E
:101F40002500054366D05F1E012B00D1FCE0AE4D9D
:101F5000AB4200D15EE16646382F00DCB4E00120E0
:101F6000171ABA4292415B4652424D469C1A20E6ED
:101F70006707C0080743E508BAE61F005946203F37
:101F8000F9400F00202B05D04021CB1A594699402B
:101F90000A43924653465A1E93411F4304E6EB1AE6
:101FA0009B4D15406F07ED082C035D05240B6D0D4F
:101FB00036E7954DAB4200D1D6E08218210082422F
:101FC0008041594440420818C70752081743440843
:101FD000520700D485E10F221D003A40042A00D0A8
:101FE0001AE6FF08640727430509DDE75B46D208C8
:101FF0005F071743DD087BE60027002410E7002B6E
:1020000000D0D6E0002900D02FE1802400267E4DAC
:10201000240305E766465C46D00817E75B46171AB7
:10202000BA4292411C1B012663465242A41A1E402A
:10203000C4E58318834280415C44404225182A024B
:1020400000D4DAE0724A5B081540EA071A436908CF
:102050005B0700D44AE10F231340042B00D1FCE0BE
:10206000171D9742A441644202256418ECE64746D6
:102070001C001F4300D043E7002600250024CFE6C4
:10208000C00867070743E50832E6871A5B46B8428F
:102090008041E41A4042241A230228D46307FF082F
:1020A0001F43E50801237FE7002B00D173E64B4671
:1020B0005F1B3B00002D00D142E7382F00DDECE034
:1020C00080230E001B041C431F2F25DC202523002A
:1020D000ED1B0100A840AB40F940451EA8410B4351
:1020E000FC4018435B461B1B9B4639E766460125AF
:1020F00062E51F005946203FF9408C46202B05D051
:1021000040275946FB1A99400A43924657467B1E80
:102110009F4163461F43C1E53B002500203BDD4056
:10212000202F04D04023DB1B9C40204380464046A8
:10213000431E9841284313E700299DD0012663469A
:102140005C4690461E40DBE6171A5B46BA42924157
:102150001C1B5242A41A2302C8D46307FF081F4362
:1021600066460123E5081FE71D000024002757E607
:102170005C46D0086AE6002B00D137E75346C0081A
:1021800067070743E508002B00D1B1E580231B0357
:102190001D4208D05946C808184204D1D208490740
:1021A0000A43170005007B0FFF00FF085B071F4372
:1021B0009EE5C00863071843E508002953D0802333
:1021C0001B031D420AD05946CC081C4206D10126E9
:1021D00063462500D008490708431E40470FC0004A
:1021E000C0087F07074383E58318934292415C440C
:1021F0005242A5182A0200D524E76F07DB081F43C7
:10220000ED080123D0E6C046FF070000FE070000EE
:10221000FFFF7FFF5B46D2085F0766461743DD0876
:1022200066E52500203BDD406346202B05D040239A
:1022300061465B1A9C402043804647467B1E9F4177
:102240002F43A0E520210027091AD2E4002F00D156
:1022500013E75C4617000025F6E5D7084907022377
:102260000F432D09A0E6070042E55B4601265F0704
:10227000DD086346D20817431E4039E55B46D208A5
:102280005F071743DD0833E51E4ADB082240570786
:10229000520201251F43140BC2E50E0001205FE628
:1022A000002B0DD04B465B1B9C46002D00D148E512
:1022B0000127382B00DD66E580231B041C4350E515
:1022C0006B1C114D2B4200D073E65946230011437D
:1022D0008A46034300E66707C00800230743E50872
:1022E00062E66407FF08274305095DE6D20849074F
:1022F00011430F0002232D0956E60700A4E538001C
:102300008FE4C046FFFF7FFFFE0700000B000200C6
:1023100070B5164D0C0382B0490000200092019365
:10232000240B490DDE0FA94204DD1148814203DD73
:10233000104BF01802B070BD8020400320430E4CBB
:10234000641A1F2C08DD0D4B5B1AD840030058425D
:10235000002EEFD11800EDE7094B009A9C460300D0
:1023600061448B40E2401343F1E7C046FE030000A6
:102370001D040000FFFFFF7F330400001304000072
:10238000EDFBFFFF10B5041E10D000F05DF80E4B02
:102390001B1A5B055B0D0A280FDC0B222100121AA9
:1023A000D14015300A038440120B01E000230022C3
:1023B0001B0513432000190010BD22000B3882407A
:1023C00012030024120BF3E71E04000084461000E1
:1023D00062468C461900634600E0C0461FB500F017
:1023E00005F9002801D40021C8421FBD10B500F036
:1023F00049F84042013010BD10B500F0F7F8002850
:1024000001DB002010BD012010BDC04610B500F05A
:10241000EDF8002801DD002010BD012010BDC046F0
:1024200010B500F073F8002801DC002010BD012079
:1024300010BDC04610B500F069F8002801DA002090
:1024400010BD012010BDC0461C2101231B04984271
:1024500001D3000C10391B0A984201D3000A083935
:102460001B09984201D30009043902A2105C4018EC
:102470007047C04604030202010101010000000090
:1024800000000000F0B55746DE464E464546E0B532
:102490000D000400E80F83460903D80F090B82469C
:1024A00019488C461F0369005E00490D3F0B760DED
:1024B000814218D086420FD00120B1420DD1BC45D7
:1024C0000BD1944209D1D3451CD0002905D16046D7
:1024D0002043431E984100E00120F0BCBB46B246B9
:1024E000A946A046F0BD01208E42F6D1614639438F
:1024F0000F0017432743F0D15B465246981A431EFC
:102500009841EAE70020E8E7FF070000F0B55746EA
:102510004E464546DE46E0B50D000E034900490D26
:102520008A46DF0FE90FBC4683B02F4F0400804678
:102530000191580019039146360B090B400DBA451D
:102540001DD0B8420DD05746002F2AD13443002861
:1025500024D10A4336D0002C41D1634658000138BB
:1025600015E0114338D15346002B01D12643F4D056
:10257000019B634507D1019B5800013807E02643C2
:102580002AD1504521D00120019B5F42384303B03E
:10259000F0BCBB46B246A946A046F0BD002CDCD03C
:1025A000E6E70028EFD0019B6345ECD18245EADCE9
:1025B000E1DB8E42E7D8DED1C845E4D80020C8452B
:1025C000E5D2D8E7002CE2D0DDE7114304D1019B2E
:1025D0006345D8D10020DAE702204042D7E7019BCB
:1025E0006345E6D0CFE7C046FF070000F0B5574689
:1025F0004E464546DE46E0B50D000E034900490D46
:102600008A46DF0FE90FBC4683B02E4F0400804698
:102610000191580019039146360B090B400DBA453C
:102620001ED0B8420DD05746002F27D13443002882
:1026300033D10A4334D0002C40D1634658000138CE
:1026400015E0114312D15346002B01D12643F4D09B
:10265000019B63451DD00120019B5F42384306E08A
:10266000264303D15045F6D111431CD0022003B0BC
:10267000F0BCBB46B246A946A046F0BD0028EAD051
:10268000019B6345E7D18245E5DC02DB8E42E2D85F
:102690000ED0019B58000138E9E7002CCDD0D7E7D8
:1026A000002CE4D0D7E7019B00206345DFD0D2E7C0
:1026B000C845D0D80020C845D9D2EAE7019B634578
:1026C000E4D0C8E7FF070000F0B5DE4657464E46A7
:1026D0004546E0B58BB01822002104A800F074FE36
:1026E000594B5A698021C9030A435A615A690A4001
:1026F0000392039A5A69802189020A435A615A69EE
:102700000A400292029A5A698021C9020A435A6118
:102710005B690B400193019B4C4D0126AE62022385
:102720009A46AB6202339946AB6204339846AB6279
:1027300008339B46AB621033AB624022AA62802111
:10274000A962049608969027FF0504A801003800A6
:1027500000F07DFA5046049000240594089604A8E1
:102760000100380000F073FA48460490059408967A
:1027700004A80100380000F06AFA4046049005946D
:10278000089604A80100380000F061FA0496059646
:1027900006940794089404A80100280000F057FA52
:1027A00050460490059606940794089404A80100E6
:1027B000280000F04CFA48460490059606940794C9
:1027C000089404A80100280000F041FA4046049053
:1027D000059606940794089404A80100280000F0C8
:1027E00036FA58460490059606940794089404A86F
:1027F0000100280000F02BFA20230493059606948C
:102800000794089404AB1900280000F020FA402235
:102810000492059606940794089404AB19002800C6
:1028200000F015FA80210491059606940794089407
:1028300004A9280000F00BFA0BB0F0BCBB46B2466E
:10284000A946A046F0BDC046001002400004004862
:10285000F0B583B0684800F032FB684B1C78802CE0
:102860000BD0012C11D0664B1B68012B15D0022B0D
:102870002DD0032B45D003B0F0BD624B1B78002B4D
:10288000EFD0604B00221A70EBE75E4B1B78002BF9
:10289000E9D15C4B01221A70E5E75A4B1B78002BFB
:1028A0000AD0594B1B781904584A9161234093610F
:1028B0006400524B1C70DEE7534B1B781904534ADB
:1028C0009161234093614D4B64081C70D3E74D4BDD
:1028D0001B78002B0AD04C4B1B7819044B4A916192
:1028E000A34393616400454B1C70C4E7464B1B78BF
:1028F0001904464A9161A3439361404B64081C70DC
:10290000B9E7002C1AD0424B1868FFF73BFD0022B4
:10291000404BFEF7F3FA06000F003F4B1868FFF735
:1029200031FD32003B00FEF701FE334D2E68FDF70E
:10293000EBFDF062E860002300253AE000F042FC85
:10294000C217120E8018FF2303409B1A334D2B70C1
:1029500000F038FC5021FDF751FD14310C002E4BD6
:1029600019602B4B1868FFF70DFD0022294BFEF76D
:10297000C5FA06000F002000FFF704FD32003B00FF
:10298000FEF7D4FD0022264BFEF7D0FD1A4C266838
:10299000FDF7BAFDF062E0602978184B19701A4B08
:1029A0001B781804194A90610B40936163E7013367
:1029B000DBB2072B08D822001A41D207F7D56A1CD0
:1029C00069464B55D5B2F2E700F0FCFB2900FDF754
:1029D00015FDFF230B406A46D25C01239340074953
:1029E0000A789A430A70084B1B78180407498861D3
:1029F00013408B613FE7C0469C00002099000020F7
:102A00000400002009000020080000200004004805
:102A10009000002000408F4094000020980000208B
:102A20000000244072B6FEE710B50C480C4B036062
:102A30000C4B4360002383600B4AC2600361436117
:102A40008033836100F032FB002804D1074B8022E1
:102A500092031A6010BDFFF7E5FFC0469C000020FE
:102A6000004401403F1F0000E703000000E100E0D8
:102A700010B51A4A136801218B431360174B1B686A
:102A8000DB07FBD4164A136801210B431360144B78
:102A90001B689B07FBD5124B1A68F8218A437839CB
:102AA0000A431A605A6870318A435A605A680D495D
:102AB0000A405A605A6803218A435A60084B5B688F
:102AC0000C221A42FAD1084800F04CFB032000F017
:102AD0001BF9002800D110BDFFF7A4FF0020024021
:102AE00000100240FFF8FFFF00127A0070B500F0FE
:102AF00033F9FFF7BDFFFFF7E7FDFFF795FF454C03
:102B0000200000F0A1F92368DA6A434B1A602EE036
:102B100040490B68DA6A5200DA62DB6A5B00CB601C
:102B20003E4BFE2292051A6090200221C00500F063
:102B300083F9002837D13A4B01221A60394B3A49C0
:102B400009781970394B1A70334B1868FEF790F9F1
:102B5000324B1968FDF7AEFD2E4C2568FDF7BCFC25
:102B6000E862E060324B1B781B04324A936190208C
:102B70000121C00500F060F90028D5D1274B186865
:102B8000FE218905FDF74CFC0028C1D021490B68C6
:102B9000DA6A5208DA62DB6A5B08CB601F4BFC2200
:102BA00092051A60C0E790200421C00500F044F9A6
:102BB00000281DD11A4B02221A601A4B1A4A1278A9
:102BC0001A701A4B01221A70134B1868FEF750F94D
:102BD000124B1968FDF76EFD0E4C2568FDF77CFC65
:102BE000E862E060124B1B781B04124A9361BEE757
:102BF00090200821C00500F01FF90028B7D1094B2B
:102C00000D4A12781A70064B03221A60074B023ADB
:102C10001A70ACE79C00002090000020000000200B
:102C200004000020990000200A0000200900002074
:102C300008000020000400489A000020FEE7FEE79C
:102C40007047704710B500F097F810BD7047F0B5A9
:102C5000002216E00B699C46C4682B006B435E00A3
:102C6000F618F743B44366465E433443C4604C6889
:102C7000022C26D04D6804683C406B43234303601C
:102C800001320C682300D3403BD001239340250040
:102C90001D401C42F4D04B68013B012BDAD88F68F1
:102CA00083682C006C4366003619B3437C4323438E
:102CB00083600E68CC684368B34374432343436026
:102CC000C8E7FF2D0DD84C69A446066A1C006C436A
:102CD0006C4325012D1BAE4365466C4334430462AF
:102CE000C8E74C69A446466A2D0A2C006C436C4325
:102CF0006C4325012D1BAE4365466C43344344624F
:102D0000B8E70020F0BD000010B504000F4B1978A3
:102D1000FA208000FDF702FA01000D4B1868FDF75C
:102D2000FDF900F085F800280DD1032C01D9012010
:102D30000AE0013000222100404200F075F8054B06
:102D40001C60002000E0012010BDC04610000020E3
:102D50000C0000201400002010B5064A1368102152
:102D60000B4313600320FFF7CFFF00F0CDF90020E5
:102D700010BDC04600200240034A1168034B1B7877
:102D80005B1813607047C046E4000020100000206C
:102D900070B5002811DB8308134DC0339B005C59CC
:102DA00003221040C000FC3216008640B443890163
:102DB0000A40824022435A5170BD0F230340083B12
:102DC0009B0806339B00094A944663445C680322CF
:102DD0001040C000FC3215008540AC4389010A4018
:102DE000824022435A60E7E700E100E000ED00E0A6
:102DF000013880235B0498420FD2094A5060094889
:102E0000036A1B021B0AC02109060B43036200234D
:102E1000936007331360002070470120FCE7C04631
:102E200010E000E000ED00E010B5FFF7B1FF10BDCD
:102E300010B5FFF7DDFF10BD03690B4201D0012083
:102E400070470020FCE700003D23C35C012B26D126
:102E50003C330222C2540268D36801210B43D36081
:102E60000368114A93420FD08022D20593420BD0BF
:102E70000E4A934208D00E4A934205D01A680121A7
:102E80000A431A6000200BE0996807220A40062ACC
:102E900007D01A6801210A431A60002000E00120CF
:102EA00070470020FCE7C046002C014000040040B1
:102EB000004001407047704770477047704770B5D9
:102EC00004000368DE681D69AA070ED5B2070CD599
:102ED000032252421A610123037703689B699B070F
:102EE00051D0FFF7E9FF002323776B0712D5730753
:102EF00010D52368052252421A61022323772368E2
:102F00009A69C0239B001A4243D02000FFF7D4FFE8
:102F1000002323772B0710D533070ED5236809220A
:102F200052421A61042323772368DB699B0737D059
:102F30002000FFF7C1FF00232377EB0612D5F3062D
:102F400010D52368112252421A610823237723687F
:102F5000DA69C0239B001A4229D02000FFF7ACFF9A
:102F600000232377EB0701D5F30727D42B0601D5E0
:102F700033062BD46B0601D573062FD4AD0601D5CD
:102F8000B60633D470BDFFF796FF2000FFF795FF1C
:102F9000A9E72000FFF78FFF2000FFF78EFFB7E7BC
:102FA0002000FFF788FF2000FFF787FFC3E720001E
:102FB000FFF781FF2000FFF780FFD1E7236802229F
:102FC00052421A612000FFF775FFCFE72368812284
:102FD00052421A61200000F096F8CBE723684122A4
:102FE00052421A612000FFF769FFC7E723682122D8
:102FF00052421A61200000F085F8C3E70368244AB2
:10300000904206D08022D205904202D0214A9042BE
:1030100003D1702293434A6813431D4A904212D051
:103020008022D20590420ED01A4A90420BD01A4A02
:10303000904208D0194A904205D0194A904202D0D5
:10304000184A904203D1184A1A40CB681343802291
:1030500093434A69134303608B68C3620B688362BE
:103060000B4B984208D00D4B984205D00C4B984220
:1030700002D00C4B984201D10B69036301234361D9
:103080000269134203D0036901229343036170472D
:10309000002C01400004004000200040004001409E
:1030A0000044014000480140FFFCFFFF70B5041ED2
:1030B00026D03D23C35C002B1CD03D250223635545
:1030C000210001C9FFF79AFF01234622A354083AC1
:1030D000A3540132A3540132A3540132A354013248
:1030E000A3540132A3540132A3540132A3546355B3
:1030F000002070BD3C330022C25400F01DF8DCE714
:103100000120F6E77047704782B00A4B99690122A7
:103110001143996199690A400092009ADA69802105
:1031200049050A43DA61DB690B400193019B02B058
:103130007047C0460010024082B00268074B9A42B6
:1031400001D002B07047064B9A69802189020A4378
:103150009A619B690B400193019BF2E70044014097
:1031600000100240014B18607047C0460C00002060
:103170000D488546FFF76AFD0C480D490D4A0023AE
:1031800002E0D458C4500433C4188C42F9D30A4A1C
:103190000A4C002301E013600432A242FBD300F08A
:1031A0001BF9FFF7A3FCFEE7002000200000002031
:1031B00074000020C843000874000020380200207A
:1031C000FEE70000164B10B51C68236B002B16D1D0
:1031D000182000F047F9021E206304D15221114B40
:1031E000114800F021F9114B00210360104B43609E
:1031F000104B83600B238381012010615161246B8C
:103200000D4A206961690D4BFDF738F90122002351
:1032100080185941206161614800400810BDC046D6
:1032200024000020E0420008F74200080E33CDAB36
:1032300034126DE6ECDE05002D7F954C2DF45158CF
:10324000002310B5040003604360836081814366FE
:10325000C281036143618361190008225C3000F080
:10326000B3F80B4B246263620A4BA3620A4BE3621E
:103270000A4B23630A4B9C4205D00A4B9C4202D066
:10328000094B9C4203D12000583000F0C9F810BD12
:103290004137000869370008A1370008CD3700081A
:1032A000E800002050010020B801002010B5034ABA
:1032B0000349044800F06CF810BDC0461800002017
:1032C000C93600082800002041680B4B10B50400E7
:1032D000994201D000F0F8F9A168084B994202D058
:1032E000200000F0F1F9E168054B994202D020007E
:1032F00000F0EAF910BDC046E800002050010020AF
:10330000B801002010B5094B094A04211A60094888
:103310000022FFF795FF012209210748FFF790FFE0
:10332000022212210548FFF78BFF10BD200200206A
:10333000AD320008E800002050010020B801002054
:1033400010B5024800F06DF810BDC04625020020FF
:1033500010B5024800F066F810BDC04625020020F6
:1033600010B50400FFF7ECFF236A002B02D0FFF733
:10337000EFFF10BD044B2362044B1B68002BF6D1FA
:10338000FFF7C0FFF3E7C046C93200082002002063
:10339000F7B51400002600900191A5686768013F09
:1033A00004D52468002CF8D13000FEBDAB89012B78
:1033B00008D90E22AB5E013304D029000098019B8E
:1033C000984706436835EAE703008218934200D124
:1033D000704719700133F9E770B500260C4C0D4D9C
:1033E000641BA410A64209D1002600F04DFF0A4C30
:1033F0000A4D641BA410A64205D170BDB300EB5862
:1034000098470136EEE7B300EB5898470136F2E7EC
:10341000C0430008C0430008C4430008C04300087C
:1034200070477047704700007FB514001A00094BC1
:1034300005001B680E00D868074B002C01D1074B14
:103440001C000749019302942B00009600F0C4F978
:1034500000F032FA240000204F4300088A4300089D
:103460005C43000810B5034B0100186800F026F813
:1034700010BDC0462400002070B50F4E0D0031680D
:103480000400002902D100F0DFF93060290020009B
:1034900000F0DAF9431C03D101256D42280070BD0C
:1034A0000323C51C9D43A842F8D0291A200000F030
:1034B000CBF90130F2D1EFE728020020F7B5032263
:1034C000CB1C9343083305001F000C2B34D20C2770
:1034D000B94233D8280000F023F9374E33681C0076
:1034E000002C2FD139002800FFF7C6FF0400431C31
:1034F0005FD134680094009B002B4AD1002C52D03D
:1035000023682800E3180099019300F09DF9019BBE
:10351000834248D123682800FF1A3900FFF7ACFF27
:10352000013040D02368DB19236033685A68002AD1
:1035300033D1009B336019E0002BC9DA0C232B60D8
:103540000020FEBD2168C91B20D40B290AD9E2192D
:103550002760A34204D1326063681160536005E0C4
:103560005A60F9E76268A3420ED13260280000F089
:10357000DFF8200007220B30231D9043C21A984227
:10358000DFD01B1AA350DCE75A60EFE72300646822
:10359000A6E7009C63680093ADE71A005B68A3424E
:1035A000FBD10023DAE70C2328002B6000F0C0F8E1
:1035B000C6E70760DAE7C0462C020020F7B50C2208
:1035C0008B5E05000C001A0756D44A68002A02DCFC
:1035D0000A6C002A4EDDE76A002F4BD000228020C3
:1035E0002E682A601A004001216A0240034233D04B
:1035F000626DA3895B0706D56368D21A636B002BE3
:1036000001D0236CD21A00232800E76A216AB84748
:10361000A289431C06D129681D2946D8294BCB40D5
:10362000DB0742D50023636023692360D20405D5FC
:10363000431C02D12B68002B00D16065616B2E60AA
:10364000002917D023004433994202D0280000F00B
:103650003BF9002363630DE001232800B847020013
:10366000431CC6D12B68002BC3D01D2B01D0162BB9
:103670001AD12E6000201EE00E69002EFAD00F68CD
:103680000E60BA1B019200229B0700D14A69A2601A
:10369000019B002BEEDDA36A32001F002800019B76
:1036A000216AB847002807DCA28940230120134380
:1036B0001BB2A3814042FEBD019B36181B1A019329
:1036C000E6E7C046010040200B6970B505000C001C
:1036D000002B02D10025280070BD002804D0036A09
:1036E000002B01D1FFF73CFE0C22A35E002BF1D092
:1036F000626ED20704D49B0502D4A06DFFF791FE41
:1037000028002100FFF75AFF636E0500DB07E2D4B3
:10371000A3899B05DFD4A06DFFF784FEDBE70000E3
:1037200010B50248FFF77DFE10BDC0462402002000
:1037300010B50248FFF776FE10BDC04624020020F7
:1037400070B50C000E25495F00F06AF8002803DB15
:10375000636D1B18636570BDA389024A1340A38182
:10376000F9E7C046FFEFFFFFF8B51F008B890500A2
:103770000C001600DB0505D50E23C95E00220223CE
:1037800000F03AF8A389054A28001340A3813200CB
:103790000E23E15E3B0000F069F8F8BDFFEFFFFF8C
:1037A00070B50C000E25495F00F026F8A389421C75
:1037B00003D1054A1340A38170BD802252011343F7
:1037C000A3816065F8E7C046FFEFFFFF10B50E2349
:1037D000C95E00F05FF810BD0EB417B5054C05AB1F
:1037E00004CB01002068019300F0E0F81EBC08BC87
:1037F00003B018472400002070B504000800110031
:103800001A000023054D2B6000F014FD431C03D16A
:103810002B68002B00D0236070BDC0463002002012
:1038200070B50400080011001A000023054D2B603C
:1038300000F008FD431C03D12B68002B00D023604F
:1038400070BDC04630020020002370B5064D040054
:1038500008002B6000F0FEFC431C03D12B68002BFA
:1038600000D0236070BDC0463002002070B5040057
:10387000080011001A000023054D2B6000F0FAFC2F
:10388000431C03D12B68002B00D0236070BDC046C1
:1038900030020020002370B5064D040008002B60A4
:1038A00000F0A0FC431C03D12B68002B00D0236048
:1038B00070BDC04630020020062010B500F042FC6A
:1038C000012000F0DFFC000070B505000C1E10D0D8
:1038D000043C2368002B00DAE4182800FFF720FFDF
:1038E0001D4A1368002B05D1636014602800FFF7A0
:1038F0001FFF70BDA34208D9206821188B42F3D165
:1039000019685B6809182160EEE71A005B68002BF4
:1039100001D0A342F9D911685018A0420BD12068F8
:103920000918501811608342E0D118685B6841188B
:1039300011605360DAE7A04202D90C232B60D5E76F
:10394000206821188B4203D119685B68091821602F
:1039500063605460CAE7C0462C020020936810B52B
:10396000013B9360002B04DA9469A34207DB0A2928
:1039700005D01368581C10601970080010BD00F0C5
:10398000ADFA0100F9E7F8B506000F001400D518EC
:10399000AC4201D1002007E021783A003000FFF767
:1039A000DDFF0134431CF3D1F8BD0000F0B5A1B038
:1039B0000F0015001E000390002804D0036A002B9E
:1039C00001D1FFF7CDFC7B6EDB0705D4BB899B05DE
:1039D00002D4B86DFFF725FDBB891B0702D53B69F3
:1039E000002B13D13900039800F0BAFA00280DD04B
:1039F0007B6EDB0703D50120404221B0F0BDBB89BF
:103A00009B05F8D4B86DFFF70DFDF4E7002308AC73
:103A10006361203363761033A37607962E003378E4
:103A2000002B01D0252B48D1731B0593AE420BD040
:103A30002A0039000398FFF7A6FF013000D1AEE05D
:103A40006369059A9B1863613378002B00D1A6E067
:103A5000012200235242626004A954325218751C9C
:103A60002360E360A3601370A365594B052218001F
:103A70002978059300F0AAFB6E1C00281FD122684C
:103A8000D30604D5532304A95B182021197013070A
:103A900004D5532304A95B182B2119702B782A2BEA
:103AA00016D02E0000210A20E3683278751C303AC7
:103AB000092A50D9002911D117E00136AFE7059B3B
:103AC0002268C01A01238340134335002360CCE7EA
:103AD000079B191D1B680791002B01DB0B9304E06A
:103AE0005B42E36002231343236033782E2B0CD117
:103AF00073782A2B34D1079B02361A1D1B68079254
:103B0000002B01DA01235B420993324D0322280086
:103B1000317800F05BFB002806D04023401B834037
:103B20002268013613432360317806222A48751C27
:103B3000217600F04BFB002840D0284B002B22D1EF
:103B40000722079B07339343083307936369049A5B
:103B50009B18636162E743432E0001219B18A4E791
:103B600000230A201900013663603278751C303A50
:103B7000092A03D9002BC8D00991C6E741432E007A
:103B800001238918F1E707AA009221003A00144B9B
:103B9000039800E000BF0490049B0133D6D17B6EF4
:103BA000DB0705D4BB899B0502D4B86DFFF73AFC4F
:103BB000BB895B0600D51EE70D981EE707AA009299
:103BC00021003A00064B039800F07CF8E3E7C0467A
:103BD0008B43000891430008954300080000000053
:103BE00087390008F7B5160001938A680B690C0045
:103BF0000090934200DA13002200336043321278BF
:103C0000002A01D00133336023689B0602D5336854
:103C1000023333602268062315001D401A4227D064
:103C2000230043331B785A1E93412268920630D4F6
:103C3000220001990098089D4332A847013025D001
:103C40000622236800251340042B05D13368E5685C
:103C5000ED1AEB43DB171D40A3682269934201DD97
:103C60009B1AED180026B54220D1002010E0013546
:103C7000E36832689B1AAB42D2DD2200012301992E
:103C80000098089F1932B8470130F0D10120404216
:103C9000FEBD3020E1184331087021005A1C453127
:103CA0000978A218433202331170C1E722000123C0
:103CB00001990098089F1A32B8470130E6D00136C2
:103CC000D1E70000F0B58BB006920A0043320793AB
:103CD000059003920A7E0C00109B782A09D8622A6C
:103CE0000BD8002A00D1BAE07A490491582A00D1B1
:103CF0008EE0250042352A7022E010006338152836
:103D0000F7D8FCF701FA16001F00F6FFF6FFF6FFE2
:103D1000F6FF1F00F6FFF6FFF6FFF6FF9F003600E6
:103D20007E00F6FFF6FFB000F6FF3600F6FFF6FF66
:103D3000820025001A684235111D196013682B7026
:103D400001239EE018680968021D0D060BD5066860
:103D50001A60002E03DA2D23039A764213705D4B0E
:103D60000A27049318E006681A604906F1D536B2AE
:103D7000EFE70868196840C9050602D4400600D577
:103D8000B6B21960534B0A2704936F2A00D1023F41
:103D90002300002243331A706368A360002B06DB04
:103DA00004212268039D8A43226033430CD0039D83
:103DB00030003900FCF738FA049B013D5B5C2B7046
:103DC000330006009F42F3D9082F09D12368DB078F
:103DD00006D5626823699A4202DC3023013D2B70CC
:103DE000039B5B1B2361079B210000930598069BA7
:103DF00009AAFFF7F7FE013048D1012040420BB07D
:103E0000F0BD202209680A432260782232490491D9
:103E1000210045310A701968226840C9100602D491
:103E2000500600D5B6B21960D30702D5202313433C
:103E30002360002E01D01027AAE720222368934395
:103E40002360F8E71A680D68101D49691860136847
:103E50002E0601D5196002E06D06FBD519800023FE
:103E6000039D2361BFE71A68111D196015680021C1
:103E70002800626800F0AAF9002801D0401B6060A9
:103E8000636823610023039A1370ACE72A00236957
:103E900006990598079DA8470130AED023689B0777
:103EA00015D4099BE0689842A9DA1800A7E7220018
:103EB000012306990598079E1932B04701309CD01E
:103EC0000135E368099A9B1AAB42F0DCE9E700256B
:103ED000F7E7C0469C430008AD430008F8B506006C
:103EE0000D001400002804D0036A002B01D1FFF755
:103EF00037FAA369A360A3891B0702D52369002BA6
:103F000009D12100300000F02BF8002803D0012552
:103F10006D422800F8BD23692068EFB2C01A6369BA
:103F2000EDB2834205DC21003000FFF7CDFB002815
:103F3000EDD1A3680130013BA36023685A1C2260C5
:103F40001F706369834204D0A389DB07E1D50A2D82
:103F5000DFD121003000FFF7B7FB0028D9D0D6E72A
:103F60002D4B70B5050018680C00002804D0036ABA
:103F7000002B01D1FFF7F4F90C22A35E1A0723D41A
:103F8000DA0607D409222A60402201201343A381C4
:103F900040423AE05B0713D5616B002908D023004B
:103FA0004433994202D02800FFF78EFC002363635C
:103FB0002422A3899343A3810023636023692360A0
:103FC0000823A2891343A3812369002B0BD1A021CD
:103FD0008022A389890092000B40934203D02100E4
:103FE000280000F045F80C22A35E01211A000A40C7
:103FF0000B420BD00022A26062695242A2610020F3
:104000002269824201D11A06BED470BD990700D43C
:104010006269A260F3E7C0462400002070B50E007C
:104020001D000E23C95E140096B000290CDAB28977
:104030008023110019401A4214D18023DB00002094
:104040002960236016B070BD6A4600F0ADF8002804
:10405000EDDBF02301991B021940044BC9184B42B8
:104060005941EAE700214023E9E7C04600E0FFFFAD
:10407000F0B502268B8905000C0085B0334207D0CD
:1040800023004733236023610123636105B0F0BD42
:1040900003AB02AAFFF7C2FF029F0190390028007C
:1040A000FFF70CFA002808D10C22A35E9A05EDD484
:1040B000032293431E43A681E2E78023A289206066
:1040C0001343A381039B20616761002B0CD0280060
:1040D0000E23E15E00F040F8002805D00323A289FA
:1040E0009A43023B1343A381A389019A1343A381FB
:1040F000CCE770B504000D001F2904D91623036016
:104100000120404270BDC36B002B04D08A009B1875
:104110001A68002A08D1200000F042F82A000100A5
:10412000200000F02BF8EDE7012A09D0511C03D143
:10413000162303600120E5E700212800196090475D
:104140000020DFE710B5034B01001868FFF7D1FF2F
:1041500010BDC04624000020002370B5064D0400A9
:1041600008002B6000F056F8431C03D12B68002B8D
:1041700000D0236070BDC04630020020002370B51F
:10418000064D0400080011002B6000F04BF8431CA2
:1041900003D12B68002B00D0236070BD30020020BB
:1041A00010B500F02FF810BD002370B5064D0400C7
:1041B000080011002B6000F01DF8431C03D12B6890
:1041C000002B00D0236070BD30020020C9B28218DD
:1041D000904201D10020704703788B42FBD0013020
:1041E000F6E7000058220120014B40421A60704758
:1041F0003002002058220120014B40421A607047D3
:104200003002002058220120014B40421A607047C2
:10421000300200205822024B00201A607047C0462E
:104220003002002058220120014B40421A607047A2
:104230003002002058220120014B40421A60704792
:104240003002002058220120014B40421A60704782
:1042500030020020054A03001168002901D10449F9
:1042600011601068C31813607047C0463402002004
:104270003802002058220120014B40421A6070474A
:1042800030020020FEE70000F8B5C046F8BC08BCCC
:104290009E467047F8B5C046F8BC08BC9E467047BD
:1042A00030110008EE0F0008CC0F0008B80F00080E
:1042B000CC0F0008D2100008CC0F0008B80F00087F
:1042C000EE0F0008EE0F0008D2100008B80F00082B
:1042D000B00F0008B00F0008B00F0008F41000087D
:1042E0005245454E54206D616C6C6F63207375634D
:1042F000636565646564002F6275696C642F676E21
:10430000752D746F6F6C732D666F722D73746D33B2
:10431000325F31332E332E72656C312E32303234AF
:10432000303932362D313731352F7372632F6E6548
:10433000776C69622F6E65776C69622F6C69626356
:104340002F7374646C69622F72616E642E63002C2B
:104350002066756E6374696F6E3A200061737365D1
:104360007274696F6E2022257322206661696C6504
:10437000643A2066696C6520222573222C206C69C2
:104380006E65202564257325730A00232D302B20AC
:1043900000686C4C00656667454647003031323333
:1043A000343536373839414243444546003031329E
:1043B000333435363738396162636465660000002E
:0443C000E900000808
:0443C400C10000082C
:1043C8000000803F01000000FF01010000127A0098
:1043D80001000000040000000000000003000000CD
:1043E800E80000202800002000000000E80000206D
:1043F80050010020B801002000000000000000006B
:1044080000000000000000000000000000000000A4
:104418000000000000000000000000000000000094
:104428000000000000000000000000000000000084
:044438000000000080
:04000005080031714D
:00000001FF
