:020000040800F2
:1000000000200020E9140008110800081308000867
:1000100000000000000000000000000000000000E0
:1000200000000000000000000000000015080008AB
:100030000000000000000000170800081908000870
:100040003915000839150008391500083915000858
:100050003915000839150008391500083915000848
:100060003915000839150008391500083915000838
:100070003915000839150008391500083915000828
:10008000391500083915000800000000391500086E
:100090003915000839150008391500083915000808
:1000A00039150008391500083915000839150008F8
:1000B0003915000800000000391500080000000094
:1000C00010B5064C2378002B07D1054B002B02D02E
:1000D000044800E000BF0123237010BD2800002069
:1000E0000000000094150008044B10B5002B03D04D
:1000F0000349044800E000BF10BDC04600000000F6
:100100002C00002094150008002243088B4274D371
:1001100003098B425FD3030A8B4244D3030B8B4208
:1001200028D3030C8B420DD3FF22090212BA030C11
:100130008B4202D31212090265D0030B8B4219D3F2
:1001400000E0090AC30B8B4201D3CB03C01A524112
:10015000830B8B4201D38B03C01A5241430B8B425A
:1001600001D34B03C01A5241030B8B4201D30B0343
:10017000C01A5241C30A8B4201D3CB02C01A52416A
:10018000830A8B4201D38B02C01A5241430A8B422D
:1001900001D34B02C01A5241030A8B4201D30B0216
:1001A000C01A5241CDD2C3098B4201D3CB01C01A30
:1001B000524183098B4201D38B01C01A524143093A
:1001C0008B4201D34B01C01A524103098B4201D328
:1001D0000B01C01A5241C3088B4201D3CB00C01A95
:1001E000524183088B4201D38B00C01A524143080D
:1001F0008B4201D34B00C01A5241411A00D2014632
:10020000524110467047FFE701B5002000F0F0F8BA
:1002100002BDC0460029F7D076E7704703460B437E
:100220007FD4002243088B4274D303098B425FD3EF
:10023000030A8B4244D3030B8B4228D3030C8B421B
:100240000DD3FF22090212BA030C8B4202D3121201
:10025000090265D0030B8B4219D300E0090AC30BD6
:100260008B4201D3CB03C01A5241830B8B4201D383
:100270008B03C01A5241430B8B4201D34B03C01A6C
:100280005241030B8B4201D30B03C01A5241C30AE4
:100290008B4201D3CB02C01A5241830A8B4201D355
:1002A0008B02C01A5241430A8B4201D34B02C01A3F
:1002B0005241030A8B4201D30B02C01A5241CDD2E4
:1002C000C3098B4201D3CB01C01A524183098B422F
:1002D00001D38B01C01A524143098B4201D34B0118
:1002E000C01A524103098B4201D30B01C01A52417B
:1002F000C3088B4201D3CB00C01A524183088B4202
:1003000001D38B00C01A524143088B4201D34B00EA
:10031000C01A5241411A00D201465241104670475C
:100320005DE0CA0F00D04942031000D34042534061
:1003300000229C4603098B422DD3030A8B4212D321
:10034000FC22890112BA030A8B420CD38901921153
:100350008B4208D3890192118B4204D389013AD090
:10036000921100E08909C3098B4201D3CB01C01A65
:10037000524183098B4201D38B01C01A5241430978
:100380008B4201D34B01C01A524103098B4201D366
:100390000B01C01A5241C3088B4201D3CB00C01AD3
:1003A000524183088B4201D38B00C01A5241D9D2EB
:1003B00043088B4201D34B00C01A5241411A00D26C
:1003C0000146634652415B10104601D34042002B68
:1003D00000D54942704763465B1000D3404201B5E7
:1003E000002000F005F802BD0029F8D016E770479C
:1003F0007047C04610B588B01422002103A801F050
:100400009CF8174B5A698021C9030A435A615A69FB
:100410000A400092009A5A698021C9020A435A612F
:100420005A690A400192019A5A69802189020A4355
:100430005A615B690B400293029B0A4C0022FF2128
:10044000200000F063FBFF230393FE3B0493002393
:100450000593069303A9200000F094FA08B010BD9C
:100460000010024000040048F0B5DE4657464E46F4
:100470004546E0B589B00390079101920023984664
:100480000023002404930594434606935CE0374917
:10049000FFF7C4FE804635495046FFF7BFFE43468E
:1004A0001B1A98466C4360003049FFF7B7FE48447A
:1004B000050044465C4401220023B6185F41019BBD
:1004C0001A00DB17BB4237D9200060432B006B4377
:1004D0009A46C218264B9A42D9DD049B059C9B196B
:1004E0007C4104930594029B01330293039B013BDF
:1004F000029A934225D31D4C029860430399FFF75B
:1005000003FE1C4B58432100FFF7FEFD1A4B9B4690
:100510008344069860430799FFF7F6FD174B58434D
:100520002100FFF7F1FD164B9A4682440026002772
:1005300000250024D146C2E7BB42CED1B242C3D887
:10054000CBE7069B01330693079B013B069A934238
:1005500002D300230293C9E70498059909B0F0BCBF
:10056000BB46B246A946A046F0BDC04610270000D3
:100570000084D717B8880000589EFFFF204E000067
:10058000F0D8FFFF72B6FEE700B587B01022002159
:1005900002A800F0D2FF08220021684600F0CDFF3B
:1005A00014488023DB05036000234360836002223C
:1005B0005242C2600361836100F064FB002813D1E2
:1005C00080235B0102930B4802A900F093FB0028F3
:1005D0000CD10023009301930648694600F00EFCFD
:1005E000002805D107B000BDFFF7CCFFFFF7CAFF19
:1005F000FFF7C8FFD800002000B587B01022002107
:1006000002A800F09AFF08220021684600F095FF3A
:100610001448154B0360002343608360134AC26093
:1006200003614361836100F02DFB002813D1802317
:100630005B0102930B4802A900F05CFB00280CD17F
:100640000023009301930748694600F0D7FB002878
:1006500005D107B000BDFFF795FFFFF793FFFFF748
:1006600091FFC04620010020002C0140FFFF000048
:1006700000B591B03022002104A800F05EFF1022E6
:100680000021684600F059FF0223049301220792DB
:100690000F3208920C93A0239B030E9304A800F042
:1006A000E3FB00280ED107230093053B01930023B1
:1006B000029303930121684600F04EFE002803D107
:1006C00011B000BDFFF75EFFFFF75CFFF8B5DE4637
:1006D00057464E464546E0B500F0CCF8FFF7C8FF58
:1006E000FFF788FEFFF750FFFFF786FF3C4800F05A
:1006F00041FA012201213B4800F008FA00261DE0E2
:1007000020002900801A9941374BF2009B1818608D
:100710005960344F01220221380000F0F7F9FA2025
:10072000C00000F0C9F800220121380000F0EEF905
:1007300000220221380000F0E9F901362B4B1B683A
:10074000B3424BDD2A4BB2009146D75800F0AEF8C9
:10075000284B9A461860224B9B461B685B6A264AC8
:100760009046136000235360642239003800FFF77D
:100770007BFE224BF2009B181860596000F096F83F
:100780001F4B18605B461B685B6A1C0000251D4BF5
:100790001C605D6053461968411A1B4B4A46D15094
:1007A00038007843FFF7B0FC184B4A469850434650
:1007B0001A685B68002B03D1AB42A1D1A2429FD93A
:1007C00020002900801A99410022012380185941F4
:1007D000054BF2009B18186059609AE7FEE7C04687
:1007E000D80000200004004858000020000000202D
:1007F00004000020D4000020C80000209800002041
:10080000D0000020C0000020800000204400002014
:10081000FEE7FEE77047704710B500F03BF810BDEB
:100820007047000010B504000F4B1978FA208000C3
:10083000FFF76AFC01000D4B1868FFF765FC00F03C
:100840009DF800280DD1032C01D901200AE00130C8
:1008500000222100404200F08DF8054B1C60002072
:1008600000E0012010BDC0461C0000201800002040
:100870002000002010B5064A136810210B431360B6
:100880000320FFF7CFFF00F001FE002010BDC0469F
:1008900000200240034A1168034B1B785B18136069
:1008A0007047C046680100201C000020014B1868FA
:1008B0007047C0466801002070B50400FFF7F6FFDE
:1008C0000500631C02D0044B1B78E418FFF7EEFF11
:1008D000401BA042FAD370BD1C00002070B5002858
:1008E00011DB8308134DC0339B005C590322104079
:1008F000C000FC3216008640B44389010A408240A1
:1009000022435A5170BD0F230340083B9B08063316
:100910009B00094A944663445C6803221040C0006F
:10092000FC3215008540AC4389010A4082402243D5
:100930005A60E7E700E100E000ED00E001388023C5
:100940005B0498420FD2094A50600948036A1B02AF
:100950001B0AC02109060B4303620023936007337F
:100960001360002070470120FCE7C04610E000E063
:1009700000ED00E010B5FFF7B1FF10BD10B5FFF7B7
:10098000DDFF10BDF0B583B0002356E086685F0040
:100990000324BC40A643CC68BC4034438460446814
:1009A00094434E683609012232409A402243426005
:1009B00053E0DE080836B600375805321A40920078
:1009C0000F249440A7430C69944022003A433250CC
:1009D00056E0032600E00026A64034003C430232E5
:1009E0009200444E9451444A9768EA433E00AE4315
:1009F0004C68E40201D53E002E433F4CA660E768F8
:100A00003E0016404C68A40201D53E002E433A4CED
:100A1000E66067683E0016404C68A40301D53E00BE
:100A20002E43354C6660266832404C68E40301D59D
:100A30002A003243304C226001330C682200DA4035
:100A400056D001229A40250015401442F4D04E6839
:100A500003243440013C012C98D94C6803222240E5
:100A6000032A08D0C4685E000322B24094438A6817
:100A7000B2402243C2604C6803222240022A98D02E
:100A800004685E0003221700B740BC434F683A4039
:100A9000B240224302604C68C02292021442CBD082
:100AA000164CA66901221643A661A4692240019250
:100AB000019A9A08941CA4000E4EA75903241C40C6
:100AC000A4000F26A640B7439026F605B04282D078
:100AD0000B4EB04208D00B4EB04207D00A4EB04287
:100AE00000D176E7052677E7012675E7022673E74A
:100AF00003B0F0BD000001400004014000100240BE
:100B00000004004800080048000C0048002A01D0FA
:100B1000816170478162FCE730B5036A046A012590
:100B2000AC4304628469EF35AC43120122430A24CA
:100B3000A3430B438261036230BD000030B5036AFA
:100B4000046A1025AC4304628469054D2C401203ED
:100B50002243A024A343090119438261016230BDED
:100B6000FF0FFFFF8368702293430B43693A1343DF
:100B7000836070473D23C35C012B21D13C330222AB
:100B8000C2540368104A93420FD08022D205934288
:100B90000BD00E4A934208D00D4A934205D01A68F2
:100BA00001210A431A6000200BE0996807220A40DD
:100BB000062A07D01A6801210A431A60002000E0C3
:100BC000012070470020FCE7002C01400004004099
:100BD000004001400368244A904206D08022D2059A
:100BE000904202D0214A904203D1702293434A6836
:100BF00013431D4A904212D08022D20590420ED05B
:100C00001A4A90420BD01A4A904208D0194A904290
:100C100005D0194A904202D0184A904203D1184A8E
:100C20001A40CB681343802293434A6913430360FD
:100C30008B68C3620B6883620B4B984208D00D4BE4
:100C4000984205D00C4B984202D00C4B984201D1EF
:100C50000B690363012343610269134203D00369F3
:100C60000122934303617047002C014000040040BF
:100C70000020004000400140004401400048014085
:100C8000FFFCFFFF70B5041E26D03D23C35C002B84
:100C90001CD03D2502236355210001C9FFF79AFFAF
:100CA00001234622A354083AA3540132A35401322B
:100CB000A3540132A3540132A3540132A35401328C
:100CC000A3540132A3546355002070BD3C3300226D
:100CD000C25400F0F3FBDCE70120F6E730B584688E
:100CE000034D2C401B0213430B432343836030BD51
:100CF000FF00FFFF10B504000B003C22825C012ABC
:100D000000D177E03C22012181540132013181542C
:100D100001688A68384802408A60196860294FD0A3
:100D200023D8402957D011D8202904D00AD8002927
:100D300001D0102904D12068FFF714FF00202AE019
:100D4000012028E03029F6D0012024E050290AD1E2
:100D50005968DA682068FFF7DFFE20685021FFF746
:100D600001FF002017E0012015E08022520191428E
:100D70003CD080229201914214D0702938D19968D8
:100D80005A68DB682068FFF7A9FF2268936877211B
:100D90000B43936000203D230122E254013B0022DB
:100DA000E25410BD99685A68DB682068FFF796FF27
:100DB000226891688023DB010B4393600020EAE7FF
:100DC0005968DA682068FFF7B9FE20686021FFF7EC
:100DD000C9FE0020DFE75968DA682068FFF79CFE4B
:100DE00020684021FFF7BEFE0020D4E70020D2E7B4
:100DF0000120D0E70220D4E78800FFFF30B53C2374
:100E0000C35C012B28D03C230122C25401330132A0
:100E1000C25403685C689D686E3294430A6822433A
:100E20005A6003680D4A934209D08022D20593424A
:100E300005D00B4A934202D00A4A934204D1802241
:100E400095434A682A439A603D230122C254013BDC
:100E50000022C254002030BD0220FCE7002C0140DB
:100E6000000400400040014070B582B0041E00D173
:100E70002EE20368DB0726D5AE4B5A680C231340DD
:100E8000042B18D0AB4B5A680C231340082B0ED000
:100E90006368012B3CD0002B51D1A64B1A68A649A0
:100EA0000A401A601A68A5490A401A6036E0A14B48
:100EB0005B68DB03ECD59F4B1B689B0303D5636822
:100EC000002B00D107E223689B0772D5994B5B6822
:100ED0000C221A425DD0974B5A680C231340082B02
:100EE00053D0E368002B00D185E0924A13680121BA
:100EF0000B431360FFF7DAFC05008E4B1B689B0762
:100F000070D4FFF7D3FC401B0228F6D90320E0E1A0
:100F1000884A116880235B020B4313606368002BCF
:100F200025D0FFF7C3FC0500824B1B689B03CAD486
:100F3000FFF7BCFC401B6428F6D90320C9E1052B50
:100F400009D07C4B1A687C490A401A601A687B49B0
:100F50000A401A60E2E7774B19688022D2020A43FE
:100F60001A601968802252020A431A60D6E7FFF716
:100F70009DFC05006F4B1B689B03A4D5FFF796FCF7
:100F8000401B6428F6D90320A3E16A4B5B68DB03AE
:100F9000A7D4684B1B689B0703D5E368012B00D0DF
:100FA0009BE164490B68F82293432269D200134302
:100FB0000B6023681B0744D5E369002B2ED05D4AE4
:100FC000536A01210B435362FFF770FC0500594B34
:100FD0005B6A9B0735D4FFF769FC401B0228F6D9F2
:100FE000032076E153490B68F82293432269D2002B
:100FF00013430B60DDE74F4A136801218B431360F5
:10100000FFF754FC05004B4B1B689B07D1D5FFF73E
:101010004DFC401B0228F6D903205AE1454A536A89
:1010200001218B435362FFF741FC0500414B5B6A92
:101030009B0706D5FFF73AFC401B0228F6D9032090
:1010400047E123685B0700D480E03A4BDB69DB00B3
:101050001DD4384BDA69802149050A43DA61DB691E
:101060000B400193019B0125354B1B68DB0510D517
:10107000A368012B21D0002B36D12E4B1A6A0121F7
:101080008A431A621A6A03318A431A621AE00025F7
:10109000EAE72B4A116880235B000B431360FFF7DC
:1010A00005FC0600264B1B68DB05E1D4FFF7FEFBC1
:1010B000801B6428F6D903200BE11E4A136A012124
:1010C0000B431362A368002B24D0FFF7EFFB06004D
:1010D000184B1B6A9B0737D4FFF7E8FB801B194BA3
:1010E0009842F5D90320F4E0052B09D0114B1A6A78
:1010F00001218A431A621A6A03318A431A62E1E7BC
:101100000C4B1A6A04210A431A621A6A03390A4309
:101110001A62D7E7FFF7CAFB0600064B1B6A9B075C
:1011200012D5FFF7C3FB801B064B9842F5D903206D
:10113000CFE0C04600100240FFFFFEFFFFFFFBFFB5
:101140000070004088130000012D33D02368DB06B7
:1011500010D56369012B33D0053351D1654A536BE8
:1011600004218B435363536BF4318B43A169C90052
:101170000B435363236A002B00D1B0E05D4A5168F2
:101180000C220A40082A00D18AE0022B4FD0594A8B
:10119000136859490B401360FFF788FB0400554B57
:1011A0001B689B017AD5FFF781FB001B0228F6D94B
:1011B00003208EE04F4AD36950490B40D361C5E705
:1011C0004C4B5A6B04210A435A635A6B03390A4346
:1011D0005A63FFF76BFB0500464B5B6B9B0706D41E
:1011E000FFF764FB401B0228F6D9032071E0414958
:1011F0004B6BF8229343A269D20013434B63B9E7C8
:101200003C4B5A6B04210A435A635A6B03398A4395
:101210005A63FFF74BFB0500364B5B6B9B07A9D569
:10122000FFF744FB401B0228F6D9032051E0314A66
:10123000136831490B401360FFF738FB05002D4B55
:101240001B689B0106D5FFF731FB401B0228F6D92E
:1012500003203EE0274BDA6A0F218A43E16A0A4302
:10126000DA625A6826490A40A16A606A01430A4361
:101270005A601968802252040A431A60FFF716FB6D
:1012800004001C4B1B689B0106D4FFF70FFB001BDF
:101290000228F6D903201CE000201AE0002018E004
:1012A000012B1ED0134B5A68D86A80235B0213406F
:1012B000616A8B4217D10F230340E16A8B4214D13C
:1012C000F0239B031A40A36A9A4210D1002000E049
:1012D000012002B070BD0120FBE70120F9E70020EA
:1012E000F7E70120F5E70120F3E70120F1E701200E
:1012F000EFE7C04600100240FFFFFFFEFFFFFFEFD9
:10130000FFFFC2FF10B5104B5A680C231340082B87
:1013100001D00E4810BD910C073319400C48445CB5
:101320000949C96A0B400B49C95CD20304D5074877
:10133000FEF7EAFE6043EDE76201121B93019B1A80
:10134000DB001B191802E5E70010024000127A00CA
:10135000CC150008BC15000870B504000D0000286D
:1013600000D17EE0434B1A68012313408B420AD21E
:1013700040490B68012293432B430B600B681A40D2
:10138000AA4200D06FE023689A070ED55B0705D507
:10139000394A5168E023DB000B435360364A5368F7
:1013A000F0218B43A1680B4353602368DB072DD5E5
:1013B0006368012B1ED0022B22D02F4A126892079D
:1013C00053D52D494A680320824313434B60FFF7EE
:1013D0006DFA0600284B5B680C221A4063689B007C
:1013E0009A4213D0FFF762FA801B244B9842F1D93E
:1013F000032035E0204A12689203E2D401202FE056
:101400001D4A12689201DCD4012029E0194B1A68A8
:1014100001231340AB4209D916490B6801229343BB
:101420002B430B600B681A40AA4220D123685B074C
:1014300006D5114A536812490B40E1680B435360CB
:10144000FFF760FF0C4B5A6812090F2313400D4A37
:10145000D35CD8400C4B18600320FFF7E3F9002061
:1014600070BD0120FCE70120FAE70120F8E7012028
:10147000F6E7C0460020024000100240881300003A
:10148000FFF8FFFFAC1500081800002082B00A4BDF
:10149000996901221143996199690A400092009A61
:1014A000DA69802149050A43DA61DB690B4001935F
:1014B000019B02B07047C0460010024082B0026833
:1014C000074B9A4201D002B07047064B9A698021BF
:1014D00089020A439A619B690B400193019BF2E7E1
:1014E00000440140001002400D488546FFF798F97E
:1014F0000C480D490D4A002302E0D458C45004336F
:10150000C4188C42F9D30A4A0A4C002301E0136044
:101510000432A242FBD300F019F8FFF7D7F8FEE738
:10152000002000200000002024000020E415000816
:10153000280000206C010020FEE70300821893427F
:1015400000D1704719700133F9E7000070B500262B
:101550000C4C0D4D641BA410A64209D1002600F0CE
:1015600019F80A4C0A4D641BA410A64205D170BD9F
:10157000B300EB5898470136EEE7B300EB589847B5
:101580000136F2E7DC150008DC150008E01500085C
:10159000DC150008F8B5C046F8BC08BC9E4670478C
:0C15A000F8B5C046F8BC08BC9E46704779
:1015AC000000000000000000010203040607080907
:1015BC000102030405060708090A0B0C0D0E0F1097
:1015CC0002030405060708090A0B0C0D0E0F101078
:0415DC00E90000081A
:0415E000C10000083E
:1015E4000500000080000000A0000000C000000012
:1015F400E00000000001000000127A000100000079
:0416040004000000DE
:04000005080014E9F2
:00000001FF
