:020000040800F2
:1000000000200020711E00087D1100087F110008EB
:1000100000000000000000000000000000000000E0
:100020000000000000000000000000008111000836
:100030000000000000000000831100088511000886
:10004000C11E0008C11E0008C11E0008C11E000814
:10005000C11E0008C11E0008C11E0008C11E000804
:10006000C11E0008C11E0008C11E0008C11E0008F4
:10007000C11E0008C11E0008C11E0008C11E0008E4
:10008000C11E0008C11E000800000000C11E0008BB
:10009000C11E0008C11E0008C11E0008C11E0008C4
:1000A000C11E0008C11E0008C11E0008C11E0008B4
:1000B000C11E000800000000C11E00080000000072
:1000C00010B5064C2378002B07D1054B002B02D02E
:1000D000044800E000BF0123237010BD2800002069
:1000E000000000001C1F0008044B10B5002B03D0BB
:1000F0000349044800E000BF10BDC04600000000F6
:100100002C0000201C1F0008002243088B4274D3DF
:1001100003098B425FD3030A8B4244D3030B8B4208
:1001200028D3030C8B420DD3FF22090212BA030C11
:100130008B4202D31212090265D0030B8B4219D3F2
:1001400000E0090AC30B8B4201D3CB03C01A524112
:10015000830B8B4201D38B03C01A5241430B8B425A
:1001600001D34B03C01A5241030B8B4201D30B0343
:10017000C01A5241C30A8B4201D3CB02C01A52416A
:10018000830A8B4201D38B02C01A5241430A8B422D
:1001900001D34B02C01A5241030A8B4201D30B0216
:1001A000C01A5241CDD2C3098B4201D3CB01C01A30
:1001B000524183098B4201D38B01C01A524143093A
:1001C0008B4201D34B01C01A524103098B4201D328
:1001D0000B01C01A5241C3088B4201D3CB00C01A95
:1001E000524183088B4201D38B00C01A524143080D
:1001F0008B4201D34B00C01A5241411A00D2014632
:10020000524110467047FFE701B5002000F006F8A4
:1002100002BDC0460029F7D076E770477047C04658
:10022000002B15D1002A13D1002906DB01DC0028A0
:1002300006D00020C043410802E0802109060020CA
:1002400007B4024801A14018029003BDD1FFFFFF8F
:1002500003B4684601B5029800F034F8019B9E464D
:1002600002B00CBC7047C046F0B5CE469946030CB0
:100270009C46130447461B0C1D000E0061460404F7
:10028000240C80B50700100C4B4365434143604389
:100290002C0CC01824188C46A34203D980235B027F
:1002A0009846C444494679435643230C2D042D0CEB
:1002B0008919634424046019C918C0BCB946B04602
:1002C000F0BDC046F8B5CE46474680B59146984643
:1002D00004000D0000F09CFB07000E0002000B0064
:1002E00048464146FFF7C0FF241A8D41089B38005D
:1002F00031001C605D60C0BCB946B046F8BDC04668
:10030000F0B5DE46454657464E46E0B587B000920A
:1003100001930B031B0B9B46CA0F4B000400804646
:100320005B0D029200D198E07C4A934237D0594647
:10033000420FC9000A43802109041143C2009046BC
:10034000774A894692469A44002300240393009EEC
:10035000019F3B031B0B9B467B0030005B0DFD0F99
:10036000002B59D06D4A934248D05946720FC900AC
:100370000A438021090411438B466949F2008C46E7
:1003800051466344CB1A9A460021029E6E40F6B253
:100390000F2C00D9CEE0634BA4001B599F465A4650
:1003A0000243914600D090E09A46022390460824EA
:1003B0000393CCE7CB464246029D0399022900D124
:1003C000DEE1032900D18DE0012900D079E12E0082
:1003D00000220023002490461B052343F6073343E5
:1003E0004046190007B0F0BCBB46B246A946A0463D
:1003F000F0BD002200249046484BEDE75A46009B92
:100400001A43494B9C46E244002A59D102231C431B
:10041000002302219B46B8E75A46009B1A4349D065
:100420005B46002B00D19CE1584600F0D3FA020055
:1004300003000B3A1D27009EBA1A19005846D640F1
:1004400008398840320002439346009A8A4037496F
:1004500053448A4600219A4497E75B4603439946F2
:1004600021D05B46002B00D169E1584600F0B2FA7A
:100470000B235B429C460200844466461D239B1B63
:10048000260011005846DE400839884033000343F7
:10049000994623008B409846254B00249B1A9A4688
:1004A0000023039353E7002398469A46013304241C
:1004B00003934CE701231C43002301219B4664E77F
:1004C0000323320003211C435FE79A460323D946E6
:1004D0000C2403933BE700238024984600260F4B0F
:1004E000240379E780245B4624031C4324032E0065
:1004F00090460A4B240B6FE780244B46240323428B
:1005000002D05B462342F0D080244B4624031C4398
:100510002403029E014B240B5EE7C046FF07000048
:1005200001FCFFFF341F000801F8FFFFF303000088
:100530000DFCFFFFCB4500D2F8E000D1F3E0012332
:100540005B429C46444648460025E2445B46170E03
:100550001B021F43190C3B04120200971F0C91460B
:1005600002910397FFF756FE02007A430B04210C19
:10057000804619438A4209D9009F0123BC465B4249
:1005800061449C46E0448F4200D85CE1881A02999D
:10059000FFF740FE039A240442430904240C03009D
:1005A0000C43A24206D90099013B8C466444A14207
:1005B00000D842E1A01A424612041A4393464B4621
:1005C00059461B0C1F0004930B0449460904090CEF
:1005D0000C001B0C5C43120C7B43884651437A434E
:1005E000270CBC465B186344994203D98021490219
:1005F0008C466244190C24041B04240C8A181C1910
:10060000904202D316D1A54214D25B46009F013B13
:100610004D4405934D459B41BC465B426344C01825
:10062000874200D302E1824200D929E100D124E1CE
:10063000059B9B462C1BA542AD41009B801A6D4239
:10064000401B834200D10FE10299FFF7E3FD039ABB
:100650000B044243210C050019438A4200D9CBE028
:10066000881A0299FFF7D6FD039A2404424309042D
:10067000240C03000C43A24200D9CAE04146A41A4C
:100680002A041A43049F13041B0C594340467B431E
:100690009C46150C68430B0C844463447D4398428C
:1006A00003D98020400284466544180C09041B04C9
:1006B000090C40195B18844227D323D0012335004D
:1006C0001A43944B5344002B60DD510700D086E061
:1006D0002E00D1085A46D20106D55A468E4B1A40F2
:1006E00080239346DB0053448C4A934200DD80E62E
:1006F0005A4652070A4390465A465B055402240B59
:100700005B0D69E63500002BDBD0009D511EAC4629
:100710006444AC4200D29EE0844200D2E1E000D1C9
:10072000EEE00A00CAE7424500D908E74B46DC077D
:10073000580843465B081C434346DD0706E700F0C4
:1007400049F915239C4684440200634620321C2B41
:1007500000DC92E62300083883409946002398463F
:100760009AE600F037F902000300153220331C2A04
:1007700000DC5FE600990838814000228B4666E67F
:1007800000222E0000249046654B25E62E00012114
:10079000C91A382900DD1BE61F297EDC61481400D8
:1007A00050445B4682408340CC40501E82412343EC
:1007B0001A435B46CB40510709D00F211140042951
:1007C00005D0111D9142924152429B180A00190214
:1007D00000D49BE00022012300249046FCE50F2179
:1007E0001140042900D173E7111D914292415242F8
:1007F0002E00C90893446DE7009B013D9C4661446F
:100800008B4200D92CE78A4200D829E7851E614433
:1008100026E70099013B8C466444A14200D92DE7AC
:10082000A24200D82AE7831E644427E7874200D00B
:10083000FEE6A94500D9FBE6F5E6A24200D8B9E6F6
:10084000831E6444B6E68A4200D89FE6BC46831EF7
:10085000984661449AE60A00844200D02EE74B4550
:1008600000D02BE735002CE72A4B2F4A5344924502
:1008700043DB0122002193442CE7AC4200D8D7E6A9
:1008800002235B429C4600994D444D459B41E34405
:100890008C465B426344C018CCE61F204042C31A1A
:1008A0005846D840202904D05946204B53449940FB
:1008B0000A43531E9A4107231900024300241140A2
:1008C000134209D008331340042B1DD0131D93424B
:1008D00089411A0049424907D2080A439046002339
:1008E0007AE54946009F4D004D458941BC46494245
:1008F0006144A946023A6418AEE70122524246E733
:100900009945EED30A00AAE70021E5E759075B0203
:100910001C0BE1E7FF030000FFFFFFFEFE070000E6
:10092000FF0700001E04000002FCFFFF3E04000061
:1009300070B5002816D0C317C5185D40C40F280035
:1009400000F048F8104B1B1A5B055B0D0A2814DCFD
:1009500002002E00153296400B22121AD5402D03AC
:100960002D0B03E000240023002500261B052B434C
:10097000E40723433000190070BD0B3885402D0378
:1009800000262D0BF2E7C0461E04000010B5041E21
:1009900010D000F01FF80E4B1B1A5B055B0D0A28E8
:1009A0000FDC0B222100121AD14015300A038440BB
:1009B000120B01E0002300221B0513432000190045
:1009C00010BD22000B38824012030024120BF3E703
:1009D0001E0400001C2101231B04984201D3000CBB
:1009E00010391B0A984201D3000A08391B099842A2
:1009F00001D30009043902A2105C40187047C046B8
:100A000004030202010101010000000000000000D7
:100A1000F0B54F464646D646C0B506000F0010005A
:100A2000190082B0002F5DDB34003D00002B0BDB92
:100A300016001F00AB4217D90020002102B0E0BC15
:100A4000BA46B146A846F0BD002746428F41AF42A4
:100A5000F2D800D1A0E001235B42994609E00027CB
:100A600046428F41AF42E7D8AF4200D190E0002329
:100A700099463900300000F0B7F880462900200080
:100A800000F0B2F843461B1A9846203B75D431005B
:100A900099409A460B003100404681400A00AB4223
:100AA0002ED82BD05146A41A9D41002900DA90E09F
:100AB0000021002001260090019151468E400196B0
:100AC000414601268E404146009600291FD10098DC
:100AD00001994B46002BB1D003000C000021584275
:100AE000A141ABE700257442BD41002BB7DB1600E6
:100AF0001F00AB42A0D8AF42ADD14DE0A142D1D949
:100B0000002100200090019141460029DFD0D90743
:100B100056085F080E4343460EE0AF4201D1A6429D
:100B20000CD8A41BBD41012124196D410022013BB9
:100B300064185541002B06D0AF42EED9013B241971
:100B40006D41002BF8D1009A019B514612196B415F
:100B5000002925DB2E002C00CE404146CC405146DA
:100B600000292DDB34008C4021004446A640300093
:100B7000121A8B4100920193A9E7424638009A4627
:100B80002023310090409B1AD94003000B4382E799
:100B9000A64200D950E76AE7A64200D85BE74BE7D8
:100BA00040462021091A28008840260001004046BE
:100BB000C6402C000E434146CC4051460029D1DAB4
:100BC0004046202135008440091ACD4021002943A8
:100BD000CBE7414620260127761A00200021F74066
:100BE0000090019101976BE710B5002903D1FFF741
:100BF000F1FE203002E00800FFF7ECFE10BDC04619
:100C000010B588B01422002103A801F05AF9174B3F
:100C10005A698021C9030A435A615A690A400092FD
:100C2000009A5A698021C9020A435A615A690A40E6
:100C30000192019A5A69802189020A435A615B69CB
:100C40000B400293029B0A4C0022FF21200000F07F
:100C50000BFFFF230393FE3B0493002305930693AE
:100C600003A9200000F03CFE08B010BD00100240B7
:100C700000040048F0B5DE4657464E464546E0B50E
:100C8000A1B082468B4690460022002300241C938C
:100C90001D941F92F7E0854A002300980199FFF701
:100CA000BFFA00900191814A002330003900FFF71C
:100CB000B7FA009E019F361A8F41049A059B2000C7
:100CC0002900FFF7D1FA02000B0092185B411000D7
:100CD0001900764A0023FFF7A3FA089B099C1B180A
:100CE0004C4104930594069C079DA4197D41012263
:100CF00000230298039980185941029003914346BA
:100D0000DA1703998A4221D922002B0020002900FA
:100D1000FFF7AAFA009001910498059902000B00D0
:100D2000FFF7A2FA06000F00009A019B92197B417F
:100D30000A920B93E92189008B420DDA5C498B42C0
:100D4000A9D15C4B0A9A9A42A5D905E00298039969
:100D50008A4201D18342D7D857464E46D9461C9B7A
:100D60001D9C0299039A5B1854411C931D94012306
:100D70009C46E1447B1E4B4500D27FE04B461893D6
:100D8000002319931593189C199DE20E1592620188
:100D90001492149A159B121BAB41D10D58020D9061
:100DA00008430D9052020C920C9A0D9B12196B4144
:100DB000910E98010F9008430F9091010E910E989B
:100DC0000F99801A994100196941FB173A00FFF702
:100DD00027FA394A0023FFF747FA344A0023FFF77E
:100DE0001FFA364A01235B42801859410690079149
:100DF0001F9A1A9200231B9317931A9C1B9DE30EB4
:100E0000179363011693169A179B121BAB41D10DD2
:100E1000580211900843119053021093109A119B9D
:100E200012196B41910E9801139008431390910190
:100E3000129112981399801A994100196941F31778
:100E40003200FFF7EDF91E4A0023FFF70DFA174AAB
:100E50000023FFF7E5F91B4A01235B428018594143
:100E600008900991002300240293039404930594AD
:100E700000240025CB46BA46B14640E7BA46B34601
:100E80001F9B01331F935B46013B1F9A934204D380
:100E90000023994657465E466CE71C981D9921B081
:100EA000F0BCBB46B246A946A046F0BD40420F008A
:100EB000A303000000409452E067350060DAD9FFD8
:100EC00080841E00C0BDF0FF72B6FEE700B587B09B
:100ED0001022002102A800F0F4FF08220021684639
:100EE00000F0EFFF14488023DB050360002343601C
:100EF000836002225242C2600361836100F070FE8F
:100F0000002813D180235B0102930B4802A900F053
:100F10009FFE00280CD100230093019306486946E8
:100F200000F01AFF002805D107B000BDFFF7CCFF85
:100F3000FFF7CAFFFFF7C8FF4001002000B587B0E8
:100F40001022002102A800F0BCFF08220021684600
:100F500000F0B7FF1448154B036000234360836023
:100F6000134AC26003614361836100F039FE0028C7
:100F700013D180235B0102930B4802A900F068FEA5
:100F800000280CD10023009301930748694600F024
:100F9000E3FE002805D107B000BDFFF795FFFFF77E
:100FA00093FFFFF791FFC04688010020002C01400D
:100FB000FFFF000000B591B03022002104A800F02E
:100FC00080FF10220021684600F07BFF022304937B
:100FD000012207920F3208920C93A0239B030E93D9
:100FE00004A800F00FF900280ED107230093053B59
:100FF00001930023029303930121684600F07AFBDA
:10100000002803D111B000BDFFF75EFFFFF75CFFC2
:10101000F0B5DE4657464E464546E0B585B000F091
:101020002BFCFFF7C7FFFFF7EBFDFFF74FFFFFF7C5
:1010300085FF454800F04CFD01220121434800F0A6
:1010400013FD00251DE030003900801A9941404B06
:10105000EA009B18186059603C4C012202212000D4
:1010600000F002FDFA20C00000F028FC002201215F
:10107000200000F0F9FC00220221200000F0F4FC26
:101080000135344B1B68AB425CDD334BAA00914603
:10109000D45800F00DFC314B9A4618602A4B9B4601
:1010A0001B685B6A2E4A90461360002353606422DB
:1010B00021002000FFF7DEFD2A4BEA000192944652
:1010C00063441860596000F0F3FB274B18605B46DF
:1010D0001B685B6A1E000027244B1E605F6053463E
:1010E0001B68C01A224B4946C8506443FFF74EFCA8
:1010F0000022204BFFF704F9029003912000FFF734
:1011000017FC029A039BFFF7FBF81B4B019A9446CE
:1011100063441860596043461A685B68002B03D12A
:10112000BB4290D1B2428ED930003900801A994129
:101130000022012380185941054BEA009B181860D2
:10114000596089E7FEE7C0464001002000040048DE
:101150008800002000000020040000203C01002046
:1011600030010020E8000020380100202801002084
:10117000C800002000408F4048000020FEE7FEE746
:101180007047704710B500F087FB10BD82B00A4B66
:10119000996901221143996199690A400092009A64
:1011A000DA69802149050A43DA61DB690B40019362
:1011B000019B02B07047C0460010024082B0036835
:1011C0000E4A934205D08022D20593420CD002B041
:1011D00070470B4B9A69802109010A439A619B6908
:1011E0000B400093009BF2E7054AD16901231943A4
:1011F000D161D26913400193019BE8E7002C0140C3
:101200000010024070B582B0041E00D12EE20368C7
:10121000DB0726D5AE4B5A680C231340042B18D09D
:10122000AB4B5A680C231340082B0ED06368012B7C
:101230003CD0002B51D1A64B1A68A6490A401A602F
:101240001A68A5490A401A6036E0A14B5B68DB03C7
:10125000ECD59F4B1B689B0303D56368002B00D123
:1012600007E223689B0772D5994B5B680C221A42F0
:101270005DD0974B5A680C231340082B53D0E3687A
:10128000002B00D185E0924A136801210B431360C3
:1012900000F00EFB05008E4B1B689B0770D400F01E
:1012A00007FB401B0228F6D90320E0E1884A1168B9
:1012B00080235B020B4313606368002B25D000F092
:1012C000F7FA0500824B1B689B03CAD400F0F0FAC2
:1012D000401B6428F6D90320C9E1052B09D07C4BBB
:1012E0001A687C490A401A601A687B490A401A60E9
:1012F000E2E7774B19688022D2020A431A60196824
:10130000802252020A431A60D6E700F0D1FA0500A3
:101310006F4B1B689B03A4D500F0CAFA401B6428DE
:10132000F6D90320A3E16A4B5B68DB03A7D4684BC3
:101330001B689B0703D5E368012B00D09BE1644940
:101340000B68F82293432269D20013430B60236891
:101350001B0744D5E369002B2ED05D4A536A012157
:101360000B43536200F0A4FA0500594B5B6A9B07DC
:1013700035D400F09DFA401B0228F6D9032076E10F
:1013800053490B68F82293432269D20013430B6040
:10139000DDE74F4A136801218B43136000F088FAA0
:1013A00005004B4B1B689B07D1D500F081FA401B11
:1013B0000228F6D903205AE1454A536A01218B439A
:1013C000536200F075FA0500414B5B6A9B0706D536
:1013D00000F06EFA401B0228F6D9032047E123688B
:1013E0005B0700D480E03A4BDB69DB001DD4384B4F
:1013F000DA69802149050A43DA61DB690B40019310
:10140000019B0125354B1B68DB0510D5A368012B1B
:1014100021D0002B36D12E4B1A6A01218A431A6241
:101420001A6A03318A431A621AE00025EAE72B4A56
:10143000116880235B000B43136000F039FA06004B
:10144000264B1B68DB05E1D400F032FA801B6428D0
:10145000F6D903200BE11E4A136A01210B431362E4
:10146000A368002B24D000F023FA0600184B1B6A57
:101470009B0737D400F01CFA801B194B9842F5D912
:101480000320F4E0052B09D0114B1A6A01218A438D
:101490001A621A6A03318A431A62E1E70C4B1A6A2C
:1014A00004210A431A621A6A03390A431A62D7E707
:1014B00000F0FEF90600064B1B6A9B0712D500F0F0
:1014C000F7F9801B064B9842F5D90320CFE0C046C0
:1014D00000100240FFFFFEFFFFFFFBFF0070004017
:1014E00088130000012D33D02368DB0610D5636913
:1014F000012B33D0053351D1654A536B04218B4303
:101500005363536BF4318B43A169C9000B4353639D
:10151000236A002B00D1B0E05D4A51680C220A40DA
:10152000082A00D18AE0022B4FD0594A1368594942
:101530000B40136000F0BCF90400554B1B689B0185
:101540007AD500F0B5F9001B0228F6D903208EE009
:101550004F4AD36950490B40D361C5E74C4B5A6B96
:1015600004210A435A635A6B03390A435A6300F051
:101570009FF90500464B5B6B9B0706D400F098F97A
:10158000401B0228F6D9032071E041494B6BF82239
:101590009343A269D20013434B63B9E73C4B5A6BA8
:1015A00004210A435A635A6B03398A435A6300F091
:1015B0007FF90500364B5B6B9B07A9D500F078F9E6
:1015C000401B0228F6D9032051E0314A1368314903
:1015D0000B40136000F06CF905002D4B1B689B015C
:1015E00006D500F065F9401B0228F6D903203EE03D
:1015F000274BDA6A0F218A43E16A0A43DA625A68A2
:1016000026490A40A16A606A01430A435A60196880
:10161000802252040A431A6000F04AF904001C4B6D
:101620001B689B0106D400F043F9001B0228F6D981
:1016300003201CE000201AE0002018E0012B1ED03F
:10164000134B5A68D86A80235B021340616A8B424D
:1016500017D10F230340E16A8B4214D1F0239B037F
:101660001A40A36A9A4210D1002000E0012002B083
:1016700070BD0120FBE70120F9E70020F7E701201A
:10168000F5E70120F3E70120F1E70120EFE7C0468D
:1016900000100240FFFFFFFEFFFFFFEFFFFFC2FF52
:1016A00010B5104B5A680C231340082B01D00E487C
:1016B00010BD910C073319400C48445C0949C96AB4
:1016C0000B400B49C95CD20304D50748FEF71CFD4B
:1016D0006043EDE76201121B93019B1ADB001B19AB
:1016E0001802E5E70010024000127A00841F00088B
:1016F000741F000870B504000D00002800D17EE0C2
:10170000434B1A68012313408B420AD240490B68AD
:10171000012293432B430B600B681A40AA4200D06E
:101720006FE023689A070ED55B0705D5394A5168E3
:10173000E023DB000B435360364A5368F0218B43B0
:10174000A1680B4353602368DB072DD56368012B29
:101750001ED0022B22D02F4A1268920753D52D4952
:101760004A680320824313434B6000F0A1F806004F
:10177000284B5B680C221A4063689B009A4213D086
:1017800000F096F8801B244B9842F1D9032035E0F5
:10179000204A12689203E2D401202FE01D4A126809
:1017A0009201DCD4012029E0194B1A68012313406F
:1017B000AB4209D916490B68012293432B430B60B6
:1017C0000B681A40AA4220D123685B0706D5114A4C
:1017D000536812490B40E1680B435360FFF760FF09
:1017E0000C4B5A6812090F2313400D4AD35CD840A2
:1017F0000C4B1860032000F017F8002070BD01208A
:10180000FCE70120FAE70120F8E70120F6E7C046EF
:10181000002002400010024088130000FFF8FFFF84
:10182000941F00082000002010B504000F4B197809
:10183000FA208000FEF768FC01000D4B1868FEF7E7
:1018400063FC00F00FFB00280DD1032C01D901200F
:101850000AE0013000222100404200F0FFFA054B6F
:101860001C60002000E0012010BDC04618000020D0
:10187000200000201C00002010B5064A136810212B
:101880000B4313600320FFF7CFFFFFF77FFC00201F
:1018900010BDC04600200240034A1168034B1B786C
:1018A0005B1813607047C046D0010020180000206C
:1018B000014B18687047C046D001002070B5040085
:1018C000FFF7F6FF0500631C02D0044B1B78E418F9
:1018D000FFF7EEFF401BA042FAD370BD18000020B6
:1018E000F0B583B0002356E086685F000324BC4057
:1018F000A643CC68BC4034438460446894434E683B
:101900003609012232409A402243426053E0DE0809
:101910000836B600375805321A4092000F2494401A
:10192000A7430C69944022003A43325056E0032604
:1019300000E00026A64034003C4302329200444EB0
:101940009451444A9768EA433E00AE434C68E4022F
:1019500001D53E002E433F4CA660E7683E0016408E
:101960004C68A40201D53E002E433A4CE6606768FD
:101970003E0016404C68A40301D53E002E43354C72
:101980006660266832404C68E40301D52A00324381
:10199000304C226001330C682200DA4056D001221C
:1019A0009A40250015401442F4D04E680324344078
:1019B000013C012C98D94C6803222240032A08D00C
:1019C000C4685E000322B24094438A68B240224356
:1019D000C2604C6803222240022A98D004685E004C
:1019E00003221700B740BC434F683A40B24022433D
:1019F00002604C68C02292021442CBD0164CA669F9
:101A000001221643A661A46922400192019A9A0814
:101A1000941CA4000E4EA75903241C40A4000F26BA
:101A2000A640B7439026F605B04282D00B4EB04296
:101A300008D00B4EB04207D00A4EB04200D176E734
:101A4000052677E7012675E7022673E703B0F0BDA8
:101A50000000014000040140001002400004004862
:101A600000080048000C0048002A01D0816170473E
:101A70008162FCE730B5036A046A0125AC43046265
:101A80008469EF35AC43120122430A24A3430B437C
:101A90008261036230BD000030B5036A046A10251C
:101AA000AC4304628469054D2C4012032243A024F8
:101AB000A343090119438261016230BDFF0FFFFF9B
:101AC0008368702293430B43693A134383607047E2
:101AD0003D23C35C012B21D13C330222C254036855
:101AE000104A93420FD08022D20593420BD00E4A67
:101AF000934208D00D4A934205D01A6801210A4347
:101B00001A6000200BE0996807220A40062A07D0D5
:101B10001A6801210A431A60002000E00120704782
:101B20000020FCE7002C0140000400400040014080
:101B30000368244A904206D08022D205904202D007
:101B4000214A904203D1702293434A6813431D4AAD
:101B5000904212D08022D20590420ED01A4A904272
:101B60000BD01A4A904208D0194A904205D0194A1F
:101B7000904202D0184A904203D1184A1A40CB68CA
:101B80001343802293434A69134303608B68C36203
:101B90000B6883620B4B984208D00D4B984205D0DE
:101BA0000C4B984202D00C4B984201D10B69036355
:101BB000012343610269134203D003690122934365
:101BC00003617047002C01400004004000200040E9
:101BD000004001400044014000480140FFFCFFFF7D
:101BE00070B5041E26D03D23C35C002B1CD03D25C0
:101BF00002236355210001C9FFF79AFF0123462202
:101C0000A354083AA3540132A3540132A35401321D
:101C1000A3540132A3540132A3540132A35401321C
:101C2000A3546355002070BD3C330022C254FFF71B
:101C3000C5FADCE70120F6E730B58468034D2C4097
:101C40001B0213430B432343836030BDFF00FFFFA0
:101C500010B504000B003C22825C012A00D177E021
:101C60003C220121815401320131815401688A688A
:101C7000384802408A60196860294FD023D840292B
:101C800057D011D8202904D00AD8002901D0102912
:101C900004D12068FFF714FF00202AE0012028E08B
:101CA0003029F6D0012024E050290AD15968DA6899
:101CB0002068FFF7DFFE20685021FFF701FF0020BA
:101CC00017E0012015E08022520191423CD0802291
:101CD0009201914214D0702938D199685A68DB6812
:101CE0002068FFF7A9FF2268936877210B43936070
:101CF00000203D230122E254013B0022E25410BDAA
:101D000099685A68DB682068FFF796FF2268916837
:101D10008023DB010B4393600020EAE75968DA680F
:101D20002068FFF7B9FE20686021FFF7C9FE002098
:101D3000DFE75968DA682068FFF79CFE20684021D9
:101D4000FFF7BEFE0020D4E70020D2E70120D0E755
:101D50000220D4E78800FFFF30B53C23C35C012B91
:101D600028D03C230122C25401330132C2540368FB
:101D70005C689D686E3294430A6822435A60036827
:101D80000D4A934209D08022D205934205D00B4AD6
:101D9000934202D00A4A934204D1802295434A6872
:101DA0002A439A603D230122C254013B0022C254BF
:101DB000002030BD0220FCE7002C01400004004060
:101DC0000040014070B5002811DB8308134DC0337B
:101DD0009B005C5903221040C000FC321600864074
:101DE000B44389010A40824022435A5170BD0F23F7
:101DF0000340083B9B0806339B00094A9446634412
:101E00005C6803221040C000FC3215008540AC43E2
:101E100089010A40824022435A60E7E700E100E07E
:101E200000ED00E0013880235B0498420FD2094A9C
:101E300050600948036A1B021B0AC02109060B43B4
:101E40000362002393600733136000207047012072
:101E5000FCE7C04610E000E000ED00E010B5FFF741
:101E6000B1FF10BD10B5FFF7DDFF10BD70470000DA
:101E70000D488546FFF7FAFF0C480D490D4A00232F
:101E800002E0D458C4500433C4188C42F9D30A4A2F
:101E90000A4C002301E013600432A242FBD300F09D
:101EA00019F8FFF7B5F8FEE7002000200000002039
:101EB00024000020B41F000828000020D4010020C6
:101EC000FEE703008218934200D170471970013376
:101ED000F9E7000070B500260C4C0D4D641BA410F2
:101EE000A64209D1002600F019F80A4C0A4D641BDD
:101EF000A410A64205D170BDB300EB589847013637
:101F0000EEE7B300EB5898470136F2E7AC1F000844
:101F1000AC1F0008B01F0008AC1F0008F8B5C04691
:101F2000F8BC08BC9E467047F8B5C046F8BC08BC73
:041F30009E46704712
:101F340034050008F2030008D0030008BC030008BD
:101F4400D0030008D6040008D0030008BC0300082E
:101F5400F2030008F2030008D6040008BC030008DA
:101F6400B4030008B4030008B4030008F80400082C
:101F74000102030405060708090A0B0C0D0E0F10D5
:101F840002030405060708090A0B0C0D0E0F1010B6
:101F94000000000000000000010203040607080915
:081FA4006CEAFF7F0100000060
:041FAC00E900000840
:041FB000C100000864
:101FB4000500000080000000A0000000C000000038
:101FC400E000000000010000010000000400000027
:041FD40000127A007D
:0400000508001E7160
:00000001FF
